:020000040000fa
:080000000002040000000000f2
:020000040000fa
:100400006fa52000007f220000018800000000008e
:100410000c000700e02f230001002000110007005e
:10042000000020000000e000020032000000020096
:1004300000000000d4310200000000000040da009b
:100440000000fe004440a900a02f21000000e000b1
:100450000300320000002000a00188004440a800f2
:100460000000060091018800800078000000eb0089
:1004700015003700e280400032a0b4009101ba00bc
:10048000e280400032a0b4009102ba00e280400055
:1004900032a0b4000002eb00472bde00f507b200eb
:1004a000602ce10004003a000059eb008301e900f0
:1004b000fdff3e00040037006128e100010032002a
:1004c0000082eb00040007001101ba000200e00006
:1004d000e8ff3a00000006003159ba008301e90044
:1004e0000c0032002159ba008301e90008003200f3
:1004f0000400e00003003a00e280400032a0b400b3
:10050000f5ff370011d9ba008301e900faff3a007c
:100510008100e800e180400032a0b4000000060045
:020000040000fa
:020000040001f9
:0407f8002efb0000d4
:020000040000fa
:020000040001f9
:0407fc00fb1d0000e1
:020000040000fa
:100008005a3300005a3300005a3300005a330000b4
:100018005a3300005a3300005a3300005a330000a4
:100028005a3300005a3300005a330000da2f000018
:100038005a3300005a3300005a3300005a33000084
:100048005a3300005a3300005a3300005a33000074
:100058005a3300005a3300005a3300005a33000064
:100068005a3300005a3300005a3300005a33000054
:100078005a3300005a3300005a3300005a33000044
:100088005a3300005a3300005a3300005a33000034
:10009800be2e00005a3300005a3300005a330000c5
:1000a8005a3300005a3300005a3300005a33000014
:1000b8005a3300005a3300005a3300005a33000004
:1000c8005a3300005a3300005a3300005a330000f4
:1000d8005a3300005a3300005a3300005a330000e4
:1000e8005a3300005a3300005a3300005a330000d4
:1000f8005a3300005a3300005a3300005a330000c4
:100108005a3300005a3300005a3300005a330000b3
:100118005a3300005a3300005a3300005a330000a3
:100128005a3300005a3300005a3300005a33000093
:100138005a3300005a3300005a3300005a33000083
:100148005a3300005a3300005a3300005a33000073
:100158005a3300005a3300005a3300005a33000063
:100168005a3300005a3300005a3300005a33000053
:100178005a3300005a3300005a3300005a33000043
:100188005a3300005a3300005a3300005a33000033
:100198005a3300005a3300005a3300005a33000023
:1001a8005a3300005a3300005a3300005a33000013
:1001b8005a3300005a3300005a3300005a33000003
:1001c8005a3300005a3300005a3300005a330000f3
:1001d8005a3300005a3300005a3300005a330000e3
:1001e8005a3300005a3300005a3300005a330000d3
:0801f8005a3300005a330000e5
:020000040000fa
:100208005a3300005a3300005a3300005a330000b2
:100218005a3300005a3300005a3300005a330000a2
:100228005a3300005a3300005a330000da2f000016
:100238005a3300005a3300005a3300005a33000082
:100248005a3300005a3300005a3300005a33000072
:100258005a3300005a3300005a3300005a33000062
:100268005a3300005a3300005a3300005a33000052
:100278005a3300005a3300005a3300005a33000042
:100288005a3300005a3300005a3300005a33000032
:10029800be2e00005a3300005a3300005a330000c3
:1002a8005a3300005a3300005a3300005a33000012
:1002b8005a3300005a3300005a3300005a33000002
:1002c8005a3300005a3300005a3300005a330000f2
:1002d8005a3300005a3300005a3300005a330000e2
:1002e8005a3300005a3300005a3300005a330000d2
:1002f8005a3300005a3300005a3300005a330000c2
:100308005a3300005a3300005a3300005a330000b1
:100318005a3300005a3300005a3300005a330000a1
:100328005a3300005a3300005a3300005a33000091
:100338005a3300005a3300005a3300005a33000081
:100348005a3300005a3300005a3300005a33000071
:100358005a3300005a3300005a3300005a33000061
:100368005a3300005a3300005a3300005a33000051
:100378005a3300005a3300005a3300005a33000041
:100388005a3300005a3300005a3300005a33000031
:100398005a3300005a3300005a3300005a33000021
:1003a8005a3300005a3300005a3300005a33000011
:1003b8005a3300005a3300005a3300005a33000001
:1003c8005a3300005a3300005a3300005a330000f1
:1003d8005a3300005a3300005a3300005a330000e1
:1003e8005a3300005a3300005a3300005a330000d1
:0803f8005a3300005a330000e3
:020000040000fa
:1005200020200000202000002020000020200000cb
:1005300020200000202000002020000020200000bb
:1005400020200000202000002020000020200000ab
:10055000202000004a69000067610000204100007f
:100560004d540000203800003030000030200000e2
:10057000202d00002020000020200000202000006e
:100580002020000020200000446500006665000077
:10059000697400006f730000205000006c6100005f
:1005a00063610000203100002020000020200000b6
:1005b000466100006c200000506900006e200000c1
:1005c000465800004f5f00004155000044490000bc
:1005d0004f5f00004f5500005420000050310000d4
:1005e000466100006c200000506900006e20000091
:1005f000465800004f5f000041550000444900008c
:100600004f5f0000494e00002050000031200000e4
:10061000466100006c680000612000005069000025
:100620006e6f000020460000584f00005f5200002f
:100630004c20000050430000492000003120000001
:10064000466100006c6800006120000050690000f5
:100650006e6f000020460000584f00005f4300000e
:100660004c200000504300004920000031200000d1
:10067000466100006c6800006120000050690000c5
:100680006e6f000020460000584f00005f440000dd
:100690004c200000504300004920000031200000a1
:1006a000466100006c680000612000005069000095
:1006b0006e6f000020460000584f00005f440000ad
:1006c000522000005043000049200000312000006b
:1006d000466100006c680000612000005069000065
:1006e0006e6f000020460000584f00005f5200006f
:1006f0004420000050430000492000003120000049
:10070000546900006d6500006f75000074200000e2
:10071000646f0000207400006573000074650000c1
:10072000205000006c610000636100003120000077
:10073000466100006c680000612000004750000026
:1007400052530000205000006c6100006361000003
:100750002031000020200000202000002020000088
:10076000466100006c6800006120000057690000cd
:1007700046690000205000006c61000063610000c9
:100780002031000020200000202000002020000058
:10079000466100006c6800006120000045740000a4
:1007a00068650000726e0000657400002050000053
:1007b0006c61000063610000203100002020000017
:1007c000466100006c68000061200000426100008a
:1007d000746500007269000061200000506c000028
:1007e0006163000061200000312000002020000033
:1007f000466100006c68000061200000436f00004b
:100800006d7500006e690000632000005246000014
:10081000205000004c6100006361000020310000a6
:10082000466100006c680000612000004545000042
:10083000505200004f4d0000205000006c6100003d
:100840006361000020310000202000002020000013
:1008500020200000202000004465000066650000a4
:10086000697400006f730000205000006c6100008c
:1008700063610000203200002020000020200000e2
:10088000466100006c200000506900006e200000ee
:10089000465800004f5f00004155000044490000e9
:1008a0004f5f00004f550000542000005032000000
:1008b000466100006c200000506900006e200000be
:1008c000465800004f5f00004155000044490000b9
:1008d0004f5f0000494e0000205000003220000011
:1008e000466100006c680000612000005069000053
:1008f0006e6f000020460000584f00005f5200005d
:100900004c2000005043000049200000322000002d
:10091000466100006c680000612000005069000022
:100920006e6f000020460000584f00005f4300003b
:100930004c200000504300004920000032200000fd
:10094000466100006c6800006120000050690000f2
:100950006e6f000020460000584f00005f4400000a
:100960004c200000504300004920000032200000cd
:10097000466100006c6800006120000050690000c2
:100980006e6f000020460000584f00005f440000da
:100990005220000050430000492000003220000097
:1009a000466100006c680000612000005069000092
:1009b0006e6f000020460000584f00005f5200009c
:1009c0004420000050430000492000003220000075
:1009d000546900006d6500006f7500007420000010
:1009e000646f0000207400006573000074650000ef
:1009f000205000006c6100006361000020320000a4
:100a0000466100006c680000612000004750000053
:100a100052530000205000006c6100006361000030
:100a200020320000202000002020000020200000b4
:100a3000466100006c6800006120000057690000fa
:100a400046690000205000006c61000063610000f6
:100a50002032000020200000202000002020000084
:100a6000466100006c6800006120000045740000d1
:100a700068650000726e0000657400002050000080
:100a80006c61000063610000203200002020000043
:100a9000466100006c6800006120000042610000b7
:100aa000746500007269000061200000506c000055
:100ab000616300006120000032200000202000005f
:100ac000466100006c68000061200000436f000078
:100ad0006d7500006e690000632000005246000042
:100ae000205000004c6100006361000020320000d3
:100af000466100006c680000612000004545000070
:100b0000505200004f4d0000205000006c6100006a
:100b10006361000020200000202000002020000051
:100b200020460000616c0000686100002047000062
:100b30007261000076610000636100006f200000b8
:100b4000506c000061630000612000003120000053
:100b500020460000616c0000686100002047000032
:100b60007261000076610000636100006f20000088
:100b7000506c000061630000612000003220000022
:100b8000546900006d6500006f750000742000005e
:100b9000477200006176000061630000616f000031
:100ba000205000006c6100006361000020310000f3
:100bb000546900006d6500006f750000742000002e
:100bc000477200006176000061630000616f000001
:100bd000205000006c6100006361000020320000c2
:100be000546900006d6500006f75000074200000fe
:100bf000507200006f6700002e200000506c000053
:100c0000616300006120000020200000202000001f
:100c1000466100006c680000612000006e6f0000fb
:100c20002041000070610000676100006d650000f8
:100c30006e7400006f200000504300004931000036
:100c4000466100006c6800006120000047720000ef
:100c5000617600002e2000004d6500006d6f0000e1
:100c6000726900006120000050430000493100001b
:100c7000466100006c6800006120000047720000bf
:100c8000617600002e200000436f00006e660000b9
:100c90006967000020500000434900002031000037
:100ca000466100006c68000061200000416c00009b
:100cb000696d00002e280000564400004429000001
:100cc0002050000043490000203100002020000097
:100cd000466100006c68000061200000546500005f
:100ce0006e7300002e2800005650000050290000ae
:100cf0002050000043490000203100002020000067
:100d000020460000616c0000686100002050000077
:100d10006c61000063610000203100002041000090
:100d200075730000656e00007465000020200000ef
:100d3000466100006c680000612000006e6f0000da
:100d40002041000070610000676100006d650000d7
:100d50006e7400006f200000504300004932000014
:100d6000466100006c6800006120000047720000ce
:100d7000617600002e2000004d6500006d6f0000c0
:100d800072690000612000005043000049320000f9
:100d9000466100006c68000061200000477200009e
:100da000617600002e200000436f00006e66000098
:100db0006967000020500000434900002032000015
:100dc000466100006c68000061200000416c00007a
:100dd000696d00002e2800005644000044290000e0
:100de0002050000043490000203200002020000075
:100df000466100006c68000061200000546500003e
:100e00006e7300002e28000056500000502900008c
:100e10002050000043490000203200002020000044
:100e200020460000616c0000686100002050000056
:100e30006c6100006361000020320000204100006e
:100e400075730000656e00007465000020200000ce
:100e500020200000566100006c6900006461000001
:100e60006e6400006f200000706900006e6f00006b
:100e700073200000494f00002020000020200000c7
:100e80004772000061760000616e0000646f000030
:100e90002046000057200000646500002074000018
:100ea0006573000074650000202e00002e2e0000e7
:100eb000202000004772000061760000616e000093
:100ec000646f0000204600005720000066690000a3
:100ed0006e6100006c2000002e2e00002e2000000d
:100ee000204900006e69000063690000616c000029
:100ef000697a0000616e0000646f000020700000dd
:100f00006c61000063610000732e00002e2e000053
:100f10002054000065730000746100006e640000de
:100f20006f200000746500006e7300006f650000a4
:100f3000732000002e2e00002e2000002020000034
:100f40002020000020560000616c00006964000051
:100f5000616e0000646f0000207400006573000083
:100f600074650000732000002e2e00002e2000006b
:100f70002050000072650000706100007261000086
:100f80006e6400006f2000004657000020460000fd
:100f9000696e0000616c0000202e00002e2e000003
:100fa0002020000020200000464900004d200000c5
:100fb000444f0000532000005445000053540000eb
:100fc00045530000202000002020000020200000c9
:100fd0002020000052450000535500004c540000f2
:100fe000414400004f200000444f00005320000007
:100ff00054450000535400004553000020200000d9
:1010000020200000205000005245000053530000f3
:10101000494f00004e4500002041000020430000e1
:10102000484100005645000020200000202000001c
:10103000202000002050000041520000412000000c
:101040005649000053550000414c0000495a000029
:1010500041520000204f00005320000020200000db
:101060004445000046450000495400004f5300002d
:10107000204300004f520000524500005350000032
:101080004f4e0000444500004e5400004553000000
:101090002020000020200000202000002020000050
:1010a000204900004e490000434900004f20000045
:1010b0002020000020200000202000002020000030
:1010c0002020000042750000672000006e610000d3
:1010d000206700007261000076610000636100001b
:1010e0006f210000212100002020000020200000ae
:1010f00042420000424200004242000042420000e0
:1011000042420000424200004242000042420000cf
:1011100042420000424200004242000042420000bf
:1011200042420000424200004242000042420000af
:1017e000506c000061630000612000005245000061
:1017f0004c4500002030000020610000757300009f
:10180000656e0000746500002020000020200000ac
:10181000506c000061630000612000005245000030
:101820004c4500002031000020610000757300006d
:10183000656e00007465000020200000202000007c
:10184000506c000061630000612000005245000000
:101850004c4500002032000020610000757300003c
:10186000656e00007465000020200000202000004c
:10187000506c0000616300006120000052450000d0
:101880004c4500002033000020610000757300000b
:10189000656e00007465000020200000202000001c
:1018a000506c00006163000061200000412f0000c7
:1018b00044200000302000006175000073650000c6
:1018c0006e74000065200000202000002020000031
:1018d000506c00006163000061200000412f000097
:1018e0004420000031200000617500007365000095
:1018f0006e74000065200000202000002020000001
:10190000506c00006163000061200000412f000066
:101910004420000032200000617500007365000063
:101920006e740000652000002020000020200000d0
:10193000506c00006163000061200000412f000036
:101940004420000033200000617500007365000032
:101950006e740000652000002020000020200000a0
:10196000506c00006163000061200000746500009d
:101970006c650000666f00006e6900006120000069
:1019800061750000736500006e7400006520000042
:10199000506c000061630000612000006261000083
:1019a00072720000616d0000656e0000746f0000cf
:1019b0002061000075730000656e00007465000012
:1019c000506c000061630000612000004469000069
:1019d000737000006c6100007920000061750000e8
:1019e000736500006e740000652000002020000078
:1019f000506c00006163000061200000677200000d
:101a000061760000616400006f7200002030000009
:101a10002061000075730000656e000074650000b1
:101a2000506c0000616300006120000067720000dc
:101a300061760000616400006f72000020310000d8
:101a40002061000075730000656e00007465000081
:101a5000506c0000616300006120000067720000ac
:101a600061760000616400006f72000020320000a7
:101a70002061000075730000656e00007465000051
:101a8000506c00006163000061200000677200007c
:101a900061760000616400006f7200002033000076
:101aa0002061000075730000656e00007465000021
:101ab000506c00006163000061200000677200004c
:101ac00061760000616400006f7200002034000045
:101ad0002061000075730000656e000074650000f1
:101ae000506c00006163000061200000677200001c
:101af00061760000616400006f7200002035000014
:101b00002061000075730000656e000074650000c0
:101b1000506c0000616300006120000067720000eb
:101b200061760000616400006f72000020360000e2
:101b30002061000075730000656e00007465000090
:101b4000506c0000616300006120000067720000bb
:101b500061760000616400006f72000020370000b1
:101b60002061000075730000656e00007465000060
:101b700020200000457800006563000075740000b7
:101b8000616e0000646f0000207400006573000047
:101b900074650000732000002e2e00002e2000002f
:101ba0002020000020200000202000002020000035
:101bb0005445000053540000452000004f4b0000e6
:101bc0002020000020200000202000002020000015
:101bd0002020000020200000202000002020000005
:101be0007c7c000045520000524f00007c7c0000cd
:101bf00020200000202000002020000020200000e5
:101c0000202000002054000065730000746500006f
:101c100020610000626f00007274000061640000c7
:101c20006f20000021210000212000002020000062
:101c30002020000047720000617600006163000010
:101c4000616f0000204f00004b200000506c00002e
:101c500061630000612000003120000020200000ae
:101c600020200000477200006176000061630000e0
:101c7000616f0000204f00004b200000506c0000fe
:101c8000616300006120000032200000202000007d
:101c900020200000204d00004143000020500000a3
:101ca00061640000726100006f2000004772000054
:101cb00061760000616400006f21000020200000b8
:101cc00020200000204d0000414300002050000073
:101cd00061640000726100006f2000004772000024
:101ce00061760000616400006f2100002020000088
:101cf0002020000020200000202000004a49000091
:101d000047410000205400005241000056410000ad
:101d1000444100002020000020200000202000007e
:101d20002020000020200000202000004a49000060
:101d300047410000204c000049420000455200008d
:101d4000414400004120000020200000202000002d
:101d5000202000004c4900005354000041200000a6
:101d600044450000204d0000414300002052000087
:101d7000454e00004f560000414400004120000045
:101d80002020000020200000202000004d41000005
:101d9000432000004772000061760000616400008b
:101da0006f3a0000202000002020000020200000ca
:101db000204900004e490000434900004f20000028
:101dc0007061000072610000206e00006f760000fc
:101dd0006f2000007465000073740000652000002f
:101de000205500007365000020700000756c000035
:101df000736500006972000061200000616e0000e0
:101e00007469000065730000742e0000202000003b
:101e100042420000424200004242000042420000b2
:101e200042420000424200004242000042420000a2
:101e30004242000042420000424200004242000092
:101e40004242000042420000424200004242000082
:102ab0000000000001010000010000000000000013
:102ac000000000000052000052520000524100007d
:102ad00041410000415400004244000047470000cb
:102ae000474700004747000047470000000100003b
:102af00002030000000100000203000000000000cb
:102b000000000000010200000304000005060000b0
:042b100007000000ba
:020000040000fa
:102b14000000fa004100200050002000fa0b0700da
:102b2400920320008000eb0010002000b90b070086
:102b340020c0b30078e8b7000040eb0079e8b700a4
:102b440000c5b3007ae8b700c0c6b3007be8b7009d
:102b540010c6b3007ce8b70030c6b3007de8b70008
:102b640010c6b3007ee8b70000c2b3007fe8b70028
:102b7400d0c2b30080e8b70000c2b30081e8b70058
:102b840010c3b30082e8b70000c2b30083e8b70003
:102b9400c0c7b30084e8b70000c2b30085e8b7003b
:102ba40000c5b30086e8b700c0c6b30087e8b70025
:102bb40010c6b30088e8b70030c6b30089e8b70090
:102bc40010c6b3008ae8b70000c2b3008be8b700b0
:102bd400d0c2b3008ce8b70000c2b3008de8b700e0
:102be40020c3b3008ee8b70000c2b3008fe8b7007b
:102bf40000c2b30090e8b70000c2b30091e8b70088
:102c0400a2012000210f2000a000200033090700aa
:102c140030c0b30078e8b7000040eb0079e8b700b3
:102c240000c2b3007ae8b70010cabf00e14f5000f9
:102c34002e003a0011cabf00e14f50002b003a00a9
:102c440012cabf00e14f500028003a0013cabf0067
:102c5400e14f500025003a0014cabf00e14f500074
:102c640022003a0015cabf00e14f50001f003a008d
:102c740016cabf00e14f50001c003a0026cabf002c
:102c8400e14f500019003a002acabf000004e000d6
:102c940016003a0040c5b3007be8b70050c4b30047
:102ca4007ce8b70030c5b3007de8b70040c5b30089
:102cb4007ee8b70050c4b3007fe8b70000c2b30099
:102cc40080e8b700f0c4b30081e8b700b0c4b30033
:102cd40082e8b7000040eb0052eab7001ecabf000a
:102ce4000034a0001eeab7002e00370010cabf004f
:102cf4000004e0001b00320011cabf000004e00021
:102d04001800320012cabf000004e00015003200af
:102d140013cabf000004e0001200320014cabf004e
:102d24000004e0000f00320015cabf000004e000f8
:102d34000c00320016cabf000004e0000900320093
:102d440025cabf000004e0000600320026cabf0006
:102d54000004e000030032002acabf00e24f500022
:102d640010003a0000c2b3007be8b70000c2b30011
:102d74007ce8b70050c4b3007de8b70020c5b300b9
:102d84007ee8b70020c5b3007fe8b700f0c4b30005
:102d940080e8b70000c2b30081e8b70000c2b30006
:102da40082e8b70000c2b30083e8b700c0c7b3002d
:102db40084e8b70000c2b30085e8b70017cabf00b3
:102dc400e14f500032003a0018cabf00e14f5000f2
:102dd4002f003a0019cabf00e14f50002c003a00fe
:102de4001acabf00e14f500029003a001bcabf00b5
:102df400e14f500026003a001ccabf00e14f5000ca
:102e040023003a001dcabf00e14f500020003a00e1
:102e140027cabf00e14f50001d003a002bcabf0073
:102e24000004e0001a003a0040c5b30086e8b70089
:102e340050c4b30087e8b70030c5b30088e8b700d2
:102e440040c5b30089e8b70050c4b3008ae8b700ae
:102e540000c2b3008be8b700f0c4b3008ce8b7003d
:102e6400b0c4b3008de8b70080c0b30052eab70025
:102e74001ecabf008040780052cabf000080fb0019
:102e84000000400000c070001eeab7002e003700aa
:102e940017cabf000004e0001b00320018cabf00bc
:102ea4000004e0001800320019cabf000004e0006a
:102eb400150032001acabf000004e00012003200fc
:102ec4001bcabf000004e0000f0032001ccabf0090
:102ed4000004e0000c0032001dcabf000004e00042
:102ee4000900320026cabf000004e00006003200d8
:102ef40027cabf000004e000030032002bcabf0051
:102f0400e24f500010003a0000c2b30086e8b70058
:102f140000c2b30087e8b70000c2b30088e8b70076
:102f240050c4b30089e8b70020c5b3008ae8b700ed
:102f340020c5b3008be8b700f0c4b3008ce8b70039
:102f440000c2b3008de8b70000c2b3008ee8b7003a
:102f540000c2b3008fe8b70000c2b30090e8b70026
:102f640000c2b30091e8b700a2012000210f2000a5
:102f7400a00020005908070040c0b30078e8b7005b
:102f84000040eb0079e8b70000c2b3007ae8b7006c
:102f940000c2b3007be8b70000c2b3007ce8b7000e
:102fa40000c2b3007de8b70000c2b3007ee8b700fa
:102fb40000c2b3007fe8b70000c2b30080e8b700e6
:102fc40000c2b30081e8b70000c2b30082e8b700d2
:102fd40000c2b30083e8b70000c2b30084e8b700be
:102fe40000c2b30085e8b70000c2b30086e8b700aa
:102ff40000c2b30087e8b70000c2b30088e8b70096
:1030040000c2b30089e8b70000c2b3008ae8b70081
:1030140000c2b3008be8b70000c2b3008ce8b7006d
:1030240000c2b3008de8b70000c2b3008ee8b70059
:1030340000c2b3008fe8b70000c2b30090e8b70045
:1030440000c2b30091e8b700a2012000210f2000c4
:10305400a0002000210807000080fa0000000600fc
:103064000400fa00204798002e4090000000fb0066
:103074006b004000450d07002e4090000000fb004f
:103084008000400020922000008040001000780062
:10309400e10f5000190032002e4090000000fb00a8
:1030a4008000400020922000008040001000780042
:1030b400e20f5000110032002e4090000000fb008f
:1030c4008000400020922000008040001000780022
:1030d400e30f5000090032002e4090000000fb0076
:1030e4008000400020922000008040009000780082
:1030f400b00f2000808f500019003a00005180006a
:103104000000e00005003a00220320008000eb00ec
:10311400200020003f0a070007003700005180000c
:10312400e10f500004003a00320320008000eb005d
:1031340020002000370a07002e4090000000fb000a
:103144008000400020922000808040000000eb00be
:10315400800878000000eb00c04f8800f8003700ba
:103164002e4090000000fb008000400020922000d0
:103174000080400090007800000f20000080600074
:103184000000e000b20032002e4090000000fb007e
:103194006600b900000f78002e4090000000fb008c
:1031a40080004000209220000080400090007800c1
:1031b400100f2000808f500006003a0051022000ba
:1031c4001e804000f307070010002000904f880085
:1031d400710037002e4090000000fb00800040008a
:1031e400209220000080400090007800300f2000e2
:1031f400808f500006003a00610220001e804000cb
:10320400e407070010002000904f88006200370098
:103214002e4090000000fb0080004000209220001f
:103224000080400090007800400f2000808f500004
:1032340006003a00710220001e804000d5070700f6
:1032440010002000904f8800530037002e4090005b
:103254000000fb008000400020922000008040001d
:1032640090007800600f2000808f500006003a0024
:10327400810220001e804000c607070010002000c5
:10328400904f8800440037002e4090000000fb005f
:1032940080004000209220000080400090007800d0
:1032a400700f2000808f500006003a009102200029
:1032b4001e804000b707070010002000904f8800d0
:1032c400350037002e4090000000fb0080004000d5
:1032d400209220000080400090007800500f2000d1
:1032e400808f500009003a00d04b8000f20f50004c
:1032f40006003e00a10220001e804000a507070032
:1033040010002000904f8800230037002e409000ca
:103314000000fb008000400020922000008040005c
:1033240090007800f00f2000808f50000a003a00cf
:10333400c14f800080022000808f500006003600bc
:10334400e10320001e8040009207070010002000c7
:10335400904f8800100037002e4090000000fb00c2
:1033640080004000209220000080400090007800ff
:10337400f00f2000808f500007003a00c14f8000fa
:1033840080022000808f500003003e00c04f800068
:103394000000e800c04f8800904f80000000e0006b
:1033a4006700320024cabf00004178002e4090001c
:1033b4008000fb00100020000100dd0000407100cf
:1033c40024eab7002e4090008001fb002e409000bc
:1033d4008000fb0050a220000080400010407800d4
:1033e400004178002e4090008000fb001000200077
:1033f4000100dd00004071008040780050a22000f0
:1034040000804100014878002e4090008000fb00bd
:1034140060a22000808040000040eb0080487800db
:103424002e4090000000fb0080004000209220000d
:10343400808040000000eb00800878000000eb0072
:10344400904f88000000eb00c04f88003c0037001c
:103454002e4090000000fb008000400020922000dd
:103464000080400010007800e40f500034003a005f
:10347400401f2000304b880024cabf000041780060
:103484002e4090008000fb00100020000100dd00b1
:103494000040710024eab7002e4090008000fb0039
:1034a40060a220008080400010c0b30080487800f3
:1034b4002e4090000000fb00b207200000014100f4
:1034c4008000eb003000200052090700005180000a
:1034d4000000e00003003a00d04b8000f40f5000dd
:1034e40006003e0000518000e10f50000b003a003e
:1034f400d04b8000fe0f5000080036002e40900094
:103504008000fb0060a22000808040000040eb00af
:1035140080487800e00320001e0707002e4090003a
:103524000000fb00800040002092200080804000ca
:103534000000eb00800878000000eb00c04f88001a
:103544000080fa00000006000600fa00104b80001c
:103554000000e000d6043200304b80000000e000a0
:10356400d3043a00d04f80000000e000d0043a00b9
:10357400004b80006101b8001207980023079800ef
:1035840030012000010020001e019000ae019000d7
:10359400800f5100818f5900c5043e001e00900029
:1035a400ae009000006001001300370051003700a6
:1035b4006800370085003700540137008401370064
:1035c400860137001002370098023700b302370033
:1035d400d8023700ff02370061033700c303370006
:1035e400e703370026043700440437005b04370040
:1035f4005f04370089043700420320008000eb0099
:1036040020002000030907000001eb008000eb000c
:1036140030002000ff08070010c0b30010eab70014
:1036240010c0b30011eab70010c0b30012eab7002b
:1036340010c0b30013eab70010c0b30014eab70017
:1036440010c0b30015eab70010c0b30016eab70003
:103654000040eb002aeab70010c0b30025eab70027
:1036640010c0b30028eab70010c0b30017eab700cf
:1036740010c0b30018eab70010c0b30019eab700cd
:1036840010c0b3001aeab70010c0b3001beab700b9
:1036940010c0b3001ceab70010c0b3001deab700a5
:1036a4000040eb002beab70010c0b30026eab700d5
:1036b40010c0b30029eab700120020001100200056
:1036c40010002000e40b0700020420000104200085
:1036d40010002000e00b07000040eb0024eab700d4
:1036e40010002000004b8800401f2000a04f8800dd
:1036f4006f043700a04f80000000e0006c043a0023
:1037040001012000b0002000860b070011032000f7
:10371400b0002000900b070001012000c000200031
:10372400800b070011032000c00020008a0b070053
:103734000000eb0000518800401f2000a04f8800cb
:1037440020002000004b880040012000d04b88005e
:1037540057043700a04f80000000e00054043a00f2
:103764000000eb00000f7800100037001e00780006
:103774008000400020922000808040000000eb0088
:103784008008780024cabf008080fb001e007800f7
:103794000088de00610060000000e00002003a00e2
:1037a4001e0078002efe07001e0fe8001100200006
:1037b4009e8f1000edff3400803e2000304b8800c7
:1037c40030002000004b88003904370024cabf00b1
:1037d400e34f500003003200d04b80000000e000b3
:1037e400c7003a00d04b80000000e00093003a008c
:1037f40006cabf000004e0002e003a0006cabf005b
:103804000040e80006eab7000000eb00000f780073
:10381400060037009e007800a098200080804000b9
:103824000040eb00804878001e0fe800f003200001
:103834009e0f1000f7ff34000040eb00eee9b700e4
:103844000040eb00efe9b7000000eb00000f780048
:10385400070037001e00780080004000a09320007d
:10386400808040000000eb00800878001e0fe80014
:10387400320120009e0f1100f6ff34000051800039
:103884000000e00003003a0010002000004b880014
:103894000500370000518000e10f500002003a009b
:1038a400d0002000004b8800c02b2000304b880043
:1038b400900037000000eb00000f7800260037006e
:1038c40024cabf008080fb001e0078000088de0050
:1038d400610060000000e0001e003a001e00e000ed
:1038e40003003a00430220001e804100290607001d
:1038f400100020009e0f100003003a004102200037
:103904001e804000230607009e00780060a220006d
:10391400808040000040eb00804878009e017800e1
:103924009e00780050a220000080400010407800e3
:1039340000417800110020001e0078000008dd001e
:10394400004071008040780050a2200000804100b7
:10395400014878001e0fe800120020009e0f11009d
:10396400d7ff34009e00780050a220000080400061
:1039740010407800e34f500007003a0020c0b30025
:103984002aeab70020c0b3002beab700f0002000f9
:10399400004b8800570037009e00780040a22000aa
:1039a400808040000040eb008048780026cabf00b9
:1039b4000004e00004003a0020c0b3002aeab70083
:1039c4000040eb0025eab70027cabf000004e0006e
:1039d40004003a0020c0b3002beab7000040eb001b
:1039e40026eab7000040eb0006eab7000051800069
:1039f4000000e0000b003a000001eb001100200081
:103a040010002000140b07000001eb00010420004b
:103a140010002000100b070040002000004b88001d
:103a24003400370000518000e10f500031003a00ab
:103a3400f0002000004b88002e00370025cabf008c
:103a4400e34f50000300320026cabf00e34f50008a
:103a540007003a0020c0b3002aeab70020c0b30030
:103a64002beab700f0002000004b8800210037004b
:103a74000040eb0024eab7000040eb0006eab70080
:103a840026cabf000004e00002003a0020c0b300d0
:103a94002aeab70027cabf000004e00002003a0087
:103aa40020c0b3002beab700005180000000e00002
:103ab4000b003a000001eb00110020001000200070
:103ac400e50a07000001eb000104200010002000bb
:103ad400e10a070040002000004b88000500370081
:103ae40000518000e10f500002003a00f000200075
:103af400004b8800401f2000304b88006c033700c7
:103b040020002000004b88006903370026cabf004c
:103b14000004e0000900320012002000110020001f
:103b24000000eb00cc0a0700420020004100200006
:103b34000000eb00c80a0700040037000001eb0096
:103b4400110020000000eb00c30a070027cabf00d1
:103b54000004e000090032008200200081002000ff
:103b64000000eb00bc0a0700020220000102200052
:103b74000000eb00b80a0700040037000001eb0066
:103b8400810020000000eb00b30a07007207200048
:103b94008000eb00200020009e0707005203200055
:103ba4008000eb00300020009a070700020c200080
:103bb400010c20000000eb00a70a070050002000c1
:103bc400004b8800004b2000304b8800380337003e
:103bd400d0002000004b880035033700120320007a
:103be4008000eb00300020008a07070026cabf00cf
:103bf4000004e0008100320028cabf000004e00095
:103c04007e00320011002000400020000f09070050
:103c14007050880070508000e10f400008003200ae
:103c240071508000b0232000808f500004003400c5
:103c340071508000a02f2000808f500006003400b7
:103c440030002000530507000040eb0016eab700df
:103c540010c0b3002aeab700210020004000200071
:103c6400fa0807007050880070508000e10f40008f
:103c7400080032007150800030142000808f500002
:103c84000400340071508000a02f2000808f500069
:103c940006003400400020003e0507000040eb0011
:103ca40016eab70010c0b3002aeab70031002000ba
:103cb40040002000e5080700705088007050800024
:103cc400e10f40000800320071508000b023200052
:103cd400808f50000400340071508000a02f200019
:103ce400808f500006003400600020002905070082
:103cf4000040eb0016eab70010c0b3002aeab70090
:103d04004100200040002000d008070070508800c7
:103d140070508000e10f40000800320071508000b4
:103d2400b0232000808f50000400340071508000c4
:103d3400a02f2000808f5000060034007000200067
:103d4400140507000040eb0016eab70010c0b300ea
:103d54002aeab7005100200040002000bb080700f9
:103d64007050880070508000e10f4000080032005d
:103d740071508000b0232000808f50000400340074
:103d840071508000a02f2000808f50000600340066
:103d940050002000ff0407000040eb0016eab700c3
:103da40010c0b3002aeab7006100200040002000e0
:103db400a60807007050880070508000e10f400092
:103dc4000800320071508000b0232000808f500022
:103dd4000400340071508000a02f2000808f500018
:103de4000600340080002000ea0407000040eb00d5
:103df40016eab70010c0b3002aeab700700020002a
:103e0400004b8800aa02370027cabf000004e00064
:103e14008100320029cabf000004e0007e003200a5
:103e2400110020005000200088080700705088000e
:103e340070508000e10f4000080032007150800093
:103e4400b0232000808f50000400340071508000a3
:103e5400a02f2000808f5000060034002001200095
:103e6400cc0407000040eb001deab70010c0b3000b
:103e74002beab7002100200050002000730807003f
:103e84007050880070508000e10f4000080032003c
:103e94007150800030142000808f500004003400e2
:103ea40071508000a02f2000808f50000600340045
:103eb40030012000b70407000040eb001deab70002
:103ec40010c0b3002beab7003100200050002000de
:103ed4005e0807007050880070508000e10f4000b9
:103ee4000800320071508000b0232000808f500001
:103ef4000400340071508000a02f2000808f5000f7
:103f04000600340050012000a20407000040eb002a
:103f14001deab70010c0b3002beab700410020002f
:103f2400500020004908070070508800705080003d
:103f3400e10f40000800320071508000b0232000df
:103f4400808f50000400340071508000a02f2000a6
:103f5400808f500006003400600120008d040700ab
:103f64000040eb001deab70010c0b3002beab70015
:103f740051002000500020003408070070508800d1
:103f840070508000e10f4000080032007150800042
:103f9400b0232000808f5000040034007150800052
:103fa400a02f2000808f5000060034004001200024
:103fb400780407000040eb001deab70010c0b3000e
:103fc4002beab70061002000500020001f08070002
:103fd4007050880070508000e10f400008003200eb
:103fe40071508000b0232000808f50000400340002
:103ff40071508000a02f2000808f500006003400f4
:1040040070012000630407000040eb001deab700c4
:1040140010c0b3002beab70080002000004b8800da
:10402400a0022000d04b880021023700d04b800032
:10403400f90f500014003a0026cabf000004e00043
:104044000700320028cabf000004e0000400320068
:1040540022002000210020000000eb007e09070060
:1040640027cabf000004e0000700320029cabf00cd
:104074000004e000040032000201200001012000dd
:104084000000eb007409070090002000004b88003a
:10409400401f2000304b88000502370026cabf00ad
:1040a4000004e0001e00320028cabf000004e00043
:1040b4001b003200d04b8000e20f500018003e007d
:1040c4007100200040002000e007070070508800c5
:1040d40071508000d00b2000808f500005003c0000
:1040e4000001eb00210020000000eb005a0907004a
:1040f4000b003700d04b80000000e00008003a00bd
:104104000001eb00210020000000eb005209070031
:10411400a00020001f04070010c0b3002aeab70063
:10412400a0002000004b8800401f2000304b880076
:10413400df01370027cabf000004e000220032007c
:1041440029cabf000004e0001f003200d04b8000e9
:10415400e20f50001c003e007100200050002000bf
:10416400ba0707007050880071508000d00b2000ff
:10417400808f500007003c000001eb00010120008b
:104184000000eb0034090700b0002000004b880059
:104194000d003700d04b80000000e0000a003a0018
:1041a4000001eb00010120000000eb002a090700d8
:1041b40090012000f7030700b0002000004b8800a6
:1041c40010c0b3002beab700401f2000304b88001a
:1041d400b7013700620320008000eb0030002000ac
:1041e4000c06070026cabf000004e0005700320096
:1041f40028cabf000004e00054003200110020006f
:104204004000200091070700705088007150800022
:10421400e00b2000808f500006003400b000200026
:10422400dc0307000040eb0010eab70010c0b30045
:104234002aeab7002100200040002000830707007d
:10424400705088007150800040142000808f50000e
:1042540006003400c0002000ce0307000040eb003d
:1042640011eab70010c0b3002aeab70031002000f9
:1042740040002000750707007050880071508000ce
:10428400e00b2000808f500006003400d000200096
:10429400c00307000040eb0012eab70010c0b300ef
:1042a4002aeab70041002000400020006707070009
:1042b4007050880071508000e00b2000808f500007
:1042c40006003400e0002000b20307000040eb00c9
:1042d40013eab70010c0b3002aeab7005100200067
:1042e400400020005907070070508800715080007a
:1042f400e00b2000808f500006003400f000200006
:10430400a40307000040eb0014eab70010c0b30098
:104314002aeab70061002000400020004b07070094
:104324007050880071508000e00b2000808f500096
:104334000600340000012000960307000040eb0053
:1043440015eab70010c0b3002aeab7000000eb007a
:10435400d04b8800c0002000004b88005401370077
:1043640027cabf000004e0005700320029cabf007a
:104374000004e0005400320011002000500020002e
:10438400320707007050880071508000e00b200055
:10439400808f500006003400a00120007d03070038
:1043a4000040eb0017eab70010c0b3002beab700d7
:1043b40021002000500020002407070070508800ce
:1043c4007150800040142000808f5000060034009b
:1043d400b00120006f0307000040eb0018eab700ab
:1043e40010c0b3002beab7003100200050002000b9
:1043f400160707007050880071508000e00b200001
:10440400808f500006003400b001200061030700d3
:104414000040eb0019eab70010c0b3002beab70064
:104424004100200050002000080707007050880059
:1044340071508000e00b2000808f50000600340093
:10444400d0012000530307000040eb001aeab70034
:1044540010c0b3002beab700510020005000200028
:10446400fa0607007050880071508000c0172000c1
:10447400808f500006003400e0012000450307004f
:104484000040eb001beab70010c0b3002beab700f2
:104494006100200050002000ec06070070508800e6
:1044a40071508000e00b2000808f50000600340023
:1044b400f0012000370307000040eb001ceab700be
:1044c40010c0b3002beab7000001eb00010c200080
:1044d4000000eb0060080700800c2000304b8800cf
:1044e400d0002000004b8800f10037007203200048
:1044f4008000eb0030002000460507002acabf00f8
:104504000004e00004003a00120020001100200022
:1045140010002000500807002bcabf000004e00070
:1045240004003a00020420000104200010002000ce
:1045340049080700401f2000304b8800e00020009d
:10454400004b88002acabf00e14f5000030032002c
:104554002acabf00e24f5000d5003a002bcabf0060
:10456400e14f5000030032002bcabf00e24f50005d
:10457400cf003a00f0002000004b8800cc00370048
:104584000001eb008000eb00300020002105070053
:10459400100020000051880028cabf000004e00079
:1045a400060032002acabf00e14f50000300320067
:1045b4002acabf00e24f500002003a0010c0b30004
:1045c40024eab70029cabf000004e0000600320054
:1045d4002bcabf00e14f5000030032002bcabf00ba
:1045e400e24f500002003a0020c0b30024eab700b2
:1045f40024cabf000080fb000000a200610060002c
:104604000004e0000800320001012000b000200096
:10461400c407070021032000b0002000ce070700d4
:104624000040eb0026eab70024cabf000080fb006c
:104634000000d1000000a200610060000004e0005e
:104644000800320001012000c0002000b507070067
:1046540021032000c0002000bf0707000040eb003a
:1046640027eab700803e2000a04f880020002000e9
:10467400004b8800e0012000d04b88008c003700fc
:104684000000eb00d04b88000001eb00410020004b
:104694000000eb00f00707000001eb00010220001e
:1046a4000000eb00ec0707000001eb001100200004
:1046b4000000eb00e80707000001eb008100200088
:1046c4000000eb00e40707000001eb00010c2000f0
:1046d4000000eb00e007070010002000ec070700d3
:1046e400c0122000304b880080fc2a00f04b880068
:1046f40000012000004b88006d003700d04b800083
:104704000000e00006003a00bb0407000040eb0094
:104714001eeab700fef8070010012000004b8800d5
:104724002405070053eab70053cabf000080fb000a
:104734000000a200610060000004e0005c003200a0
:10474400001920008305070030012000004b880079
:1047540080fc2a00f04b88005500370080002000c0
:10476400d04b880020012000004b88005000370007
:10477400d04b80000000e00018003a00efc9bf00f1
:104784000004e000150032009b040700a20320008f
:104794008000eb00100020009e040700d2032000dc
:1047a4008000eb00200020009a040700b2032000e0
:1047b4008000eb003000200096040700c2032000b4
:1047c4008000eb004000200092040700000120005c
:1047d400004b880040002000d04b8800f5040700ff
:1047e40053eab70053cabf000080fb000000a200d8
:1047f400610060000004e0002d0032000019200078
:104804005405070030012000004b880080fc2a007a
:10481400f04b880078040700250037000000eb0007
:10482400104b880010002000a04b88000000eb0013
:10483400704b88002acabf000004e00007003a0059
:1048440028cabf000004e0000400320010508000b9
:104854000000e8001050880003003700205080005a
:104864000000e800205088002bcabf000004e000cc
:1048740007003a0029cabf000004e0000400320027
:10488400105080000000e80010508800030037003a
:10489400205080000000e80020508800efc9bf00cd
:1048a4000004e00002003a0010002000204b8800c1
:1048b400104b80000000e0006b003200505080007c
:1048c40080007800f04a8000808f5000660032003b
:1048d400004b8000ee0f500063003e0040012000ba
:1048e400000f7800060037009e00780080872000c3
:1048f400808040000040eb00804878001e0fe800f4
:10490400930120009e8f1100f7ff340040c0b300d4
:1049140078e8b70030c0b30079e8b70000c2b3004c
:104924007ae8b700d04b8000a200200011000900f3
:104934000280d8000043b0007be8b700d04b800071
:10494400a2002000110009000280d8008000fd00b0
:104954000043b0007ce8b70000c2b3007de8b700b4
:10496400c0c7b3007ee8b70000c2b3007fe8b70059
:10497400f04a8000820c2000110009000280d80057
:104984000043b00080e8b700f04a80000000d10086
:1049940042062000110009000280d8008000fd00ba
:1049a400a2002000110009000280d8000043b000da
:1049b40081e8b700f04a80000000d10042062000e0
:1049c400110009000280d8008000fd00a200200030
:1049d400110009000280d8008000fd000043b000ef
:1049e40082e8b70000c2b30083e8b70030c7b30061
:1049f40084e8b70050c6b30085e8b70070c6b300ba
:104a040086e8b70000c2b30087e8b700c0c7b300a8
:104a140088e8b70000c2b30089e8b700004b800003
:104a2400a2002000110009000280d8000043b00059
:104a34008ae8b700004b8000a200200011000900a2
:104a44000280d8008000fd000043b0008be8b7006e
:104a5400a2012000210f2000a00020009f010700d8
:104a6400f04a8000505088000080fa0000000600e0
:104a74000200fa0019c9bf000004e0007e013a00f8
:104a840013c9bf000080fb00000f78001e007800ef
:104a9400e30f50008d0032001e007800e30f500039
:104aa4000a003c001e007800e10f5000350032007f
:104ab4001e007800e10f50005c003c001e007800ee
:104ac4000000e0000b003200630137001e00780094
:104ad400e50f5000a30032001e007800e50f5000df
:104ae4008b0035001e007800e60f5000ae00320047
:104af4005901370080bb2000904988002222a90078
:104b040022c2bf00614060000004e00003003200e4
:104b14003011800012e9b7001800370013c9bf0034
:104b24000040e80013e9b7000040eb0016e9b700c5
:104b34000900370016c9bf008080fb0000802000f8
:104b4400808040000040eb008048780016c9bf0018
:104b54000040e80016e9b700619120009140780018
:104b640070c7b30080cf5000f2ff36000040eb0066
:104b740012e9b7000040eb0015e9b7002222a900b2
:104b84003d0137000040eb000ee9b7000040eb00a8
:104b940018e9b7000fc9bf000080fb00201188008e
:104ba400e1902000914078000fc9bf0000c0680068
:104bb4000ee9b70011c9bf000080fb002011880076
:104bc400e19020009140780011c9bf0000c0680046
:104bd4000ee9b70014c9bf000080fb002011880053
:104be400e19020009140780014c9bf0000c0680023
:104bf4000ee9b70017c9bf000080fb002011880030
:104c0400e19020009140780017c9bf0000c06800ff
:104c14000ee9b7000040eb0016e9b70013c9bf0066
:104c24000040e80013e9b7001301370022c2bf00b7
:104c3400614060000004e000020032003011800096
:104c440012e9b70017c9bf000004e00016003200e3
:104c540023c2bf00624060000004e00012003a007a
:104c640016c9bf008080fb008087200000804000c0
:104c7400104078000080fb002011880016c9bf0096
:104c84008080fb00808720000080400090407800f6
:104c94000ec9bf0000c068000ee9b70016c9bf0006
:104ca4000040e80016e9b7006191200091407800c7
:104cb40017c9bf0080cf5000ef00390013c9bf00ef
:104cc4000040e80013e9b700eb00370023c2bf003f
:104cd400624060000004e000e7003a00e290200037
:104ce40012417800024078000080ea008180ea00e6
:104cf4000ee9b7000ec9bf000080fb002011880038
:104d040013c9bf000040e80013e9b700da00370018
:104d140023c2bf00614060000004e000d6003200fe
:104d24002222a9003011800012e9b700301180005e
:104d340012e9b7003011800012e9b7003011800089
:104d440012e9b7000040eb000ee9b7000040eb00a9
:104d540016e9b70013c9bf000040e80013e9b70023
:104d6400c500370011c9bf00e14f40000800320000
:104d74002342a900d4c2a90013c9bf000040e8001f
:104d840013e9b7004001200090498800ba003700b9
:104d940013c9bf000040e80013e9b7004001200038
:104da40090498800b400370011c9bf00e14f4000aa
:104db400a500320022c2bf00614060000004e00090
:104dc4009000320022c2bf00624060000004e00094
:104dd4008c003a00a00020009049880016c9bf004a
:104de4000004e00008003a003011800010e9b70028
:104df400e19020009140780010c9bf0000c0680015
:104e04000ee9b7002e00370016c9bf00e14f50006d
:104e140008003a003011800012e9b700e190200048
:104e24009140780012c9bf0000c068000ee9b700c5
:104e34002300370016c9bf00e24f500008003a00b3
:104e44003011800015e9b700e1902000914078000e
:104e540015c9bf0000c068000ee9b700180037008c
:104e640016c9bf000080fb006301500030118000b0
:104e74008040780000802000000041000148780054
:104e840016c9bf008080fb0015c9bf000080fb006d
:104e940063004000808f50000900320016c9bf0033
:104ea4000080fb00e30050000080200000804000f0
:104eb400904078000ec9bf0000c068000ee9b7003a
:104ec40016c9bf000040e80016e9b70014c9bf00c6
:104ed400ff4f50001d0036002191200091407800c2
:104ee40011c9bf0080cf500046003a000191200054
:104ef400914078000fc9bf0080cf500041003a00b4
:104f040016c9bf00e44f50003e003a00e290200072
:104f140012417800024078000080ea008180ea00b3
:104f24000ee9b70001802000914078000ec9bf004f
:104f340080cf500002003a0010c0b30018e9b70057
:104f440010c0b30019e9b7002e00370016c9bf001e
:104f5400e34f50002400360016c9bf008080fb00d8
:104f640015c9bf000080fb0063004000808f500023
:104f74001d00340010c0b30019e9b700e29020000e
:104f840012417800024078000080ea008180ea0043
:104f94000ee9b70015c9bf008080fb000080200027
:104fa40000804000904078000ec9bf0080cf5000c0
:104fb40014003a00219120009140780011c9bf00eb
:104fc40080cf50000f003a000191200091407800fa
:104fd4000fc9bf0080cf50000a003a0010c0b300d0
:104fe40018e9b7000700370061912000914078006c
:104ff40080c7b30080cf50000200360010c0b30059
:1050040019e9b70019c9bf000004e00004003a0020
:1050140022c2bf00624060000004e00016003200bb
:1050240013c9bf000040e80013e9b700d4c2a800c8
:105034002342a8000040eb0013e9b7000000eb0096
:10504400904988000c00370013c9bf000040e800f5
:1050540013e9b70008003700d4c2a8002342a8000f
:105064000040eb0013e9b70010c0b30019e9b70022
:105074000000eb0090498800904980000000e000a7
:1050840014003200904980000000e9009049880033
:10509400904980000000e0000e003a002342a9007d
:1050a4002222a900d4c2a8002342a8000040eb0099
:1050b40013e9b7000000eb00904988000040eb00c2
:1050c4000ee9b7000040eb0018e9b70010c0b300c8
:1050d40019e9b7000080fa00000006000600fa0093
:1050e4002047980031479800424798000000eb00a1
:1050f400000f78002e4090008000fb0030562900fd
:1051040000804000104078000fe9b7002e40900066
:105114008000fb00605729000080400010407800a8
:1051240011e9b7003e40900014e9b7004e409000ea
:1051340017e9b7000040eb0019e9b70019c9bf002f
:105144000004e000fdff3200a0002000010307007e
:105154001e0fe80018c9bf000004e0000b003a006d
:10516400200020009e0f100008003c002e409000fc
:105174000000fb0080004000a0932000008040005d
:1051840010007800e30f5000daff36000080fa00c8
:10519400000006000200fa00004f7800efc9bf00cb
:1051a4008080fb001e417800a09820000080400011
:1051b40002487800efc9bf000040e800efe9b700fb
:1051c400efc9bf000074a100efe9b7000080fa0046
:1051d400000006000000fa00504b80000000e000d0
:1051e4005d003a00504b80000000e0005a003a0095
:1051f40010002000504b88004ccabf008000fb0008
:105204000055290000804000104078000004e000b0
:10521400490032004ccabf00ea4f5000030034007a
:105224004ccabf00f24f5000430034004ccabf00c8
:105234000041eb0001cfb300a8ff070018c9bf006d
:105244000004e00032003a004ccabf000000fb003a
:1052540080004000a09320000080400010007800ef
:10526400e30f50002a003e004ccabf008000fb0040
:1052740001814000a093200000004100100078004c
:105284000001e80081804000a093200000804000dd
:10529400020878004ccabf000000fb0080004000f8
:1052a400a09320000080400010007800e40f50001c
:1052b40017003a004ccabf004046b000b5ff0700d3
:1052c40011002000200020000f0207004ccabf007c
:1052d4000000fb0080004000a0932000808040007c
:1052e4005000200080087800104b80000000e0008f
:1052f40003003a00804b80000000e000040032000c
:1053040010002000a04b88000000eb00704b8800c8
:10531400d4c2bf000080fb004700de000004a200ee
:1053240061406000c700dd00d4c2bf000074a1006a
:1053340001407000d4e2b7004ccabf000040e8004e
:105344004ceab7004ccabf00f24f500002003400d0
:105354000040eb004ceab7000080fa0000000600b1
:105364000000fa00efc9bf000004e000340032007e
:10537400f0c9bf000004e00031003a00104b800087
:105384000000e0002e003a0010c0b300f0e9b700be
:10539400eec9bf000004e00006003a000040eb0044
:1053a4004deab7000040eb004eeab7000040eb00c6
:1053b4004feab7004ecabf004deab7004fcabf005c
:1053c4004eeab700eec9bf008080fb00a098200021
:1053d40000804000104078004feab7004dcabf007b
:1053e4000001fb008000eb00200020008901070081
:1053f4004ecabf000001fb008000eb00300020001b
:10540400840107004fcabf000001fb008000eb00cd
:10541400400020007f010700eec9bf000040e80003
:10542400eee9b700e19e200091407800efc9bf008b
:1054340080cf5000020039000040eb00eee9b700d5
:105444000080fa00000006000200fa00604b8000b1
:105454000000e0005b003a0010002000604b880070
:10546400d4010700404b8800104b80000000e0008e
:1054740010003a00a04b80000000e0000d003a004c
:10548400105080000000e0000a003a0032082000ba
:105494008000eb00200020005e010700420820008d
:1054a4008000eb00300020005a010700d6010700fd
:1054b400dc010700404b80000000a2006100600096
:1054c4000004e00009003200104b80000000e000fe
:1054d40006003a0010002000704b88000000eb002a
:1054e400f04b88000000eb00e04b8800404b80004c
:1054f4000000d1000000a200610060000004e00090
:1055040030003200104b80000000e0000b0032003d
:1055140010002000a04b88000000eb00704b8800b6
:1055240020002000e04b8800a20720008000eb0050
:105534004000200037010700220037002e01070039
:105544000000eb00000f7800060037009e00780092
:10555400a0982000808040000040eb008048780044
:105564001e0fe800f00320009e0f1000f7ff340028
:105574000040eb00eee9b7000040eb00efe9b700b4
:105584000000eb00000f7800070037001e007800d1
:1055940080004000a0932000808040000000eb00c9
:1055a400800878001e0fe800b00020009e0f100055
:1055b400f6ff34000000eb003504070092010700f9
:1055c400980107000080fa00000006000400fa00b9
:1055d400704b80000000e0006d003200904b8000b2
:1055e4000000e0006a003a00804b80001007980039
:1055f4001e009000e10f5000380032001e009000a1
:10560400e10f5000040039001e009000e20f50002a
:105614004400320054003700f70007000000eb009c
:10562400000f7800060037009e007800a098200044
:10563400808040000040eb00804878001e0fe800a6
:10564400f00320009e0f1000f7ff34000040eb0031
:10565400eee9b7000040eb00efe9b7000000eb0013
:10566400000f7800070037001e007800800040001b
:10567400a0932000808040000000eb0080087800a8
:105684001e0fe800b00020009e0f1000f6ff34004b
:105694005d01070021002000500020001a010700ce
:1056a400600107000000eb00f90307001000200070
:1056b400f703070022002000210020003000200012
:1056c400e5030700401f2000904b8800804b8000ba
:1056d4000000e800804b88002d0037000001eb003b
:1056e400410020000000eb00db0307000001eb0099
:1056f400010220000000eb00d70307001200200085
:105704001100200030002000d3030700401f2000b8
:10571400904b8800804b80000000e800804b88009c
:105724001b0037000000eb00e04a88000000eb009b
:10573400f04a88000000eb00204b88000000eb00da
:10574400004b88000000eb00304b88001000200064
:10575400104b88000000eb00704b88000000eb0049
:10576400804b88000a0037000000eb00004b8800e3
:105774000000eb00304b88000000eb00104b880069
:105784000000eb00704b88000000eb00804b8800a9
:105794000080fa00000006000200fa00a04b80001e
:1057a4000000e00060003200c04b80000000e00018
:1057b4005d003a00b04b8000000f78001e007800b6
:1057c400e10f5000300032001e007800e10f50005d
:1057d400070039001e007800e20f50003400320048
:1057e4001e007800e30f50003b00320042003700f7
:1057f4000000eb00304b88000000eb00004b8800f9
:105804000000eb00804b88000000eb00104b880088
:1058140004010700fc000700204b80000000e000aa
:1058240008003200baf407000000eb0098030700f8
:10583400320820008000eb004000200075000700c3
:10584400070037001100200020002000ae000700f0
:10585400920720008000eb00100020006d0007007c
:105864000001eb0011002000300020007a03070043
:10587400c0122000c04b8800b04b80000000e8003c
:10588400b04b8800280037000001eb002100200005
:105894003000200070030700c0122000c04b8800b5
:1058a400b04b80000000e800b04b88001e003700b9
:1058b4004200200041002000300020006603070061
:1058c400c0122000c04b8800b04b80000000e800ec
:1058d400b04b8800140037000001eb0041002000a9
:1058e400300020005c030700b04b80000000e8009b
:1058f400b04b88000c0037000000eb00e04b880040
:105904000000eb00304b88000000eb00004b8800e7
:105914000000eb00104b88000000eb00a04b880057
:105924000000eb00b04b88000080fa000000060085
:105934000200fa00e04b8000e10f50002c003a0016
:1059440020002000e04b88000000eb00104b880092
:1059540010002000a04b88000000eb00704b880072
:10596400250007000000eb00000f78000600370058
:105974009e007800a0982000808040000040eb004a
:10598400804878001e0fe800f00320009e0f1000ee
:10599400f7ff34000040eb00eee9b7000040eb00f5
:1059a400efe9b7000000eb00000f780007003700b4
:1059b4001e00780080004000a093200080804000fa
:1059c4000000eb00800878001e0fe8003001200082
:1059d4009e0f1000f6ff34008b0007000000eb0060
:1059e4002b03070010002000290307008d00070087
:1059f4000080fa00000006000000fa000001eb003d
:105a0400110f2000a0002000b4fd07000080fa0060
:105a1400000006000600fa0020479800314798006d
:105a2400424798002e40900078e8b7003e4090002e
:105a340079e8b700ce40900030c6b30080cf500064
:105a440014003e000000eb00000f78000d0037004a
:105a54009e81e8004e4090000080fb001e0178000b
:105a64007800b9008200400000292800008040002e
:105a74009040780080872000008041000148780031
:105a84001e0fe800700120009e0f1000f0ff34008c
:105a940017003700ce409000c0c9b30000c04000da
:105aa400404798000000eb00000f78000d0037001d
:105ab4009e81e8004e4090000080fb001e017800ab
:105ac4007800b9008200400000bf28000080400038
:105ad40090407800808720000080410001487800d1
:105ae4001e0fe800700120009e0f1000f0ff34002c
:105af400a2012000210f2000a000200077fd070054
:105b04000080fa00000006000200fa00004f78004e
:105b1400114798001e40780078e8b7001e409000b6
:105b240079e8b70022002000310f2000a0002000f7
:105b34006afd07000080fa00000006000000fa0079
:105b44000001eb00410f2000a000200063fd0700ce
:105b54000080fa00000006000600fa00004f7800fa
:105b64001147980012079800434798001e40780098
:105b740078e8b7001e40900079e8b7001e00900056
:105b84004880de007ae8b7001e0090006f40600095
:105b94007be8b7004e4090007ce8b700520020003c
:105ba400510f2000a00020004cfd07000080fa00e7
:105bb400000006000400fa000001eb0011002000c0
:105bc400a000200045fd070018c9bf000004e00044
:105bd4000800320015c9bf00e14f500005003a002b
:105be40000c8bf00004f78001e00fb00100798009b
:105bf400020037000080eb00100798001e009000a0
:105c04000080fa00000006000000fa0012c0b30091
:105c14008040eb0010c0b3007eff07000080fa0054
:105c2400000006000200fa0010c0b30078e8b700d4
:105c340040c1b30079e8b70010508000823e2000d4
:105c4400110009000280d8000043b0007ae8b700d0
:105c540010508000823e2000110009000280d8000c
:105c64008000fd0042062000110009000280d800d7
:105c74000043b0007be8b70010508000823e200053
:105c8400110009000280d8008000fd0042062000b7
:105c9400110009000280d8008000fd00a20020004d
:105ca400110009000280d8000043b0007ce8b7006e
:105cb40010508000823e2000110009000280d800ac
:105cc4008000fd0042062000110009000280d80077
:105cd4008000fd00a2002000110009000280d8000d
:105ce4008000fd000043b0007de8b70062002000a2
:105cf400210f2000a0002000f8fc070020c0b30002
:105d040078e8b7000040eb0079e8b7000000eb004a
:105d1400000f7800060037009e80e800808720008e
:105d24008080400000c2b300804878001e0fe80065
:105d3400700120009e0f1000f7ff3600a201200022
:105d4400210f2000a0002000e4fc07000080fa00de
:105d5400000006000200fa00000f78001e00780020
:105d6400904a8800904a80000000e000fdff3a005d
:105d74000080fa0000000600809fbe003400f80096
:105d840000002000a00188000000fa00c05180003b
:105d94000000e800c0518800c0518000e40f5000aa
:105da400040034000000eb00c05188000000eb0048
:105db400504b8800d05180000000e800d05188008a
:105dc400d151800030062000808f50000400340040
:105dd4000000eb00d05188000000eb00604b88000d
:105de400e05180000000e800e0518800e1518000ab
:105df400301f2000808f5000050034000000eb00ad
:105e0400e0518800f04a80000000e800f04a880071
:105e1400f05180000000e800f0518800f15180004a
:105e2400703e2000808f5000080034000000eb001a
:105e3400f0518800d04b80000000e00003003200e5
:105e4400d04b80000000e900d04b88001052800045
:105e54000000e80010528800105280000000e000aa
:105e64000e0034000000eb0010528800a04f8000a8
:105e74000000e00003003200a04f80000000e900b1
:105e8400a04f8800b04f80000000e0000300320003
:105e9400b04f80000000e900b04f8800005280003d
:105ea4000000e8000052880001528000f07c2000cd
:105eb400808f5000040034000000eb000052880082
:105ec4000040eb00f0e9b700e04f80000000e00084
:105ed40003003200e04f80000000e900e04f88003a
:105ee400f04f80000000e00003003200f04f80001b
:105ef4000000e900f04f8800304b80000000e00013
:105f040009003200e04f80000000e00006003a0083
:105f1400f04f80000000e00003003a00304b8000a6
:105f24000000e900304b8800904b80000000e00046
:105f340003003200904b80000000e900904b880081
:105f4400c04b80000000e00003003200c04b800022
:105f54000000e900c04b8800f04b80000000e00026
:105f640008003200f04b80000000e900f04b88008c
:105f7400f04b80000000e00002003a001000200016
:105f8400e04b8800904a80000000e00003003200eb
:105f9400904a80000000e900904a88008780a900a8
:105fa4000080fa003400f9004f00be0000400600f3
:105fb4003600f800809fbe00829fbe00849fbe0012
:105fc400869fbe003400f80000002000a001880075
:105fd4000000fa000000eb0000088800a4fa0700a3
:105fe4008460a9000080fa003400f9004f03be0069
:105ff4004f02be004f01be004f00be003600f90044
:10600400004006000400fa00004f78001147980091
:10601400120798001e40900078e8b7001e00900018
:106024004880de0079e8b7001e0090006f406000f1
:106034007ae8b7001e00fb0032002000110f200098
:1060440026fc07000080fa00000006000400fa00a5
:10605400004f7800114798001e40900078e8b70080
:106064001e00fb0012002000110020001bfc070092
:1060740018c9bf000004e0000b00320015c9bf00be
:10608400e24f500008003a0000c8bf000080fb0047
:10609400c800dd0001c8bf000080fb0080807000e4
:1060a40011079800020037000080eb0010079800e9
:1060b4001e0090000080fa00000006000200fa00b2
:1060c400004f7800114798001e40900078e8b70010
:1060d4001e00fb001200200021002000fffb07002f
:1060e40018c9bf000004e0001200320015c9bf0047
:1060f400e44f50000f003a0000c8bf000080fb00ce
:10610400c800dd0001c8bf000080fb0000807000f3
:106114002052880002c8bf000080fb00c800dd00d8
:1061240003c8bf000080fb0000807000305288006c
:10613400040037000080eb00205288000080eb0050
:10614400305288000080fa00000006000200fa00c5
:10615400004f7800114798001e40900078e8b7007f
:106164001e00fb001200200031002000dbfb0700b2
:1061740018c9bf000004e0001200320015c9bf00b6
:10618400e44f50000f003a0000c8bf000080fb003d
:10619400c800dd0001c8bf000080fb000080700063
:1061a4004052880002c8bf000080fb00c800dd0028
:1061b40003c8bf000080fb000080700050528800bc
:1061c400040037000080eb00405288000080eb00a0
:1061d400505288000080fa00000006000400fa0013
:1061e400004f780011479800120798001e4078006d
:1061f4002ceab7001e4090002deab7001e00900064
:10620400705188000000eb00805188000000eb0012
:10621400e04f8800fa09a8000080fa000000060098
:106224000200fa00d04f8000610060000000e0002e
:1062340022003200e04f80000000e0001f003a001e
:1062440080518000000f78001e0078000000e000fc
:10625400040032001e007800e10f50000e003200ee
:10626400160037002dcabf000001fb002dcabf0075
:106274008000fb002ccabf000000fb00f6000700f2
:1062840070518000e04f8800805180000000e800d9
:1062940080518800090037002dcabf008000fb0030
:1062a4002ccabf000000fb000001eb00ea0007005d
:1062b400fa09a9000000eb00805188000080fa0070
:1062c400000006000400fa00004f7800114798000f
:1062d400120798001e40780032eab7001e40900072
:1062e40033eab7001e009000a05188000000eb00c4
:1062f400f04f8800fa29a8000080fa000000060088
:106304000200fa00d04f8000620060000000e0004c
:1063140022003200f04f80000000e0001f003a002d
:10632400b0518000000f78001e0078000000e000eb
:10633400040032001e007800e10f50000d0032000e
:106344001600370033cabf008000fb0032cabf000a
:106354000000fb000001eb00bf000700a05180001b
:10636400f04f8800b05180000000e800b051880070
:106374000a00370033cabf000001fb0033cabf0064
:106384008000fb0032cabf000000fb00b20007001f
:10639400fa29a9000000eb00b05188000080fa003f
:1063a400000006000200fa000000eb00203a88001a
:1063b400f0bf2f0000168800f07f2f0040168800e1
:1063c400f0f32f00801688000000eb0020168800f0
:1063d4000000eb00601688000000eb00a0168800a7
:1063e4000000eb00000988000112200091407800b1
:1063f400f0ccb30000c0600020e1b700000024002e
:10640400e00888000000eb00c00888008780a9002d
:106414009780a800210b20009140780080cfb30022
:1064240000c060000024a000b2e0b70021e1a80091
:106434000000eb0020088800411020009140780003
:10644400f0ccb30000c0600004e1b70000322000cb
:10645400100888000000eb00000888008460a90090
:106464009460a800510a20009140780000c7b3004e
:1064740000c07000a5e0b70005e1a80010c0b3009b
:1064840019e9b700416a20009140780000ceb300ba
:1064940000c060004041b300a4e6b700516d200085
:1064a4009140780000ceb30000c060003040b300db
:1064b400d5e6b7000000eb000011880000012000c1
:1064c4004011880021e2a8002342a800d4c2a800f9
:1064d400803e20001ffe07000000eb00e04b880018
:1064e4000000eb00104988000000eb002049880000
:1064f40041fd07000060fe0013f407000050800017
:10650400ea0f500001003e0032fb0700cefb0700fb
:1065140093fb07002dfc070005fd07009efc070008
:10652400f4ff37000200fa00004f7800114798008a
:106534001e40900078e8b7000040eb0079e8b7000f
:106544001e00fb0012002000210f2000e3fa0700c8
:106554000080fa00000006000200fa00004f7800f4
:10656400114798001e40900078e8b7000040eb0007
:1065740079e8b7001e00fb0012002000310f200054
:10658400d6fa07000080fa00000006000200fa00b4
:10659400004f78001e00fb001200200011002000b4
:1065a400cefa070018c9bf000004e0000900320059
:1065b4001e00fb00eb00500000c8bf000081fb0080
:1065c4008180400020922000008040000208780072
:1065d400070037001e00fb006b00500080004000e5
:1065e4002092200080804000f00f20008008780076
:0865f4000080fa00000006001f
:020000040000fa
:1065fc002c0a00000c00000000000000440a0000ff
:10660c000800000000000000380a00000c00000028
:10661c00000000004c0a0000060000000000000012
:10662c00520a0000040000000200000000000000fc
:10663c0000000000060a0000260000000000000018
:10664c00000800000602000000000000000000002e
:020000040000fa
:10665c000400fa00004f7800114798002247980078
:10666c001e40900078e8b7002e40900079e8b70003
:10667c001e00fb0022002000210f200095fa0700cd
:10668c000080fa00000006000200fa00004f7800bb
:10669c001e00fb000001eb00110f20008dfa07001b
:0866ac000080fa000000060066
:020000040000fa
:0466b4000000fe00e4
:00000001FF
