:020000040000fa
:080000000002040000000000f2
:020000040000fa
:04000800f8030000f9
:020000040000fa
:04000c00f8030000f5
:020000040000fa
:04001000f8030000f1
:020000040000fa
:04001400f8030000ed
:020000040000fa
:04001800f8030000e9
:020000040000fa
:04001c00f8030000e5
:020000040000fa
:04002000f8030000e1
:020000040000fa
:04002400f8030000dd
:020000040000fa
:04002800f8030000d9
:020000040000fa
:04002c00f8030000d5
:020000040000fa
:04003000f8030000d1
:020000040000fa
:04003400d0030000f5
:020000040000fa
:04003800f8030000c9
:020000040000fa
:04003c00f8030000c5
:020000040000fa
:04004000f8030000c1
:020000040000fa
:04004400f8030000bd
:020000040000fa
:04004800f8030000b9
:020000040000fa
:04004c00f8030000b5
:020000040000fa
:04005000f8030000b1
:020000040000fa
:04005400f8030000ad
:020000040000fa
:04005800f8030000a9
:020000040000fa
:04005c00f8030000a5
:020000040000fa
:04006000f8030000a1
:020000040000fa
:04006400f80300009d
:020000040000fa
:04006800f803000099
:020000040000fa
:04006c00f803000095
:020000040000fa
:04007000f803000091
:020000040000fa
:04007400f80300008d
:020000040000fa
:04007800f803000089
:020000040000fa
:04007c00f803000085
:020000040000fa
:04008000f803000081
:020000040000fa
:04008400f80300007d
:020000040000fa
:04008800f803000079
:020000040000fa
:04008c00f803000075
:020000040000fa
:04009000f803000071
:020000040000fa
:04009400f80300006d
:020000040000fa
:04009800c80200009a
:020000040000fa
:04009c00f803000065
:020000040000fa
:0400a000f803000061
:020000040000fa
:0400a400f80300005d
:020000040000fa
:0400a800f803000059
:020000040000fa
:0400ac00f803000055
:020000040000fa
:0400b000f803000051
:020000040000fa
:0400b400f80300004d
:020000040000fa
:0400b800f803000049
:020000040000fa
:0400bc00f803000045
:020000040000fa
:0400c000f803000041
:020000040000fa
:0400c400f80300003d
:020000040000fa
:0400c800f803000039
:020000040000fa
:0400cc00f803000035
:020000040000fa
:0400d000f803000031
:020000040000fa
:0400d400f80300002d
:020000040000fa
:0400d800f803000029
:020000040000fa
:0400dc00f803000025
:020000040000fa
:0400e000f803000021
:020000040000fa
:0400e400f80300001d
:020000040000fa
:0400e800f803000019
:020000040000fa
:0400ec00f803000015
:020000040000fa
:0400f000f803000011
:020000040000fa
:0400f400f80300000d
:020000040000fa
:0400f800f803000009
:020000040000fa
:0400fc00f803000005
:020000040000fa
:04010000f803000000
:020000040000fa
:04010400f8030000fc
:020000040000fa
:04010800f8030000f8
:020000040000fa
:04010c00f8030000f4
:020000040000fa
:04011000f8030000f0
:020000040000fa
:04011400f8030000ec
:020000040000fa
:04011800f8030000e8
:020000040000fa
:04011c00f8030000e4
:020000040000fa
:04012000f8030000e0
:020000040000fa
:04012400f8030000dc
:020000040000fa
:04012800f8030000d8
:020000040000fa
:04012c00f8030000d4
:020000040000fa
:04013000f8030000d0
:020000040000fa
:04013400f8030000cc
:020000040000fa
:04013800f8030000c8
:020000040000fa
:04013c00f8030000c4
:020000040000fa
:04014000f8030000c0
:020000040000fa
:04014400f8030000bc
:020000040000fa
:04014800f8030000b8
:020000040000fa
:04020800f8030000f7
:020000040000fa
:04020c00f8030000f3
:020000040000fa
:04021000f8030000ef
:020000040000fa
:04021400f8030000eb
:020000040000fa
:04021800f8030000e7
:020000040000fa
:04021c00f8030000e3
:020000040000fa
:04022000f8030000df
:020000040000fa
:04022400f8030000db
:020000040000fa
:04022800f8030000d7
:020000040000fa
:04022c00f8030000d3
:020000040000fa
:04023000f8030000cf
:020000040000fa
:04023400d0030000f3
:020000040000fa
:04023800f8030000c7
:020000040000fa
:04023c00f8030000c3
:020000040000fa
:04024000f8030000bf
:020000040000fa
:04024400f8030000bb
:020000040000fa
:04024800f8030000b7
:020000040000fa
:04024c00f8030000b3
:020000040000fa
:04025000f8030000af
:020000040000fa
:04025400f8030000ab
:020000040000fa
:04025800f8030000a7
:020000040000fa
:04025c00f8030000a3
:020000040000fa
:04026000f80300009f
:020000040000fa
:04026400f80300009b
:020000040000fa
:04026800f803000097
:020000040000fa
:04026c00f803000093
:020000040000fa
:04027000f80300008f
:020000040000fa
:04027400f80300008b
:020000040000fa
:04027800f803000087
:020000040000fa
:04027c00f803000083
:020000040000fa
:04028000f80300007f
:020000040000fa
:04028400f80300007b
:020000040000fa
:04028800f803000077
:020000040000fa
:04028c00f803000073
:020000040000fa
:04029000f80300006f
:020000040000fa
:04029400f80300006b
:020000040000fa
:04029800c802000098
:020000040000fa
:04029c00f803000063
:020000040000fa
:0402a000f80300005f
:020000040000fa
:0402a400f80300005b
:020000040000fa
:0402a800f803000057
:020000040000fa
:0402ac00f803000053
:020000040000fa
:0402b000f80300004f
:020000040000fa
:0402b400f80300004b
:020000040000fa
:0402b800f803000047
:020000040000fa
:0402bc00f803000043
:020000040000fa
:0402c000f80300003f
:020000040000fa
:0402c400f80300003b
:020000040000fa
:0402c800f803000037
:020000040000fa
:0402cc00f803000033
:020000040000fa
:0402d000f80300002f
:020000040000fa
:0402d400f80300002b
:020000040000fa
:0402d800f803000027
:020000040000fa
:0402dc00f803000023
:020000040000fa
:0402e000f80300001f
:020000040000fa
:0402e400f80300001b
:020000040000fa
:0402e800f803000017
:020000040000fa
:0402ec00f803000013
:020000040000fa
:0402f000f80300000f
:020000040000fa
:0402f400f80300000b
:020000040000fa
:0402f800f803000007
:020000040000fa
:0402fc00f803000003
:020000040000fa
:04030000f8030000fe
:020000040000fa
:04030400f8030000fa
:020000040000fa
:04030800f8030000f6
:020000040000fa
:04030c00f8030000f2
:020000040000fa
:04031000f8030000ee
:020000040000fa
:04031400f8030000ea
:020000040000fa
:04031800f8030000e6
:020000040000fa
:04031c00f8030000e2
:020000040000fa
:04032000f8030000de
:020000040000fa
:04032400f8030000da
:020000040000fa
:04032800f8030000d6
:020000040000fa
:04032c00f8030000d2
:020000040000fa
:04033000f8030000ce
:020000040000fa
:04033400f8030000ca
:020000040000fa
:04033800f8030000c6
:020000040000fa
:04033c00f8030000c2
:020000040000fa
:04034000f8030000be
:020000040000fa
:04034400f8030000ba
:020000040000fa
:04034800f8030000b6
:020000040000fa
:100400000fa720000e7f22000e01880000000000d0
:10041000000020000000e000020032000001200087
:100420002002880014000700f30007000000e0002d
:1004300003003a00a05f2300010020000200370003
:100440000000200001002000810f70000100320038
:1004500014000700000020000000e000020032004d
:100460000000020000000000e6340200000000006e
:100470000040da000000fe004440a900a02f210047
:100480000000e0000300320000002000a00188000e
:100490004440a800000006008a1f78008b1f7800e7
:1004a0000000060091018800800478000000eb0045
:1004b0001a003700e284440032a0b4009905ba0063
:1004c000e284440032a0b4009906ba00e2844400f9
:1004d00032a0b4000006eb00476fde00fd07b2005b
:1004e000636ce10003003a00ebff07000000eb0043
:1004f0000a003700606ce10004003a00005deb0088
:100500008b05e900fdff3e00040037006168e10053
:10051000010032000086eb000b00070019c7ba008b
:100520001905ba000e04e00003003a000a00e000da
:10053000e0ff3a0000000600fe07b2009e018800be
:100540008a047800f5ff3700395dba008b05e900b1
:100550000c003200295dba008b05e900080032006a
:100560000c00e00003003a00e284440032a0b40032
:10057000f5ff370019ddba008b05e900faff3a00f4
:100580008904e800e184440032a0b40000000600c1
:10059000809fbe003400f80000002000a001880009
:1005a0000000fa00804480000000e80080448800d9
:1005b00080448000e40f5000020034009028ef00d7
:1005c0003828ef00904480000000e8009044880044
:1005d0009144800030062000808f500002003400db
:1005e0009228ef003a28ef00a04480000000e800c5
:1005f000a0448800a1448000301f2000808f50005c
:10060000040034009428ef00604180000000e800fe
:1006100060418800b04480000000e800b0448800d9
:10062000b1448000703e2000808f500007003400ed
:100630009628ef00404280000000e00003003200f6
:10064000404280000000e90040428800d044800021
:100650000000e800d0448800d04480000000e000a2
:100660000d0034009a28ef00f04280000000e00006
:1006700003003200f04280000000e900f0428800f0
:10068000004380000000e0000300320000438000cf
:100690000000e90000438800c04480000000e8003a
:1006a000c0448800c1448000f07c2000808f50004e
:1006b000020034009828ef005a68ef0030438000b1
:1006c0000000e00003003200304380000000e90039
:1006d00030438800404380000000e0000300320007
:1006e000404380000000e90040438800a0418000b2
:1006f0000000e00009003200304380000000e0000c
:1007000006003a00404380000000e00003003a0089
:10071000a04180000000e900a04188000042800064
:100720000000e00003003200004280000000e90009
:1007300000428800304280000000e00003003200e8
:10074000304280000000e9003042880060428000b2
:100750000000e00007003200604280000000e90075
:1007600060428800604280000000e00001003a0022
:100770004a28ef00004180000000e0000300320042
:10078000004180000000e900004188008780a90046
:100790000080fa003400f9004f00be00004006005f
:1007a0003600f800809fbe00829fbe00849fbe007e
:1007b000869fbe003400f80000002000a0018800e1
:1007c0000000fa000021ef009a1207008460a900df
:1007d0000080fa003400f9004f03be004f02be0053
:1007e0004f01be004f00be003600f9000040060079
:0c07f0000040da000000fe0000000500e0
:020000040000fa
:1007fc0020200000202000002020000020200000ed
:10080c0020200000202000002020000020200000dc
:10081c0020200000202000002020000020200000cc
:10082c00202000004a6900006761000020410000a0
:10083c004d54000020380000303000003020000003
:10084c00202d00002020000020200000202000008f
:10085c002020000020200000446500006665000098
:10086c00697400006f730000207000006c61000060
:10087c0063610000203100002020000020200000d7
:10088c00466100006c200000506900006e200000e2
:10089c00465800004f5f00004155000044490000dd
:1008ac004f5f00004f5500005420000050310000f5
:1008bc00466100006c200000506900006e200000b2
:1008cc00465800004f5f00004155000044490000ad
:1008dc004f5f0000494e0000205000003120000006
:1008ec00466100006c680000612000005069000047
:1008fc006e6f000020460000584f00005f52000051
:10090c004c20000050430000492000003120000022
:10091c00466100006c680000612000005069000016
:10092c006e6f000020460000584f00005f4300002f
:10093c004c200000504300004920000031200000f2
:10094c00466100006c6800006120000050690000e6
:10095c006e6f000020460000584f00005f440000fe
:10096c004c200000504300004920000031200000c2
:10097c00466100006c6800006120000050690000b6
:10098c006e6f000020460000584f00005f440000ce
:10099c00522000005043000049200000312000008c
:1009ac00466100006c680000612000005069000086
:1009bc006e6f000020460000584f00005f52000090
:1009cc00442000005043000049200000312000006a
:1009dc00546900006d6500006f7500007420000004
:1009ec00646f0000207400006573000074650000e3
:1009fc00207000006c610000636100003120000079
:100a0c002020000020460000616c0000686100009e
:100a1c00204700005052000053200000706c000072
:100a2c0061630000612000003120000020200000e4
:100a3c002020000020460000616c0000686100006e
:100a4c00205700006946000069200000706c00000f
:100a5c0061630000612000003120000020200000b4
:100a6c0020460000616c00006861000020650000f9
:100a7c0074680000657200006e6500007420000050
:100a8c00706c0000616300006120000031200000e8
:100a9c0020200000466100006c680000612000000e
:100aac006261000074650000726900006120000042
:100abc00706c0000616300006120000031200000b8
:100acc002020000020200000466100006c6800001f
:100adc006120000052460000207000006c61000094
:100aec006361000020310000202000002020000065
:100afc002020000020460000616c000068610000ae
:100b0c002045000045500000524f00004d200000d1
:100b1c00706c000061630000612000003120000057
:100b2c0020200000202000004465000066650000c5
:100b3c00697400006f730000207000006c6100008d
:100b4c006361000020320000202000002020000003
:100b5c00466100006c200000506900006e2000000f
:100b6c00465800004f5f000041550000444900000a
:100b7c004f5f00004f550000542000005032000021
:100b8c00466100006c200000506900006e200000df
:100b9c00465800004f5f00004155000044490000da
:100bac004f5f0000494e0000205000003220000032
:100bbc00466100006c680000612000005069000074
:100bcc006e6f000020460000584f00005f5200007e
:100bdc004c2000005043000049200000322000004f
:100bec00466100006c680000612000005069000044
:100bfc006e6f000020460000584f00005f4300005d
:100c0c004c2000005043000049200000322000001e
:100c1c00466100006c680000612000005069000013
:100c2c006e6f000020460000584f00005f4400002b
:100c3c004c200000504300004920000032200000ee
:100c4c00466100006c6800006120000050690000e3
:100c5c006e6f000020460000584f00005f440000fb
:100c6c0052200000504300004920000032200000b8
:100c7c00466100006c6800006120000050690000b3
:100c8c006e6f000020460000584f00005f520000bd
:100c9c004420000050430000492000003220000096
:100cac00546900006d6500006f7500007420000031
:100cbc00646f000020740000657300007465000010
:100ccc00205000006c6100006361000020320000c5
:100cdc002020000020460000616c000068610000cc
:100cec00204700005052000053200000706c0000a0
:100cfc006163000061200000322000002020000011
:100d0c002020000020460000616c0000686100009b
:100d1c00205700006946000069200000706c00003c
:100d2c0061630000612000003220000020200000e0
:100d3c0020460000616c0000686100002065000026
:100d4c0074680000657200006e650000742000007d
:100d5c00706c000061630000612000003220000014
:100d6c0020200000466100006c680000612000003b
:100d7c00626100007465000072690000612000006f
:100d8c00706c0000616300006120000032200000e4
:100d9c002020000020200000466100006c6800004c
:100dac006120000052460000207000006c610000c1
:100dbc006361000020320000202000002020000091
:100dcc002020000020460000616c000068610000db
:100ddc002045000045500000524f00004d200000ff
:100dec00706c000061630000612000003220000084
:100dfc0020460000616c0000686100002067000064
:100e0c007261000076610000636100006f200000d9
:100e1c00706c000061630000612000003120000054
:100e2c0020460000616c0000686100002067000033
:100e3c007261000076610000636100006f200000a9
:100e4c00706c000061630000612000003220000023
:100e5c00546900006d6500006f750000742000007f
:100e6c00677200006176000061630000616f000032
:100e7c00207000006c6100006361000020310000f4
:100e8c00546900006d6500006f750000742000004f
:100e9c00677200006176000061630000616f000002
:100eac00207000006c6100006361000020320000c3
:100ebc002020000020540000696d0000656f0000c8
:100ecc007574000020700000726f0000672e000027
:100edc00207000006c6100006361000020200000a5
:100eec00466100006c680000612000006e6f00001d
:100efc002061000070610000676100006d650000fa
:100f0c006e7400006f200000504300004931000057
:100f1c00466100006c680000612000004772000010
:100f2c00617600002e2000004d6500006d6f000002
:100f3c00726900006120000050430000493100003c
:100f4c00466100006c6800006120000047720000e0
:100f5c00617600002e200000436f00006e660000da
:100f6c006967000020500000434900002031000058
:100f7c00466100006c68000061200000416c0000bc
:100f8c00696d00002e280000564400004429000022
:100f9c0020500000434900002031000020200000b8
:100fac00466100006c680000612000005465000080
:100fbc006e7300002e2800005650000050290000cf
:100fcc002050000043490000203100002020000088
:100fdc0020460000616c0000686100002070000079
:100fec006c61000063610000203100002061000092
:100ffc0075730000656e0000746500002020000011
:10100c00466100006c680000612000006e6f0000fb
:10101c002061000070610000676100006d650000d8
:10102c006e7400006f200000504300004932000035
:10103c00466100006c6800006120000047720000ef
:10104c00617600002e2000004d6500006d6f0000e1
:10105c00726900006120000050430000493200001a
:10106c00466100006c6800006120000047720000bf
:10107c00617600002e200000436f00006e660000b9
:10108c006967000020500000434900002032000036
:10109c00466100006c68000061200000416c00009b
:1010ac00696d00002e280000564400004429000001
:1010bc002050000043490000203200002020000096
:1010cc00466100006c68000061200000546500005f
:1010dc006e7300002e2800005650000050290000ae
:1010ec002050000043490000203200002020000066
:1010fc0020460000616c0000686100002070000058
:10110c006c6100006361000020320000206100006f
:10111c0075730000656e00007465000020200000ef
:10112c0020520000656100006c6900007a610000cb
:10113c006e6400006f2000006d65000064690000a3
:10114c00636f0000657300002e2e00002e2000003f
:10115c004772000061760000616e0000646f000051
:10116c002046000057200000646500002074000039
:10117c006573000074650000202e00002e2e000008
:10118c00202000004772000061760000616e0000b4
:10119c00646f0000204600005720000066690000c4
:1011ac006e6100006c2000002e2e00002e2000002e
:1011bc00204900006e69000063690000616c00004a
:1011cc00697a0000616e0000646f000020700000fe
:1011dc006c61000063610000732e00002e2e000075
:1011ec002054000065730000746100006e64000000
:1011fc006f200000746500006e7300006f650000c6
:10120c00732000002e2e00002e2000002020000055
:10121c002020000020560000616c00006964000072
:10122c00616e0000646f00002074000065730000a4
:10123c0074650000732000002e2e00002e2000008c
:10124c0020500000726500007061000072610000a7
:10125c006e6400006f2000004657000020660000fe
:10126c00696e0000616c0000202e00002e2e000024
:10127c002020000020200000464900004d200000e6
:10128c00444f00005320000054450000535400000c
:10129c0045530000202000002020000020200000ea
:1012ac002052000045530000554c000054410000f2
:1012bc00444f0000204400004f5300002054000015
:1012cc004553000054450000533a00002020000014
:1012dc002020000020500000524500005353000015
:1012ec00494f00004e450000204100002043000003
:1012fc00484100005645000020200000202000003e
:10130c00202000002050000041520000412000002d
:10131c005649000053550000414c0000495a00004a
:10132c0041520000204f00005320000020200000fc
:10133c004445000046450000495400004f5300004e
:10134c00204300004f520000524500005350000053
:10135c004f4e0000444500004e5400004553000021
:10136c002020000020200000202000002020000071
:10137c00204900004e490000434900004f20000066
:10138c002020000020200000202000002020000051
:10139c002020000042750000672000006e610000f4
:1013ac00206700007261000076610000636100003c
:1013bc006f210000212100002020000020200000cf
:1013cc002020000045780000656300007574000063
:1013dc00616e0000646f00002074000065730000f3
:1013ec0074650000732000002e2e00002e200000db
:1013fc00566100006c690000646100006e640000be
:10140c006f2000004657000020640000652000009b
:10141c007465000073740000652e00002e2e000011
:10142c0020200000566100006c690000646100001f
:10143c006e6400006f20000046570000206600001c
:10144c00696e0000616c0000202e00002e2e000042
:10145c00566100006c690000646100006e6400005d
:10146c006f2000004657000020640000652000003b
:10147c007465000073740000652e00002e2e0000b1
:10148c00477200006176000061630000616f00002c
:10149c00206f0000752000004c65000064200000e7
:1014ac004c44000033200000504300004931000040
:1014bc00477200006176000061630000616f0000fc
:1014cc00206f0000752000004c65000064200000b7
:1014dc004c4400003320000050430000493200000f
:1014ec00466100006c68000061200000746500001b
:1014fc006e730000616f0000203300005633000053
:10150c00205000006c61000063610000203100007d
:10151c00466100006c6800006120000074650000ea
:10152c006e730000616f0000203300005633000022
:10153c00205000006c61000063610000203200004c
:10154c002054000065730000746100006e6400009c
:10155c006f200000746500006e730000616f000066
:10156c0020330000563300002e2e00002e200000e9
:10157c002050000072650000706100007261000074
:10158c006e6400006f2000004657000020740000bd
:10159c006573000074650000202e00002e2e0000e4
:1015ac00204d0000656e000073610000676500004f
:1015bc006d200000706f0000736900006361000013
:1015cc006f200000373300002e2e00002e2000006c
:1015dc00204d0000656e000073610000676500001f
:1015ec006d200000706f00007369000063610000e3
:1015fc006f200000373400002e2e00002e2000003b
:10160c00204d0000656e00007361000067650000ee
:10161c006d200000706f00007369000063610000b2
:10162c006f200000373500002e2e00002e20000009
:10163c00204d0000656e00007361000067650000be
:10164c006d200000706f0000736900006361000082
:10165c006f200000373600002e2e00002e200000d8
:10166c00204d0000656e000073610000676500008e
:10167c006d200000706f0000736900006361000052
:10168c006f200000373700002e2e00002e200000a7
:10169c00204d0000656e000073610000676500005e
:1016ac006d200000706f0000736900006361000022
:1016bc006f200000373800002e2e00002e20000076
:1016cc00204d0000656e000073610000676500002e
:1016dc006d200000706f00007369000063610000f2
:1016ec006f200000373900002e2e00002e20000045
:1016fc00204d0000656e00007361000067650000fe
:10170c006d200000706f00007369000063610000c1
:10171c006f200000383000002e2e00002e2000001c
:10172c00204d0000656e00007361000067650000cd
:10173c006d200000706f0000736900006361000091
:10174c006f200000383100002e2e00002e200000eb
:10175c00204d0000656e000073610000676500009d
:10176c006d200000706f0000736900006361000061
:10177c006f200000383200002e2e00002e200000ba
:10178c00204d0000656e000073610000676500006d
:10179c006d200000706f0000736900006361000031
:1017ac006f200000383300002e2e00002e20000089
:1017bc00204d0000656e000073610000676500003d
:1017cc006d200000706f0000736900006361000001
:1017dc006f200000383400002e2e00002e20000058
:1017ec00204d0000656e000073610000676500000d
:1017fc006d200000706f00007369000063610000d1
:10180c006f200000383500002e2e00002e20000026
:10181c00204d0000656e00007361000067650000dc
:10182c006d200000706f00007369000063610000a0
:10183c006f200000383600002e2e00002e200000f5
:10184c00204d0000656e00007361000067650000ac
:10185c006d200000706f0000736900006361000070
:10186c006f200000383700002e2e00002e200000c4
:10187c00204d0000656e000073610000676500007c
:10188c006d200000706f0000736900006361000040
:10189c006f200000383800002e2e00002e20000093
:1018ac00204d0000656e000073610000676500004c
:1018bc006d200000706f0000736900006361000010
:1018cc006f200000383900002e2e00002e20000062
:1018dc00204d0000656e000073610000676500001c
:1018ec006d200000706f00007369000063610000e0
:1018fc006f200000393000002e2e00002e2000003a
:10190c00204d0000656e00007361000067650000eb
:10191c006d200000706f00007369000063610000af
:10192c006f200000393100002e2e00002e20000008
:10193c00204d0000656e00007361000067650000bb
:10194c006d200000706f000073690000636100007f
:10195c006f200000393200002e2e00002e200000d7
:10196c00204d0000656e000073610000676500008b
:10197c006d200000706f000073690000636100004f
:10198c006f200000393300002e2e00002e200000a6
:10199c00204d0000656e000073610000676500005b
:1019ac006d200000706f000073690000636100001f
:1019bc006f200000393400002e2e00002e20000075
:1019cc00204d0000656e000073610000676500002b
:1019dc006d200000706f00007369000063610000ef
:1019ec006f200000393500002e2e00002e20000044
:1019fc00204d0000656e00007361000067650000fb
:101a0c006d200000706f00007369000063610000be
:101a1c006f200000393600002e2e00002e20000012
:101a2c00204d0000656e00007361000067650000ca
:101a3c006d200000706f000073690000636100008e
:101a4c006f200000393700002e2e00002e200000e1
:101a5c00204d0000656e000073610000676500009a
:101a6c006d200000706f000073690000636100005e
:101a7c006f200000393800002e2e00002e200000b0
:101a8c00204d0000656e000073610000676500006a
:101a9c006d200000706f000073690000636100002e
:101aac006f200000393900002e2e00002e2000007f
:101abc0020200000506c00006163000061200000d9
:101acc00726500006c650000203000002061000091
:101adc0075730000656e0000746500002020000026
:101aec0020200000506c00006163000061200000a9
:101afc00726500006c650000203100002061000060
:101b0c0075730000656e00007465000020200000f5
:101b1c0020200000506c0000616300006120000078
:101b2c00726500006c65000020320000206100002e
:101b3c0075730000656e00007465000020200000c5
:101b4c0020200000506c0000616300006120000048
:101b5c00726500006c6500002033000020610000fd
:101b6c0075730000656e0000746500002020000095
:101b7c0020200000506c0000616300006120000018
:101b8c00412f00004420000030200000617500004f
:101b9c00736500006e7400006520000020200000ba
:101bac0020200000506c00006163000061200000e8
:101bbc00412f00004420000031200000617500001e
:101bcc00736500006e74000065200000202000008a
:101bdc0020200000506c00006163000061200000b8
:101bec00412f0000442000003220000061750000ed
:101bfc00736500006e74000065200000202000005a
:101c0c0020200000506c0000616300006120000087
:101c1c00412f0000442000003320000061750000bb
:101c2c00736500006e740000652000002020000029
:101c3c00506c0000616300006120000074650000be
:101c4c006c650000666f00006e690000612000008a
:101c5c0061750000736500006e7400006520000063
:101c6c00506c0000616300006120000062610000a4
:101c7c0072720000616d0000656e0000746f0000f0
:101c8c002061000075730000656e00007465000033
:101c9c0020200000506c00006163000061200000f7
:101cac0064690000737000006c6100007920000012
:101cbc0061750000736500006e7400006520000003
:101ccc00506c00006163000061200000677200002e
:101cdc0061760000616400006f720000203000002b
:101cec002061000075730000656e000074650000d3
:101cfc00506c0000616300006120000067720000fe
:101d0c0061760000616400006f72000020310000f9
:101d1c002061000075730000656e000074650000a2
:101d2c00506c0000616300006120000067720000cd
:101d3c0061760000616400006f72000020320000c8
:101d4c002061000075730000656e00007465000072
:101d5c00506c00006163000061200000677200009d
:101d6c0061760000616400006f7200002033000097
:101d7c002061000075730000656e00007465000042
:101d8c00506c00006163000061200000677200006d
:101d9c0061760000616400006f7200002034000066
:101dac002061000075730000656e00007465000012
:101dbc00506c00006163000061200000677200003d
:101dcc0061760000616400006f7200002035000035
:101ddc002061000075730000656e000074650000e2
:101dec00506c00006163000061200000677200000d
:101dfc0061760000616400006f7200002036000004
:101e0c002061000075730000656e000074650000b1
:101e1c00506c0000616300006120000067720000dc
:101e2c0061760000616400006f72000020370000d2
:101e3c002061000075730000656e00007465000081
:101e4c0020200000457800006563000075740000d8
:101e5c00616e0000646f0000207400006573000068
:101e6c0074650000732000002e2e00002e20000050
:101e7c002020000020200000202000002020000056
:101e8c005445000053540000452000004f4b000007
:101e9c002020000020200000202000002020000036
:101eac002020000020200000202000002020000026
:101ebc007c7c000045520000524f00007c7c0000ee
:101ecc002020000020200000202000002020000006
:101edc002020000020540000657300007465000091
:101eec0020610000626f00007274000061640000e9
:101efc006f20000021210000212000002020000084
:101f0c002020000047720000617600006163000031
:101f1c00616f0000204f00004b200000506c00004f
:101f2c0061630000612000003120000020200000cf
:101f3c002020000047720000617600006163000001
:101f4c00616f0000204f00004b200000506c00001f
:101f5c00616300006120000032200000202000009e
:101f6c00204900004e490000434900004f2000006a
:101f7c007061000072610000206e00006f7600003e
:101f8c006f20000074650000737400006520000071
:101f9c00536500006d700000726500002075000034
:101fac007365000020700000726f00007465000003
:101fbc00636100006f2000004553000044210000c5
:101fcc0020540000656d0000706f0000206500005b
:101fdc00736700006f740000616400006f2c0000d8
:101fec002072000065700000697400006120000020
:101ffc00202000006f200000746500007374000046
:10200c00652000006e6f0000766100006d650000b9
:10201c006e740000652100002121000020200000ca
:10202c00202000002020000046610000766f000098
:10203c00722000006167000075610000726400008e
:10204c00652000002e2e00002e2000002020000015
:10205c00496e000069630000696f00002070000089
:10206c006172000061200000616200007269000072
:10207c0072200000746100006d700000612100008e
:10208c00204d0000656e0000736100006765000064
:10209c006d200000706f0000736900006361000028
:1020ac006f20000031330000312e00002e2e000076
:1020bc00204d0000656e0000736100006765000034
:1020cc006d200000706f00007369000063610000f8
:1020dc006f20000031330000322e00002e2e000045
:1020ec00204d0000656e0000736100006765000004
:1020fc006d200000706f00007369000063610000c8
:10210c006f20000031330000332e00002e2e000013
:10211c00204d0000656e00007361000067650000d3
:10212c006d200000706f0000736900006361000097
:10213c006f20000031330000342e00002e2e0000e2
:10214c00204d0000656e00007361000067650000a3
:10215c006d200000706f0000736900006361000067
:10216c006f20000031330000352e00002e2e0000b1
:10217c00204d0000656e0000736100006765000073
:10218c006d200000706f0000736900006361000037
:10219c006f20000031330000362e00002e2e000080
:1021ac00204d0000656e0000736100006765000043
:1021bc006d200000706f0000736900006361000007
:1021cc006f20000031330000372e00002e2e00004f
:1021dc00204d0000656e0000736100006765000013
:1021ec006d200000706f00007369000063610000d7
:1021fc006f20000031330000382e00002e2e00001e
:10220c00204d0000656e00007361000067650000e2
:10221c006d200000706f00007369000063610000a6
:10222c006f20000031330000392e00002e2e0000ec
:10223c00204d0000656e00007361000067650000b2
:10224c006d200000706f0000736900006361000076
:10225c006f20000031340000302e00002e2e0000c4
:10226c00204d0000656e0000736100006765000082
:10227c006d200000706f0000736900006361000046
:10228c006f20000031340000312e00002e2e000093
:10229c00204d0000656e0000736100006765000052
:1022ac006d200000706f0000736900006361000016
:1022bc006f20000031340000322e00002e2e000062
:1022cc00204d0000656e0000736100006765000022
:1022dc006d200000706f00007369000063610000e6
:1022ec006f20000031340000332e00002e2e000031
:1022fc00204d0000656e00007361000067650000f2
:10230c006d200000706f00007369000063610000b5
:10231c006f20000031340000342e00002e2e0000ff
:10232c00204d0000656e00007361000067650000c1
:10233c006d200000706f0000736900006361000085
:10234c006f20000031340000352e00002e2e0000ce
:10235c00204d0000656e0000736100006765000091
:10236c006d200000706f0000736900006361000055
:10237c006f20000031340000362e00002e2e00009d
:10238c00204d0000656e0000736100006765000061
:10239c006d200000706f0000736900006361000025
:1023ac006f20000031340000372e00002e2e00006c
:1023bc00204d0000656e0000736100006765000031
:1023cc006d200000706f00007369000063610000f5
:1023dc006f20000031340000382e00002e2e00003b
:1023ec00204d0000656e0000736100006765000001
:1023fc006d200000706f00007369000063610000c5
:10240c006f20000031340000392e00002e2e000009
:10241c00204d0000656e00007361000067650000d0
:10242c006d200000706f0000736900006361000094
:10243c006f20000031350000302e00002e2e0000e1
:10244c000000000000000000000000000000000080
:10245c000000000000000000000000000000000070
:10246c000000000000000000000000000000000060
:10247c000000000000000000000000000000000050
:102d7c000101000000010000010100000000000042
:102d8c000000000001010000010000000000000034
:102d9c00000000000052000052520000524100009e
:102dac0041410000415400004244000047470000ec
:102dbc00474700004747000047470000000100005c
:102dcc0002030000000100000203000000000000ec
:102ddc0000000000010200000304000005060000d2
:042dec0007000000dc
:020000040000fa
:102df0000000fa00920320008000eb001000200089
:102e0000f70c07000092200021c0b30001487800b1
:102e1000109220008040eb000148780020922000b2
:102e200001c2b300014878003092200001c5b30010
:102e30000148780040922000c1c6b30001487800e4
:102e40005092200011c6b300014878006092200023
:102e500031c6b300014878007092200011c6b3005b
:102e6000014878008092200001c2b3000148780038
:102e700090922000d1c2b30001487800a0922000b7
:102e800001c2b30001487800b092200011c3b30022
:102e900001487800c092200001c2b30001487800c8
:102ea000d0922000c1c7b30001487800e092200012
:102eb00001c2b30001487800f092200001c5b300c0
:102ec0000148780000932000c1c6b3000148780093
:102ed0001093200011c6b300014878002093200011
:102ee00031c6b300014878003093200011c6b3000a
:102ef000014878004093200001c2b30001487800e7
:102f000050932000d1c2b3000148780060932000a4
:102f100001c2b300014878007093200021c3b300c0
:102f2000014878008093200001c2b3000148780076
:102f30009093200001c2b30001487800a201200054
:102f4000210f2000a0002000450a07000092200069
:102f500031c0b30001487800109220008040eb009f
:102f6000014878002092200001c2b3000148780097
:102f70003092200001c2b300014878001052800056
:102f8000e10f50003d003a0020528000e10f500058
:102f90003a003a0030528000e10f500037003a000a
:102fa00040528000e10f500034003a00505280003f
:102fb000e10f500031003a0060528000e10f5000f4
:102fc0002e003a0070528000e10f50002b003a00b2
:102fd00060a6200010407800e14f500027003a0022
:102fe00080528000e10f500024003a0080a62000ab
:102ff00010407800e14f500020003a00409220003d
:1030000041c5b300014878005092200051c4b3007c
:10301000014878006092200031c5b3000148780073
:103020007092200041c5b3000148780080922000d2
:1030300051c4b300014878009092200001c2b3004f
:1030400001487800a0922000f1c4b3000148780044
:10305000b0922000b1c4b300014878007568ef0059
:10306000a0a6200010407800804078000134a00025
:10307000a0a62000014878003800370010528000d8
:103080000000e0001d003200205280000000e0003f
:103090001a003200305280000000e00017003200b9
:1030a000405280000000e0001400320050528000c6
:1030b0000000e00011003200605280000000e000db
:1030c0000e003200705280000000e0000b00320061
:1030d00060a62000104078000004e00007003200e5
:1030e000805280000000e0000400320080a6200032
:1030f000104078000004e00018003a0040922000e0
:1031000001c2b300014878005092200001c2b30010
:10311000014878006092200051c4b3000148780053
:103120007092200021c5b3000148780080922000f1
:1031300021c5b3000148780090922000f1c4b3008b
:1031400001487800a092200001c2b3000148780035
:10315000b092200001c2b30001487800c092200064
:1031600001c2b30001487800d0922000c1c7b3006b
:1031700001487800e092200001c2b30001487800c5
:10318000a0528000e10f500043003a00b05280008e
:10319000e10f500040003a00c0528000e10f5000a3
:1031a0003d003a00d0528000e10f50003a003a0052
:1031b000e0528000e10f500037003a00f0528000ea
:1031c000e10f500034003a0000538000e10f50003e
:1031d00031003a0070a6200010407800e14f500006
:1031e0002d003a0010538000e10f50002a003a00f1
:1031f00090a6200010407800e14f500026003a00d1
:10320000f092200041c5b3000148780000932000ef
:1032100051c4b300014878001093200031c5b300b9
:10322000014878002093200041c5b3000148780090
:103230003093200051c4b30001487800409320002f
:1032400001c2b3000148780050932000f1c4b300dc
:103250000148780060932000b1c4b30001487800b1
:1032600080c0b30075e8b700a0a620001040780029
:103270008040780075c8bf000080fb00000040005f
:103280000040780000c0700080407800a0a62000b8
:103290000148780038003700a05280000000e000ac
:1032a0001d003200b05280000000e0001a00320021
:1032b000c05280000000e00017003200d0528000b1
:1032c0000000e00014003200e05280000000e00046
:1032d00011003200f05280000000e0000e003200c9
:1032e000005380000000e0000b00320070a62000b8
:1032f000104078000004e000070032001053800006
:103300000000e0000400320090a620001040780089
:103310000004e00018003a00f092200001c2b3005f
:10332000014878000093200001c2b30001487800f2
:103330001093200051c4b30001487800209320006e
:1033400021c5b300014878003093200021c5b300a7
:103350000148780040932000f1c4b3000148780090
:103360005093200001c2b300014878006093200010
:1033700001c2b300014878007093200001c2b3007d
:10338000014878008093200001c2b3000148780012
:103390009093200001c2b30001487800a2012000f0
:1033a000210f2000a00020002d090700009220001e
:1033b00041c0b30001487800109220008040eb002b
:1033c000014878002092200001c2b3000148780033
:1033d0003092200001c2b3000148780040922000e2
:1033e00001c2b300014878005092200001c2b3002e
:1033f000014878006092200001c2b30001487800c3
:103400007092200001c2b300014878008092200031
:1034100001c2b300014878009092200001c2b300bd
:1034200001487800a092200001c2b3000148780052
:10343000b092200001c2b30001487800c092200081
:1034400001c2b30001487800d092200001c2b3004d
:1034500001487800e092200001c2b30001487800e2
:10346000f092200001c2b3000148780000932000d0
:1034700001c2b300014878001093200001c2b300dc
:10348000014878002093200001c2b3000148780071
:103490003093200001c2b30001487800409320001f
:1034a00001c2b300014878005093200001c2b3006c
:1034b000014878006093200001c2b3000148780001
:1034c0007093200001c2b30001487800809320006f
:1034d00001c2b300014878009093200001c2b300fc
:1034e00001487800a2012000210f2000a000200048
:1034f000db0807000080fa00000006000400fa0064
:10350000204798002e4090000000fb006b00400018
:103510009c0d07002e4090000000fb008000400042
:10352000609b20000080400010007800e10f5000f8
:10353000190032002e4090000000fb008000400087
:10354000609b20000080400010007800e20f5000d7
:10355000110032002e4090000000fb00800040006f
:10356000609b20000080400010007800e30f5000b6
:10357000090032002e4090000000fb008000400057
:10358000609b20000080400090007800b00f200079
:10359000808f500009003a00320320008000eb00c9
:1035a000200020000e0b0700120820008000eb0016
:1035b000300020000a0b0700d20037002e40900098
:1035c0000000fb0080004000609b20000080400065
:1035d00090007800000f2000008060000000e000f4
:1035e0008c0032002e4090000000fb006600b90005
:1035f00000007800000f78002e4090000000fb00d3
:1036000080004000609b2000008040009000780017
:10361000100f2000808f500006003a005102200059
:103620001e804000ba08070010002000e042880019
:103630004d0037002e4090000000fb00800040004d
:10364000609b20000080400090007800300f200038
:10365000808f500006003a00610220001e8040006a
:10366000ab08070010002000e04288003e00370051
:103670002e4090000000fb0080004000609b200076
:103680000080400090007800400f2000808f5000a4
:1036900006003a00710220001e8040009c080700ce
:1036a00010002000e04288002f0037002e409000dc
:1036b0000000fb0080004000609b20000080400074
:1036c00090007800600f2000808f500006003a00c4
:1036d000810220001e8040008d080700100020009d
:1036e000e0428800200037002e4090000000fb00e0
:1036f00080004000609b2000008040009000780027
:10370000700f2000808f500006003a0091022000c8
:103710001e8040007e08070010002000e042880064
:10372000110037002e4090000000fb008000400098
:10373000609b20000080400090007800500f200027
:10374000808f500008003a0040428000f20f500085
:1037500005003e00a10220001e8040006c0807000a
:1037600010002000e0428800e0428000e10f50009d
:1037700064003a0074c8bf00804078002e4090007a
:103780000000fb00120020000010dd000040780067
:1037900000c0700074e8b7002e4090000000fb00ed
:1037a000ae4090008100fb0062a62000e2c07800dd
:1037b00001417800ae4090008100fb001300200022
:1037c0008118dd008140780081407100014178005e
:1037d00061a62000827078002e4090000000fb005f
:1037e00081a620000041eb00827078002e409000fe
:1037f0000000fb0080004000609b20000080400033
:103800008000eb00010878005c28ef006228ef00e0
:103810003c0037002e4090000000fb00800040007c
:10382000609b20000080400010007800e40f5000f2
:1038300034003a00401f2000a041880074c8bf0037
:10384000804078002e4090000000fb001200200015
:103850000010dd000040780000c0700074e8b70080
:103860002e4090000000fb0081a6200012c0b30093
:103870008270780040428000e90f500007003e004f
:103880002e4090000000fb00b007b000000178005f
:103890008000eb0030002000510a070077c8bf000d
:1038a0000004e00003003a0040428000f40f5000a2
:1038b00006003e0077c8bf00e14f50000a003a0002
:1038c00040428000fe0f5000070036002e4090005e
:1038d0000000fb0081a620000041eb008270780010
:1038e000e00320000a0807002e4090000000fb00c3
:1038f00080004000609b2000008040008000eb00c2
:10390000010878000080fa00000006000000fa00bc
:10391000804180000000e000a7053200a041800047
:103920000000e000a4053a00204380000000e00011
:10393000a1053a00704180008000eb005201200098
:1039400003002000820f5000838f58009a053e002c
:10395000006001001500370048003700670037009d
:10396000c8003700f20037002e0137005101370040
:1039700071013700a9013700cf0137005f0237001e
:10398000ef0237002a0337009c033700bc033700df
:10399000ba043700dc043700f7043700fd043700b1
:1039a000850537008405370033053700950a070081
:1039b0000000eb00105288000000eb00205288004d
:1039c0000000eb00305288000000eb0040528800fd
:1039d0000000eb00505288000000eb0060528800ad
:1039e0000000eb00705288000000eb00805288005d
:1039f0007c68ef007868ef0060a6200011c0b3007b
:103a0000014878007a68ef000000eb00a0528800bf
:103a10000000eb00b05288000000eb00c0528800ac
:103a20000000eb00d05288000000eb00e05288005c
:103a30000000eb00f05288000000eb00005388000b
:103a40000000eb00105388007968ef0070a620009a
:103a500011c0b300014878007d68ef007b68ef007b
:103a600010002000704188001428ef00a000200002
:103a7000f04288004828ef004f053700f0428000f0
:103a80000000e0002b053a00120020001100200089
:103a90000000eb00730c07004200200041002000f2
:103aa0000000eb006f0c0700820020008100200066
:103ab0000000eb006b0c0700020220000102200056
:103ac0000000eb00670c0700720720008000eb008d
:103ad00020002000c2090700220420008000eb0023
:103ae00030002000be090700401f2000f04288007f
:103af00020002000704188002f053700f042800030
:103b00000000e0000d053a00810020004000200088
:103b1000be0a0700f0438800f0438000e10f400038
:103b20000d003200f1438000c0232000808f500040
:103b300009003400f1438000a0292000808f50004c
:103b400005003c00100020008052880010c0b30027
:103b50007ce8b7000b0037000001eb0011002000eb
:103b60000000eb003f0c07000000eb0080528800d3
:103b700050042000660707007c68ef0010c0b30007
:103b80007ae8b70081002000500020009f0a07005b
:103b9000f0438800f0438000e10f40000d00320048
:103ba000f1438000c0232000808f500009003400c2
:103bb000f1438000a0292000808f500005003c00c8
:103bc000100020001053880010c0b3007de8b7003b
:103bd0000b0037000001eb00810020000000eb002b
:103be000200c07000000eb00105388006004200048
:103bf000470707007d68ef0010c0b3007be8b700ff
:103c000080528000e10f50000c003a0010538000f9
:103c1000e10f500009003a00300020007041880098
:103c2000220420008000eb00300020006c09070017
:103c300040062000f0428800df04370080528000f8
:103c40000000e00006003a00105380000000e00091
:103c500003003a00f000200070418800d6043700cd
:103c60003000200070418800220420008000eb001a
:103c7000300020005a09070040062000f04288006a
:103c8000cd043700f04280000000e000ad043a00af
:103c900071002000400020005c0a0700f04388000b
:103ca000f0438000e10f400008003200f143800043
:103cb000b0232000808f500004003400f1438000c6
:103cc000a02f2000808f50000f0034000000eb0078
:103cd0007052880080a620008040eb0001487800e8
:103ce0000001eb00110020000000eb00dd0b0700dd
:103cf0007c68ef0010c0b3007ae8b70010c0b300d2
:103d000078e8b7000700370080a6200011c0b30094
:103d10000148780010c0b3007ce8b7001000200014
:103d2000705288004000200070418800a2043700d3
:103d30007100200050002000340a0700f043880082
:103d4000f0438000e10f400008003200f1438000a2
:103d5000b0232000808f500004003400f143800025
:103d6000a02f2000808f50000f0034000000eb00d7
:103d70000053880090a620008040eb0001487800a6
:103d80000001eb00810020000000eb00b50b0700f4
:103d90007d68ef0010c0b3007be8b70010c0b3002f
:103da00079e8b7000700370090a6200011c0b300e3
:103db0000148780010c0b3007de8b7001000200073
:103dc00000538800705280000000e00003003a00b9
:103dd00080528000e10f5000060032000053800046
:103de0000000e0000c003a0010538000e10f50008a
:103df00009003a00b00020007041880082042000d1
:103e00008000eb0030002000f5080700800c200047
:103e1000f04288006804370050002000704188009c
:103e200065043700f04280000000e00047043a00db
:103e3000720720008000eb0020002000e808070047
:103e4000420320008000eb0030002000e40807005f
:103e500012002000110020000000eb00810b070081
:103e600042002000410020000000eb007d0b070015
:103e70001000200070528800820020008100200085
:103e80000000eb00770b0700020220000102200077
:103e90000000eb00730b07001000200000538800a7
:103ea0006000200070418800d0022000404288005d
:103eb0004104370040428000f90f500025043a00c9
:103ec000120320008000eb0030002000c40807002f
:103ed00080a6200010407800e14f500004003a0016
:103ee00022002000210020000000eb005d0b0700f5
:103ef00090a6200010407800e14f500004003a00e6
:103f000002012000010120000000eb00550b07001a
:103f100080a6200010407800e14f500003003a00d6
:103f200070002000704188002304370080002000ca
:103f3000704188002004370080a6200010407800df
:103f4000e14f500032003a0040428000e20f500042
:103f500002043e007100200040002000ab09070071
:103f6000f0438800f1438000d00b2000808f500088
:103f700012003c000001eb00210020000000eb00db
:103f8000380b070090a6200010407800e14f500049
:103f900003003a00800020007041880006043700ca
:103fa00090a62000104078000004e000ed033a00e5
:103fb0009000200070418800ff03370040428000dd
:103fc0000000e000e9033a000001eb0021002000be
:103fd0000000eb00230b0700a00020004c060700a8
:103fe00010c0b3007ae8b70090a620001040780017
:103ff0000004e000030032008000200070418800cf
:10400000ed0337009000200070418800ea0337007c
:104010008000200070418800e703370090a6200050
:1040200010407800e14f500020003a0040428000ec
:10403000e20f5000cf033e0071002000500020002e
:1040400072090700f0438800f1438000d00b200084
:10405000808f500007003c000001eb0001012000b0
:104060000000eb00ff0a070090002000704188006c
:10407000d1033700404280000000e000bf033a0057
:104080000001eb00010120000000eb00f50a070031
:10409000900120001e06070010c0b3007be8b700a7
:1040a0009000200070418800c3033700900020007a
:1040b00070418800c003370080a6200010407800bf
:1040c000e14f500088003a0011002000400020001d
:1040d0004e090700f0438800f1438000e00b200008
:1040e000808f500008003400b00020000806070050
:1040f0000000eb00105288007868ef0010c0b30099
:104100007ae8b70005003700100020001052880040
:1041100010c0b30078e8b7007a68ef0020032000f1
:10412000e80a0700210020004000200037090700ae
:10413000f0438800f1438000e00b2000808f5000a6
:1041400008003400c0002000f10507000000eb006b
:10415000205288007868ef0010c0b3007ae8b700fa
:1041600005003700100020002052880010c0b30066
:1041700078e8b7007a68ef0020032000d10a070032
:10418000310020004000200020090700f043880093
:10419000f1438000e00b2000808f500008003400c5
:1041a000d0002000da0507000000eb003052880044
:1041b0007868ef0010c0b3007ae8b7000500370058
:1041c000100020003052880010c0b30078e8b7001b
:1041d0007a68ef0020032000ba0a0700410020009f
:1041e0004000200009090700f0438800f1438000e7
:1041f000e00b2000808f500008003400e000200019
:10420000c30507000000eb00405288007868ef000b
:1042100010c0b3007ae8b700050037001000200096
:104220004052880010c0b30078e8b7007a68ef0009
:1042300020032000a30a07005100200040002000b6
:10424000f2080700f0438800f1438000e00b2000f3
:10425000808f500008003400f0002000ac050700fb
:104260000000eb00505288007868ef0010c0b300e7
:104270007ae8b7000500370010002000505288008f
:1042800010c0b30078e8b7007a68ef002003200080
:104290008c0a07006100200040002000db080700b6
:1042a000f0438800f1438000e00b2000808f500035
:1042b0000800340000012000950507000000eb0015
:1042c000605288007868ef0010c0b3007ae8b70049
:1042d00005003700100020006052880010c0b300b5
:1042e00078e8b7007a68ef00800c2000a0418800d1
:1042f000a0002000704188002f03370090a6200006
:1043000010407800e14f500088003a001100200072
:1043100050002000bd080700f0438800f1438000f2
:10432000e00b2000808f500008003400a001200026
:10433000770507000000eb00a05288007968ef00c5
:1043400010c0b3007be8b700050037001000200064
:10435000a052880010c0b30078e8b7007a68ef0078
:1043600020032000570a07002100200050002000f1
:10437000a6080700f0438800f1438000e00b20000e
:10438000808f500008003400b00120006005070055
:104390000000eb00b05288007968ef0010c0b30055
:1043a0007be8b7000500370010002000b0528800fd
:1043b00010c0b30078e8b7007a68ef00200320004f
:1043c000400a070031002000500020008f0807003d
:1043d000f0438800f1438000e00b2000808f500004
:1043e00008003400c0012000490507000000eb0070
:1043f000c05288007968ef0010c0b3007be8b700b6
:104400000500370010002000c052880010c0b30023
:1044100078e8b7007a68ef0020032000290a070037
:10442000410020005000200078080700f043880079
:10443000f1438000e00b2000808f50000800340022
:10444000d0012000320507000000eb00d0528800a8
:104450007968ef0010c0b3007be8b70005003700b3
:1044600010002000d052880010c0b30078e8b700d8
:104470007a68ef0020032000120a07005100200094
:104480005000200061080700f0438800f1438000dd
:10449000e00b2000808f500008003400e001200075
:1044a0001b0507000000eb00e05288007968ef0070
:1044b00010c0b3007be8b7000500370010002000f3
:1044c000e052880010c0b30078e8b7007a68ef00c7
:1044d00020032000fb09070061002000500020009d
:1044e0004a080700f0438800f1438000e00b2000f9
:1044f000808f500008003400f00120000405070000
:104500000000eb00f05288007968ef0010c0b300a3
:104510007be8b7000500370010002000f05288004b
:1045200010c0b30078e8b7007a68ef00800c200074
:10453000a0418800c0002000704188009e02370022
:10454000f04280000000e0008e023a0080528000bd
:10455000e10f50000d003a00f2002000f1002000b1
:1045600010002000bf09070001012000b00020005a
:104570006609070021032000b0002000720907002f
:1045800080a620008040eb00014878001053800096
:10459000e10f50000d003a00020f2000010f200033
:1045a00010002000af09070001012000c00020001a
:1045b0005609070021032000c000200062090700ff
:1045c00090a620008040eb0001487800c012200037
:1045d000f042880010002000a04088007768ef00bb
:1045e000d000200070418800220320008000eb00f2
:1045f00020002000fa060700120820008000eb00cf
:1046000030002000f6060700e0012000404288004c
:1046100075c8bf000080fb0080004000609b200048
:10462000008040008000eb00010878006202370043
:10463000720320008000eb0030002000e806070035
:1046400010528000e10f500021003a0020528000fb
:10465000e10f50001e003a0030528000e10f500080
:104660001b003a0040528000e10f500018003a0051
:1046700050528000e10f500015003a006052800057
:10468000e10f500012003a0070528000e10f50001c
:104690000f003a007a68ef00f2002000f1002000dd
:1046a000100020006f09070001012000b000200069
:1046b0001609070011032000b0002000220907009e
:1046c00080a620008040eb000148780002003700ff
:1046d00010c0b3007ae8b700a0528000e10f50008c
:1046e00021003a00b0528000e10f50001e003a0055
:1046f000c0528000e10f50001b003a00d0528000f1
:10470000e10f500018003a00e0528000e10f500025
:1047100015003a00f0528000e10f500012003a00fc
:1047200000538000e10f50000f003a007b68ef005b
:10473000020f2000010f200010002000490907008f
:1047400001012000c0002000f00807001103200034
:10475000c0002000fc08070090a620008040eb006d
:10476000014878000200370010c0b3007be8b700b2
:104770007ac8bf00e14f500006003a007bc8bf0076
:10478000e14f500003003a00f00020007041880023
:1047900009023700401f2000f0428800100020006e
:1047a000a040880010c0b30077e8b700d000200018
:1047b00070418800320320008000eb0020002000c0
:1047c00087060700120820008000eb003000200060
:1047d00083060700e00120004042880075c8bf0042
:1047e0000080fb0080004000609b200000804000b3
:1047f0008000eb0001087800ef013700f0428000f4
:104800000000e000e1013a007568ef001400370095
:1048100075c8bf000080fb0080004000609b200046
:10482000008040008000eb000108780074c8bf00e1
:104830008080fb0075c8bf000080fb000088de00a0
:10484000610060000000e00002003a0075c8bf008f
:104850002afb070075c8bf000040e80075e8b700f4
:1048600075c8bf00e14f5000e9ff3600c02b2000a3
:10487000a0418800e000200070418800ce01370090
:1048800074c8bf00e34f5000030032004042800074
:104890000000e000f6003a00404280000000e00026
:1048a0009b003a0080c8bf000004e00028003a00e6
:1048b00080c8bf000040e80080e8b7007568ef00de
:1048c0000800370075c8bf000080fb00e19d200094
:1048d0000041eb008270780075c8bf000040e8001e
:1048e00075e8b7005187200091407800f0c3b3000d
:1048f00080cf5000f3ff36005868ef005968ef0092
:104900007568ef000a00370075c8bf000080fb0023
:1049100080004000609c2000008040008000eb0090
:104920000108780075c8bf000040e80075e8b700ce
:1049300075c8bf00f34f5000f3ff3600f0002000b1
:104940007041880040062000a04188009a0137008d
:104950007568ef003000370074c8bf008080fb002e
:1049600075c8bf000080fb000088de0061006000a9
:104970000000e00025003a0075c8bf000004e00018
:1049800004003a0075c8bf000080fb004002b00080
:10499000df03070075c8bf00e14f500004003a0074
:1049a00075c8bf000080fb004002b000d8030700bc
:1049b00075c8bf000080fb0081a620000041eb000d
:1049c0008270780075c8bf000080fb00518720000e
:1049d000914078008180fb0062a62000e2c0780050
:1049e0000141780051872000914078008180fb00d0
:1049f000130020008118dd008140780081407100a3
:104a00000141780061a620008270780075c8bf005f
:104a10000040e80075e8b70075c8bf00e14f5000de
:104a2000cdff360075c8bf000080fb0061a62000e6
:104a300061407800e34f500008003a0020c0b30006
:104a40007ae8b70020c0b3007be8b700f000200090
:104a5000704188001428ef005701370075c8bf0067
:104a60008080fb0040872000008040008040eb00f9
:104a70000148780080a62000104078000004e00083
:104a800005003a0020c0b3007ae8b70060a6200015
:104a90008040eb000148780090a62000104078008c
:104aa0000004e00005003a0020c0b3007be8b70036
:104ab00070a620008040eb00014878008068ef007d
:104ac0000001eb00f1002000100020006508070045
:104ad0000001eb00010f200010002000610807001a
:104ae0000001eb00110020000000eb005d08070052
:104af0000001eb00810020000000eb0059080700d6
:104b0000f0002000704188001428ef002a013700cf
:104b100060a6200010407800e34f500004003200ef
:104b200070a6200010407800e34f500008003a00c3
:104b300020c0b3007ae8b70020c0b3007be8b7001c
:104b4000f0002000704188001428ef001a0137009f
:104b50007468ef008068ef0080a6200010407800a5
:104b60000004e00003003a0020c0b3007ae8b70078
:104b7000010037007a68ef0090a62000104078000e
:104b80000004e00003003a0020c0b3007be8b70057
:104b9000010037007b68ef0077c8bf000004e00029
:104ba00017003a001428ef000001eb00f10020008c
:104bb000100020002b0807000001eb00010f20006f
:104bc00010002000270807000001eb001100200062
:104bd0000000eb00230807000001eb00810020002b
:104be0000000eb001f080700500020007041880003
:104bf0004828ef00803e2000f0428800ee00370099
:104c000077c8bf00e14f500016003a001428ef00ab
:104c10000001eb00f1002000100020001108070047
:104c20000001eb00010f2000100020000d0807001c
:104c30000001eb00110020000000eb000908070054
:104c40000001eb00810020000000eb0005080700d8
:104c5000f000200070418800401f2000f0428800d2
:104c6000d5003700401f2000a0418800d200370047
:104c7000d000200070418800cf0037004828ef00a6
:104c80000001eb00410020000000eb00f5070700e9
:104c90000001eb00010220000000eb00f10707001b
:104ca0000001eb00110020000000eb00ed07070001
:104cb0000001eb00810020000000eb00e907070085
:104cc0000001eb00f100200010002000e5070700c4
:104cd0000001eb00010f200010002000e107070099
:104ce00040062000f04288004100200050002000d3
:104cf0007605070080fc2a00604288000001200041
:104d000070418800ac003700404280000000e000a5
:104d10000a003a00f04280000000e00007003a007c
:104d200028050700a0a620008040eb00014878007d
:104d30002ff8070010012000704188009705070038
:104d40000040780076e8b70076c8bf000080fb001e
:104d5000610060000000e0008e003a005001200079
:104d60007041880000a62e0060428800800c200060
:104d7000f04288009000370040062000f042880092
:104d8000400020004042880020012000704188003f
:104d900089003700f04280000000e0007f003a0008
:104da000404280000000e00024003a0059c8bf00e3
:104db0000004e0001700320002050700a2032000f3
:104dc0008000eb001000200005050700d203200042
:104dd0008000eb002000200001050700b203200046
:104de0008000eb0030002000fd040700c20320001b
:104df0008000eb0040002000f904070000012000c3
:104e0000704188005e28ef0040002000404288008a
:104e10000a00370000012000704188005e28ef0082
:104e20001000200040428800e6040700220820000d
:104e30008000eb0020002000e90407005705070070
:104e40000040780076e8b70076c8bf000080fb001d
:104e5000610060000000e00052003a0050012000b4
:104e60007041880000a62e0060428800800c20005f
:104e7000f042880050003700f04280000000e0005f
:104e80004a003a003028ef0010002000104288004d
:104e90003c28ef001428ef00ca0407007ac8bf00be
:104ea0000004e0000a003a007cc8bf00e14f500057
:104eb00007003a0080528000e10f500004003a00e1
:104ec000604380000000e800604388000300370072
:104ed000704380000000e800704388007bc8bf007a
:104ee0000004e0000a003a007dc8bf00e14f500016
:104ef00007003a0010538000e10f500004003a0010
:104f0000604380000000e800604388000300370031
:104f1000704380000000e8007043880059c8bf005b
:104f20000004e00023003a001000200090418800b7
:104f300021003700000000001f00370000000000c3
:104f40001d003700000000001b00370000000000bb
:104f500019003700000000001700370000000000b3
:104f600015003700000000001300370000000000ab
:104f700011003700000000000f00370000000000a3
:104f80000d003700000000000b003700000000009b
:104f90000900370000000000070037000000000093
:104fa000050037000000000003003700000000008b
:104fb000010037000000000080418000e10f500038
:104fc0009a003a0010448000800078006041800020
:104fd000808f50009500320070418000ee0f50002d
:104fe00092003e0040c1b30075e8b70008003700ea
:104ff00075c8bf000080fb00019220000041eb005b
:105000008270780075c8bf000040e80075e8b700fe
:1050100075c8bf00f94f5000f5ff36000092200020
:1050200041c0b300014878001092200031c0b300a5
:10503000014878002092200001c2b30001487800a6
:1050400041428000d0cc2c000008b8004308de00ac
:105050000040780002c3b30082404000309220003c
:105060000148780042428000d0cc2c000010b800eb
:105070004308de006a00b90000007800000051001b
:105080000040780002c3b3008240400040922000fc
:10509000014878005092200001c2b3000148780016
:1050a00060922000c1c7b3000148780070922000d0
:1050b00001c2b3000148780060418000c300de00f7
:1050c000b04721000008b8000100d100004078007e
:1050d00002c3b30082404000809220000148780063
:1050e000604180008000d10040062000000178006f
:1050f000110009008280d8008000fd008000780047
:10510000d0cc2c000008b8004308de000040780036
:1051100002c3b30082404000909220000148780012
:10512000604180008000d10040062000000178002e
:10513000110009008280d8008000fd000001780085
:10514000d0cc2c000010b8004308de006a00b90083
:1051500000007800000051000040780002c3b30056
:1051600082404000a092200001487800b0922000c8
:1051700001c2b30001487800c092200031c7b300db
:1051800001487800d092200051c6b3000148780051
:10519000e092200071c6b30001487800f092200030
:1051a00001c2b3000148780000932000c1c7b300da
:1051b000014878001093200001c2b3000148780034
:1051c00071418000d0cc2c000008b8004308de00fc
:1051d0000040780002c3b3008240400020932000ca
:1051e0000148780072418000d0cc2c000010b8003b
:1051f0004308de006a00b90000007800000051009a
:105200000040780002c3b300824040003093200089
:1052100001487800a2012000210f2000a0002000fa
:105220008f01070060418000104488000080fa0070
:10523000000006000000fa000bc8bf000004e000f8
:1052400072013a0005c8bf000080fb00e30f500068
:1052500080003200e30f500007003c00e10f5000d7
:105260002d003200e10f500052003c000000e00031
:105270000800320057013700e50f50009c00320053
:10528000e50f500082003500e60f5000a900320003
:105290005001370080bb2000c04088002222a900b6
:1052a00010118000610060000000e0000400320086
:1052b000301180000040780004e8b7001400370087
:1052c00005c8bf000040e80005e8b7000868ef0027
:1052d0000800370008c8bf000080fb00818a20005a
:1052e0000041eb008270780008c8bf000040e80071
:1052f00008e8b700818020009140780070c7b300b3
:1053000080cf5000f3ff36000468ef000768ef001d
:105310002222a9003d0137000068ef000a68ef0073
:1053200001c8bf000080fb00201188000180200020
:105330009140780001c8bf0000c0680000e8b700d5
:1053400003c8bf000080fb002011880001802000fe
:105350009140780003c8bf0000c0680000e8b700b3
:1053600006c8bf000080fb002011880001802000db
:105370009140780006c8bf0000c0680000e8b70090
:1053800009c8bf000080fb002011880001802000b8
:105390009140780009c8bf0000c0680000e8b7006d
:1053a0000868ef0005c8bf000040e80005e8b70046
:1053b0001601370010118000610060000000e0005d
:1053c00003003200301180000040780004e8b7008c
:1053d00009c8bf000004e000150032001111800070
:1053e00000202000008060000000e00010003a0073
:1053f00008c8bf000080fb000192200061407800d7
:105400000080fb002011880008c8bf000080fb005e
:1054100001922000e140780000c8bf0000c0680091
:1054200000e8b70008c8bf000040e80008e8b7007f
:10543000818020009140780009c8bf0080cf5000d3
:10544000eb00390005c8bf000040e80005e8b700e0
:10545000ee00370011118000002020000080600065
:105460000000e000e4003a0000c8bf0000c0ea000d
:1054700000e8b70000c8bf000080fb0020118800d2
:1054800005c8bf000040e80005e8b700df003700ae
:105490001111800000102000008060000000e0007a
:1054a000d70032002222a90030118000004078008d
:1054b00004e8b700301180000040780004e8b7002d
:1054c000301180000040780004e8b70030118000ff
:1054d0000040780004e8b7000068ef000868ef00bb
:1054e00005c8bf000040e80005e8b700c700370066
:1054f00003c8bf00e14f4000080032002342a9006a
:10550000d4c2a90005c8bf000040e80005e8b70004
:1055100040062000c0408800bc00370005c8bf001e
:105520000040e80005e8b70040062000c0408800c1
:10553000b600370003c8bf00e14f4000a1003200b1
:1055400010118000610060000000e0008e00320059
:1055500010118000620060000000e0008a003a0044
:1055600040062000c040880008c8bf000004e000da
:1055700009003a00301180000040780002e8b700ce
:10558000018020009140780002c8bf0000c0680080
:1055900000e8b7002e00370008c8bf00e14f5000f8
:1055a00009003a00301180000040780004e8b7009c
:1055b000018020009140780004c8bf0000c068004e
:1055c00000e8b7002200370008c8bf00e24f5000d3
:1055d00009003a00301180000040780007e8b70069
:1055e000018020009140780007c8bf0000c068001b
:1055f00000e8b7001600370008c8bf000080fb00b5
:10560000630050003111800001417800818a200040
:105610008270780008c8bf008080fb0007c8bf0008
:105620000080fb0063004000808f500008003200c3
:1056300008c8bf000080fb0063005000818a200082
:10564000e140780000c8bf0000c0680000e8b70073
:1056500008c8bf000040e80008e8b70006c8bf005f
:10566000ff4f50001a003600418020009140780022
:1056700003c8bf0080cf500043003a0021802000c3
:105680009140780001c8bf0080cf50003e003a0032
:1056900008c8bf00e44f50003b003a0000c8bf00fc
:1056a00000c0ea0000e8b700808a2000904078003f
:1056b00000c8bf0080cf500002003a0010c0b30005
:1056c0000ae8b70010c0b3000be8b7002e0037009f
:1056d00008c8bf00e34f50002000360008c8bf00d4
:1056e0008080fb0007c8bf000080fb006300400013
:1056f000808f50001900340010c0b3000be8b700d1
:1057000000c8bf0000c0ea0000e8b70007c8bf003b
:105710000080fb00818a2000e140780000c8bf00c3
:1057200080cf500018003a0041802000914078005e
:1057300003c8bf0080cf500010003a002180200035
:105740009140780001c8bf0080cf50000d003a00a2
:1057500010c0b3000ae8b7000b00370081802000ba
:105760009140780080c7b30080cf5000060036001b
:1057700010c0b3000be8b7000300370000000000c2
:1057800001003700000000000bc8bf000004e0006b
:1057900004003a0010118000620060000000e00088
:1057a0001900320005c8bf000040e80005e8b70056
:1057b000d4c2a8002342a8000568ef001828ef0013
:1057c0001200370005c8bf000040e80005e8b70038
:1057d0000e003700d4c2a8002342a8000568ef00dd
:1057e00010c0b3000be8b7001828ef00070037001f
:1057f0000000000005003700000000000300370033
:10580000000000000100370000000000c0408000e0
:105810000000e00010003200c04080000000e900fd
:10582000c0408800c04080000000e0000a003a004c
:105830002342a9002222a900d4c2a8002342a80022
:105840000568ef001828ef000068ef000a68ef0015
:1058500010c0b3000be8b7000080fa00000006009b
:105860000600fa0020479800314798004247980008
:105870000000eb00000f78002e4090000000fb00bd
:10588000116d29006140780001e8b7002e409000ba
:105890000000fb00416e29006140780003e8b7007a
:1058a0003e40900006e8b7004e40900009e8b7007f
:1058b0000b68ef00000000000bc8bf000004e00010
:1058c000fdff3200a0002000fe0407001e0fe800cc
:1058d0000ac8bf000004e0000b003a001e00780078
:1058e000e20f500008003c002e4090000000fb003a
:1058f00080004000609c2000008040001000780084
:10590000e30f5000dcff36000080fa0000000600c4
:105910000200fa00004f780059c8bf000080fb0069
:105920001e417800e19d20008270780059c8bf00b8
:105930000040e80059e8b70059c8bf000074a10052
:1059400059e8b7000080fa00000006000000fa00e5
:10595000c04180000000e0005f003a00c0418000cc
:105960000000e0005c003a0010002000c041880008
:10597000a6c8bf000000fb00e16b29006140780071
:105980000004e0004d003200a6c8bf00ea4f5000fe
:1059900006003400a6c8bf00f24f500003003c00d0
:1059a000a04080000000e00044003a00a6c8bf000c
:1059b0000041eb0001cfb300a9ff07000ac8bf00f8
:1059c0000004e00031003a00a6c8bf000000fb0060
:1059d00080004000609c20000080400010007800a3
:1059e000e30f500029003e00a6c8bf000000fb00e6
:1059f00000014000619c200081004100910078007e
:105a00008100e80000014000609c2000000041008f
:105a100001087800a6c8bf000000fb00800040001d
:105a2000609c20000080400010007800e40f5000cf
:105a300016003a00a6c8bf004046b000b4ff0700f9
:105a4000110020002000200020020700a6c8bf008f
:105a50000000fb0080004000609c200000804000af
:105a60005100200001087800804180000000e00023
:105a700003003a00f04180000000e0000300320023
:105a800010002000104288003c28ef00a016800083
:105a90004700de00614060000004a2006140600039
:105aa0000080fb00610060004700dd00a11680005f
:105ab0000170a10001007000a0168800a6c8bf00f8
:105ac0000040e800a6e8b700a6c8bf00f24f5000ab
:105ad00001003400a668ef000080fa000000060014
:105ae0000000fa0059c8bf000004e0004100320085
:105af0005ac8bf000004e0003e003a008041800028
:105b00000000e0003b003a0010c0b3005ae8b700c4
:105b100058c8bf000004e00009003a00c0a62000f9
:105b20008040eb0001487800d0a620008040eb00c8
:105b300001487800e0a620008040eb000148780092
:105b4000d0a6200090407800c0a620000148780030
:105b5000e0a6200090407800d0a620000148780000
:105b600058c8bf000080fb00e19d20006140780024
:105b700080407800e0a6200001487800c0a6200000
:105b8000104078000000fb00000178008000eb006e
:105b90002000200092010700d0a6200010407800cd
:105ba0000000fb00000178008000eb0030002000c6
:105bb0008b010700e0a62000104078000000fb00e9
:105bc000000178008000eb00400020008401070005
:105bd00058c8bf000040e80058e8b70081852000a1
:105be0009140780059c8bf0080cf500001003900b3
:105bf0005868ef000080fa00000006000200fa007a
:105c0000d04180000000e00073003a001000200046
:105c1000d0418800e1010700b04188008041800048
:105c20000000e00009003a00104280000000e0009f
:105c300006003a00d20720008000eb002000200080
:105c400067010700ef010700e701070080418000be
:105c50000000e00010003a00104280000000e00068
:105c60000d003a00604380000000e0000a003a00a6
:105c7000d20720008000eb00200020005801070020
:105c8000e20720008000eb003000200054010700f4
:105c9000d5010700db010700b04180006100600012
:105ca0000000e00007003a00804180000000e000b2
:105cb00004003a0010002000e04188004c28ef006a
:105cc0004a28ef00b0418000620060000000e00060
:105cd00041003a0080418000e10f500012003a007c
:105ce000380107001428ef0010002000104288003f
:105cf0003c28ef002000200050428800a20720002e
:105d00008000eb004000200035010700401f20000c
:105d1000ec0307000001eb008000eb0040002000d6
:105d20002f0107002c0037000001eb008000eb0082
:105d3000200020002a010700a20720008000eb00bd
:105d40003000200026010700401f2000dd0307006f
:105d50001c0107000000eb00000f78000500370071
:105d6000e09d20001e0040008040eb0001487800cc
:105d70001e0fe800f00320009e007800808f500086
:105d8000f7ff34005868ef005968ef000000eb009f
:105d9000000f7800070037001e00780080004000e8
:105da000609c2000008040008000eb00010878002b
:105db0001e0fe8001e007800eb0f5000f6ff3400c5
:105dc0000000eb00b703070010002000b503070038
:105dd000850107008b0107000080fa000000060023
:105de0000200fa00e0418000e10f50006a003a0032
:105df000004280000000e00067003a00f0418000af
:105e0000e10f500040003200e10f50000300390064
:105e1000e20f50004e00320058003700e900070042
:105e2000420320008000eb0020002000ec0007006f
:105e30000001eb008000eb0030002000e8000700cc
:105e40000001eb008000eb0040002000e4000700b0
:105e50000000eb00000f780005003700e09d2000f7
:105e60001e0040008040eb00014878001e0fe80053
:105e7000f00320009e007800808f5000f7ff340070
:105e80005868ef005968ef000000eb00000f780041
:105e9000070037001e00780080004000609c200052
:105ea000008040008000eb00010878001e0fe80031
:105eb0001e007800eb0f5000f6ff34002100200098
:105ec0005000200001010700470107004d010700b5
:105ed0000000eb00730307001000200071030700af
:105ee0002200200021002000300020005d03070078
:105ef000401f200000428800f04180000000e800c0
:105f0000f0418800240037000001eb004100200030
:105f10000000eb00530307000001eb00010220002a
:105f20000000eb004f0307001200200011002000ca
:105f3000300020004b030700401f20000042880073
:105f4000f04180000000e800f041880012003700b6
:105f50002a28ef002c28ef003228ef002e28ef002f
