:020000040000fa
:080000000002040000000000f2
:020000040000fa
:04000800f8030000f9
:020000040000fa
:04000c00f8030000f5
:020000040000fa
:04001000f8030000f1
:020000040000fa
:04001400f8030000ed
:020000040000fa
:04001800f8030000e9
:020000040000fa
:04001c00f8030000e5
:020000040000fa
:04002000f8030000e1
:020000040000fa
:04002400f8030000dd
:020000040000fa
:04002800f8030000d9
:020000040000fa
:04002c00f8030000d5
:020000040000fa
:04003000f8030000d1
:020000040000fa
:04003400d0030000f5
:020000040000fa
:04003800f8030000c9
:020000040000fa
:04003c00f8030000c5
:020000040000fa
:04004000f8030000c1
:020000040000fa
:04004400f8030000bd
:020000040000fa
:04004800f8030000b9
:020000040000fa
:04004c00f8030000b5
:020000040000fa
:04005000f8030000b1
:020000040000fa
:04005400f8030000ad
:020000040000fa
:04005800f8030000a9
:020000040000fa
:04005c00f8030000a5
:020000040000fa
:04006000f8030000a1
:020000040000fa
:04006400f80300009d
:020000040000fa
:04006800f803000099
:020000040000fa
:04006c00f803000095
:020000040000fa
:04007000f803000091
:020000040000fa
:04007400f80300008d
:020000040000fa
:04007800f803000089
:020000040000fa
:04007c00f803000085
:020000040000fa
:04008000f803000081
:020000040000fa
:04008400f80300007d
:020000040000fa
:04008800f803000079
:020000040000fa
:04008c00f803000075
:020000040000fa
:04009000f803000071
:020000040000fa
:04009400f80300006d
:020000040000fa
:04009800c80200009a
:020000040000fa
:04009c00f803000065
:020000040000fa
:0400a000f803000061
:020000040000fa
:0400a400f80300005d
:020000040000fa
:0400a800f803000059
:020000040000fa
:0400ac00f803000055
:020000040000fa
:0400b000f803000051
:020000040000fa
:0400b400f80300004d
:020000040000fa
:0400b800f803000049
:020000040000fa
:0400bc00f803000045
:020000040000fa
:0400c000f803000041
:020000040000fa
:0400c400f80300003d
:020000040000fa
:0400c800f803000039
:020000040000fa
:0400cc00f803000035
:020000040000fa
:0400d000f803000031
:020000040000fa
:0400d400f80300002d
:020000040000fa
:0400d800f803000029
:020000040000fa
:0400dc00f803000025
:020000040000fa
:0400e000f803000021
:020000040000fa
:0400e400f80300001d
:020000040000fa
:0400e800f803000019
:020000040000fa
:0400ec00f803000015
:020000040000fa
:0400f000f803000011
:020000040000fa
:0400f400f80300000d
:020000040000fa
:0400f800f803000009
:020000040000fa
:0400fc00f803000005
:020000040000fa
:04010000f803000000
:020000040000fa
:04010400f8030000fc
:020000040000fa
:04010800f8030000f8
:020000040000fa
:04010c00f8030000f4
:020000040000fa
:04011000f8030000f0
:020000040000fa
:04011400f8030000ec
:020000040000fa
:04011800f8030000e8
:020000040000fa
:04011c00f8030000e4
:020000040000fa
:04012000f8030000e0
:020000040000fa
:04012400f8030000dc
:020000040000fa
:04012800f8030000d8
:020000040000fa
:04012c00f8030000d4
:020000040000fa
:04013000f8030000d0
:020000040000fa
:04013400f8030000cc
:020000040000fa
:04013800f8030000c8
:020000040000fa
:04013c00f8030000c4
:020000040000fa
:04014000f8030000c0
:020000040000fa
:04014400f8030000bc
:020000040000fa
:04014800f8030000b8
:020000040000fa
:04020800f8030000f7
:020000040000fa
:04020c00f8030000f3
:020000040000fa
:04021000f8030000ef
:020000040000fa
:04021400f8030000eb
:020000040000fa
:04021800f8030000e7
:020000040000fa
:04021c00f8030000e3
:020000040000fa
:04022000f8030000df
:020000040000fa
:04022400f8030000db
:020000040000fa
:04022800f8030000d7
:020000040000fa
:04022c00f8030000d3
:020000040000fa
:04023000f8030000cf
:020000040000fa
:04023400d0030000f3
:020000040000fa
:04023800f8030000c7
:020000040000fa
:04023c00f8030000c3
:020000040000fa
:04024000f8030000bf
:020000040000fa
:04024400f8030000bb
:020000040000fa
:04024800f8030000b7
:020000040000fa
:04024c00f8030000b3
:020000040000fa
:04025000f8030000af
:020000040000fa
:04025400f8030000ab
:020000040000fa
:04025800f8030000a7
:020000040000fa
:04025c00f8030000a3
:020000040000fa
:04026000f80300009f
:020000040000fa
:04026400f80300009b
:020000040000fa
:04026800f803000097
:020000040000fa
:04026c00f803000093
:020000040000fa
:04027000f80300008f
:020000040000fa
:04027400f80300008b
:020000040000fa
:04027800f803000087
:020000040000fa
:04027c00f803000083
:020000040000fa
:04028000f80300007f
:020000040000fa
:04028400f80300007b
:020000040000fa
:04028800f803000077
:020000040000fa
:04028c00f803000073
:020000040000fa
:04029000f80300006f
:020000040000fa
:04029400f80300006b
:020000040000fa
:04029800c802000098
:020000040000fa
:04029c00f803000063
:020000040000fa
:0402a000f80300005f
:020000040000fa
:0402a400f80300005b
:020000040000fa
:0402a800f803000057
:020000040000fa
:0402ac00f803000053
:020000040000fa
:0402b000f80300004f
:020000040000fa
:0402b400f80300004b
:020000040000fa
:0402b800f803000047
:020000040000fa
:0402bc00f803000043
:020000040000fa
:0402c000f80300003f
:020000040000fa
:0402c400f80300003b
:020000040000fa
:0402c800f803000037
:020000040000fa
:0402cc00f803000033
:020000040000fa
:0402d000f80300002f
:020000040000fa
:0402d400f80300002b
:020000040000fa
:0402d800f803000027
:020000040000fa
:0402dc00f803000023
:020000040000fa
:0402e000f80300001f
:020000040000fa
:0402e400f80300001b
:020000040000fa
:0402e800f803000017
:020000040000fa
:0402ec00f803000013
:020000040000fa
:0402f000f80300000f
:020000040000fa
:0402f400f80300000b
:020000040000fa
:0402f800f803000007
:020000040000fa
:0402fc00f803000003
:020000040000fa
:04030000f8030000fe
:020000040000fa
:04030400f8030000fa
:020000040000fa
:04030800f8030000f6
:020000040000fa
:04030c00f8030000f2
:020000040000fa
:04031000f8030000ee
:020000040000fa
:04031400f8030000ea
:020000040000fa
:04031800f8030000e6
:020000040000fa
:04031c00f8030000e2
:020000040000fa
:04032000f8030000de
:020000040000fa
:04032400f8030000da
:020000040000fa
:04032800f8030000d6
:020000040000fa
:04032c00f8030000d2
:020000040000fa
:04033000f8030000ce
:020000040000fa
:04033400f8030000ca
:020000040000fa
:04033800f8030000c6
:020000040000fa
:04033c00f8030000c2
:020000040000fa
:04034000f8030000be
:020000040000fa
:04034400f8030000ba
:020000040000fa
:04034800f8030000b6
:020000040000fa
:10040000cfa620000e7f22000e0188000000000011
:10041000000020000000e000020032000001200087
:100420002002880014000700f30007000000e0002d
:1004300003003a00c07823000100200002003700ca
:100440000000200001002000810f70000100320038
:1004500014000700000020000000e000020032004d
:1004600000000200000000007636020000000000dc
:100470000040da000000fe004440a900a02f210047
:100480000000e0000300320000002000a00188000e
:100490004440a800000006008a1f78008b1f7800e7
:1004a0000000060091018800800478000000eb0045
:1004b0001a003700e284440032a0b4009905ba0063
:1004c000e284440032a0b4009906ba00e2844400f9
:1004d00032a0b4000006eb00476fde00fd07b2005b
:1004e000636ce10003003a00ebff07000000eb0043
:1004f0000a003700606ce10004003a00005deb0088
:100500008b05e900fdff3e00040037006168e10053
:10051000010032000086eb000b00070019c7ba008b
:100520001905ba000e04e00003003a000a00e000da
:10053000e0ff3a0000000600fe07b2009e018800be
:100540008a047800f5ff3700395dba008b05e900b1
:100550000c003200295dba008b05e900080032006a
:100560000c00e00003003a00e284440032a0b40032
:10057000f5ff370019ddba008b05e900faff3a00f4
:100580008904e800e184440032a0b40000000600c1
:10059000809fbe003400f80000002000a001880009
:1005a0000000fa00604480000000e8006044880019
:1005b00060448000e40f5000020034008c28ef00fb
:1005c0003428ef00704480000000e8007044880088
:1005d0007144800030062000808f500002003400fb
:1005e0008e28ef003628ef00804480000000e800ed
:1005f0008044880081448000301f2000808f50009c
:10060000040034009028ef00404180000000e80022
:1006100040418800904480000000e8009044880039
:1006200091448000703e2000808f5000070034000d
:100630009228ef00204280000000e000030032001a
:10064000204280000000e90020428800b044800081
:100650000000e800b0448800b04480000000e000e2
:100660000d0034009628ef00d04280000000e0002a
:1006700003003200d04280000000e900d042880030
:10068000e04280000000e00003003200e042800011
:100690000000e900e0428800a04480000000e8007b
:1006a000a0448800a1448000f07c2000808f50008e
:1006b000020034009428ef005668ef0010438000d9
:1006c0000000e00003003200104380000000e90059
:1006d00010438800204380000000e0000300320047
:1006e000204380000000e900204388008041800012
:1006f0000000e00009003200104380000000e0002c
:1007000006003a00204380000000e00003003a00a9
:10071000804180000000e90080418800e0418000c5
:100720000000e00003003200e04180000000e9002a
:10073000e0418800104280000000e0000300320029
:10074000104280000000e900104288004042800012
:100750000000e00007003200404280000000e90095
:1007600040428800404280000000e00001003a0062
:100770004628ef00e04080000000e0000300320067
:10078000e04080000000e900e04088008780a90088
:100790000080fa003400f9004f00be00004006005f
:1007a0003600f800809fbe00829fbe00849fbe007e
:1007b000869fbe003400f80000002000a0018800e1
:1007c0000000fa000021ef00701307008460a90008
:1007d0000080fa003400f9004f03be004f02be0053
:1007e0004f01be004f00be003600f9000040060079
:0c07f0000040da000000fe0000000500e0
:020000040000fa
:1007fc0020200000202000002020000020200000ed
:10080c0020200000202000002020000020200000dc
:10081c0020200000202000002020000020200000cc
:10082c00202000004a6900006761000020410000a0
:10083c004d54000020380000303000003020000003
:10084c00202d00002020000020200000202000008f
:10085c002020000020200000446500006665000098
:10086c00697400006f730000207000006c61000060
:10087c0063610000203100002020000020200000d7
:10088c00466100006c200000506900006e200000e2
:10089c00465800004f5f00004155000044490000dd
:1008ac004f5f00004f5500005420000050310000f5
:1008bc00466100006c200000506900006e200000b2
:1008cc00465800004f5f00004155000044490000ad
:1008dc004f5f0000494e0000205000003120000006
:1008ec00466100006c680000612000005069000047
:1008fc006e6f000020460000584f00005f52000051
:10090c004c20000050430000492000003120000022
:10091c00466100006c680000612000005069000016
:10092c006e6f000020460000584f00005f4300002f
:10093c004c200000504300004920000031200000f2
:10094c00466100006c6800006120000050690000e6
:10095c006e6f000020460000584f00005f440000fe
:10096c004c200000504300004920000031200000c2
:10097c00466100006c6800006120000050690000b6
:10098c006e6f000020460000584f00005f440000ce
:10099c00522000005043000049200000312000008c
:1009ac00466100006c680000612000005069000086
:1009bc006e6f000020460000584f00005f52000090
:1009cc00442000005043000049200000312000006a
:1009dc00546900006d6500006f7500007420000004
:1009ec00646f0000207400006573000074650000e3
:1009fc00207000006c610000636100003120000079
:100a0c002020000020460000616c0000686100009e
:100a1c00204700005052000053200000706c000072
:100a2c0061630000612000003120000020200000e4
:100a3c002020000020460000616c0000686100006e
:100a4c00205700006946000069200000706c00000f
:100a5c0061630000612000003120000020200000b4
:100a6c0020460000616c00006861000020650000f9
:100a7c0074680000657200006e6500007420000050
:100a8c00706c0000616300006120000031200000e8
:100a9c0020200000466100006c680000612000000e
:100aac006261000074650000726900006120000042
:100abc00706c0000616300006120000031200000b8
:100acc002020000020200000466100006c6800001f
:100adc006120000052460000207000006c61000094
:100aec006361000020310000202000002020000065
:100afc002020000020460000616c000068610000ae
:100b0c002045000045500000524f00004d200000d1
:100b1c00706c000061630000612000003120000057
:100b2c0020200000202000004465000066650000c5
:100b3c00697400006f730000207000006c6100008d
:100b4c006361000020320000202000002020000003
:100b5c00466100006c200000506900006e2000000f
:100b6c00465800004f5f000041550000444900000a
:100b7c004f5f00004f550000542000005032000021
:100b8c00466100006c200000506900006e200000df
:100b9c00465800004f5f00004155000044490000da
:100bac004f5f0000494e0000205000003220000032
:100bbc00466100006c680000612000005069000074
:100bcc006e6f000020460000584f00005f5200007e
:100bdc004c2000005043000049200000322000004f
:100bec00466100006c680000612000005069000044
:100bfc006e6f000020460000584f00005f4300005d
:100c0c004c2000005043000049200000322000001e
:100c1c00466100006c680000612000005069000013
:100c2c006e6f000020460000584f00005f4400002b
:100c3c004c200000504300004920000032200000ee
:100c4c00466100006c6800006120000050690000e3
:100c5c006e6f000020460000584f00005f440000fb
:100c6c0052200000504300004920000032200000b8
:100c7c00466100006c6800006120000050690000b3
:100c8c006e6f000020460000584f00005f520000bd
:100c9c004420000050430000492000003220000096
:100cac00546900006d6500006f7500007420000031
:100cbc00646f000020740000657300007465000010
:100ccc00205000006c6100006361000020320000c5
:100cdc002020000020460000616c000068610000cc
:100cec00204700005052000053200000706c0000a0
:100cfc006163000061200000322000002020000011
:100d0c002020000020460000616c0000686100009b
:100d1c00205700006946000069200000706c00003c
:100d2c0061630000612000003220000020200000e0
:100d3c0020460000616c0000686100002065000026
:100d4c0074680000657200006e650000742000007d
:100d5c00706c000061630000612000003220000014
:100d6c0020200000466100006c680000612000003b
:100d7c00626100007465000072690000612000006f
:100d8c00706c0000616300006120000032200000e4
:100d9c002020000020200000466100006c6800004c
:100dac006120000052460000207000006c610000c1
:100dbc006361000020320000202000002020000091
:100dcc002020000020460000616c000068610000db
:100ddc002045000045500000524f00004d200000ff
:100dec00706c000061630000612000003220000084
:100dfc0020460000616c0000686100002067000064
:100e0c007261000076610000636100006f200000d9
:100e1c00706c000061630000612000003120000054
:100e2c0020460000616c0000686100002067000033
:100e3c007261000076610000636100006f200000a9
:100e4c00706c000061630000612000003220000023
:100e5c00546900006d6500006f750000742000007f
:100e6c00677200006176000061630000616f000032
:100e7c00207000006c6100006361000020310000f4
:100e8c00546900006d6500006f750000742000004f
:100e9c00677200006176000061630000616f000002
:100eac00207000006c6100006361000020320000c3
:100ebc002020000020540000696d0000656f0000c8
:100ecc007574000020700000726f0000672e000027
:100edc00207000006c6100006361000020200000a5
:100eec00466100006c680000612000006e6f00001d
:100efc002061000070610000676100006d650000fa
:100f0c006e7400006f200000504300004931000057
:100f1c00466100006c680000612000004772000010
:100f2c00617600002e2000004d6500006d6f000002
:100f3c00726900006120000050430000493100003c
:100f4c00466100006c6800006120000047720000e0
:100f5c00617600002e200000436f00006e660000da
:100f6c006967000020500000434900002031000058
:100f7c00466100006c68000061200000416c0000bc
:100f8c00696d00002e280000564400004429000022
:100f9c0020500000434900002031000020200000b8
:100fac00466100006c680000612000005465000080
:100fbc006e7300002e2800005650000050290000cf
:100fcc002050000043490000203100002020000088
:100fdc0020460000616c0000686100002070000079
:100fec006c61000063610000203100002061000092
:100ffc0075730000656e0000746500002020000011
:10100c00466100006c680000612000006e6f0000fb
:10101c002061000070610000676100006d650000d8
:10102c006e7400006f200000504300004932000035
:10103c00466100006c6800006120000047720000ef
:10104c00617600002e2000004d6500006d6f0000e1
:10105c00726900006120000050430000493200001a
:10106c00466100006c6800006120000047720000bf
:10107c00617600002e200000436f00006e660000b9
:10108c006967000020500000434900002032000036
:10109c00466100006c68000061200000416c00009b
:1010ac00696d00002e280000564400004429000001
:1010bc002050000043490000203200002020000096
:1010cc00466100006c68000061200000546500005f
:1010dc006e7300002e2800005650000050290000ae
:1010ec002050000043490000203200002020000066
:1010fc0020460000616c0000686100002070000058
:10110c006c6100006361000020320000206100006f
:10111c0075730000656e00007465000020200000ef
:10112c0020520000656100006c6900007a610000cb
:10113c006e6400006f2000006d65000064690000a3
:10114c00636f0000657300002e2e00002e2000003f
:10115c004772000061760000616e0000646f000051
:10116c002046000057200000646500002074000039
:10117c006573000074650000202e00002e2e000008
:10118c00202000004772000061760000616e0000b4
:10119c00646f0000204600005720000066690000c4
:1011ac006e6100006c2000002e2e00002e2000002e
:1011bc00204900006e69000063690000616c00004a
:1011cc00697a0000616e0000646f000020700000fe
:1011dc006c61000063610000732e00002e2e000075
:1011ec002054000065730000746100006e64000000
:1011fc006f200000746500006e7300006f650000c6
:10120c00732000002e2e00002e2000002020000055
:10121c002020000020560000616c00006964000072
:10122c00616e0000646f00002074000065730000a4
:10123c0074650000732000002e2e00002e2000008c
:10124c0020500000726500007061000072610000a7
:10125c006e6400006f20000046570000204600001e
:10126c00696e0000616c0000202e00002e2e000024
:10127c002020000020200000464900004d200000e6
:10128c00444f00005320000054450000535400000c
:10129c0045530000202000002020000020200000ea
:1012ac002052000045530000554c000054410000f2
:1012bc00444f0000204400004f5300002054000015
:1012cc004553000054450000533a00002020000014
:1012dc002020000020500000524500005353000015
:1012ec00494f00004e450000204100002043000003
:1012fc00484100005645000020200000202000003e
:10130c00202000002050000041520000412000002d
:10131c005649000053550000414c0000495a00004a
:10132c0041520000204f00005320000020200000fc
:10133c004445000046450000495400004f5300004e
:10134c00204300004f520000524500005350000053
:10135c004f4e0000444500004e5400004553000021
:10136c002020000020200000202000002020000071
:10137c00204900004e490000434900004f20000066
:10138c002020000020200000202000002020000051
:10139c002020000042750000672000006e610000f4
:1013ac00206700007261000076610000636100003c
:1013bc006f210000212100002020000020200000cf
:1013cc002020000045780000656300007574000063
:1013dc00616e0000646f00002074000065730000f3
:1013ec0074650000732000002e2e00002e200000db
:1013fc00566100006c690000646100006e640000be
:10140c006f2000004657000020640000652000009b
:10141c007465000073740000652e00002e2e000011
:10142c0020200000566100006c690000646100001f
:10143c006e6400006f20000046570000206600001c
:10144c00696e0000616c0000202e00002e2e000042
:10145c00566100006c690000646100006e6400005d
:10146c006f2000004657000020640000652000003b
:10147c007465000073740000652e00002e2e0000b1
:10148c00204700007261000076610000636100007b
:10149c006f200000666900006e6100006c20000087
:1014ac00706c0000616300006120000031200000be
:1014bc00204700007261000076610000636100004b
:1014cc006f200000666900006e6100006c20000057
:1014dc00706c00006163000061200000322000008d
:1014ec00204d0000656e0000736100006765000010
:1014fc006d200000706f00007369000063610000d4
:10150c006f200000363900002e2e00002e20000027
:10151c00204d0000656e00007361000067650000df
:10152c006d200000706f00007369000063610000a3
:10153c006f200000373000002e2e00002e200000ff
:10154c00204d0000656e00007361000067650000af
:10155c006d200000706f0000736900006361000073
:10156c006f200000373100002e2e00002e200000ce
:10157c00204d0000656e000073610000676500007f
:10158c006d200000706f0000736900006361000043
:10159c006f200000373200002e2e00002e2000009d
:1015ac00204d0000656e000073610000676500004f
:1015bc006d200000706f0000736900006361000013
:1015cc006f200000373300002e2e00002e2000006c
:1015dc00204d0000656e000073610000676500001f
:1015ec006d200000706f00007369000063610000e3
:1015fc006f200000373400002e2e00002e2000003b
:10160c00204d0000656e00007361000067650000ee
:10161c006d200000706f00007369000063610000b2
:10162c006f200000373500002e2e00002e20000009
:10163c00204d0000656e00007361000067650000be
:10164c006d200000706f0000736900006361000082
:10165c006f200000373600002e2e00002e200000d8
:10166c00204d0000656e000073610000676500008e
:10167c006d200000706f0000736900006361000052
:10168c006f200000373700002e2e00002e200000a7
:10169c00204d0000656e000073610000676500005e
:1016ac006d200000706f0000736900006361000022
:1016bc006f200000373800002e2e00002e20000076
:1016cc00204d0000656e000073610000676500002e
:1016dc006d200000706f00007369000063610000f2
:1016ec006f200000373900002e2e00002e20000045
:1016fc00204d0000656e00007361000067650000fe
:10170c006d200000706f00007369000063610000c1
:10171c006f200000383000002e2e00002e2000001c
:10172c00204d0000656e00007361000067650000cd
:10173c006d200000706f0000736900006361000091
:10174c006f200000383100002e2e00002e200000eb
:10175c00204d0000656e000073610000676500009d
:10176c006d200000706f0000736900006361000061
:10177c006f200000383200002e2e00002e200000ba
:10178c00204d0000656e000073610000676500006d
:10179c006d200000706f0000736900006361000031
:1017ac006f200000383300002e2e00002e20000089
:1017bc00204d0000656e000073610000676500003d
:1017cc006d200000706f0000736900006361000001
:1017dc006f200000383400002e2e00002e20000058
:1017ec00204d0000656e000073610000676500000d
:1017fc006d200000706f00007369000063610000d1
:10180c006f200000383500002e2e00002e20000026
:10181c00204d0000656e00007361000067650000dc
:10182c006d200000706f00007369000063610000a0
:10183c006f200000383600002e2e00002e200000f5
:10184c00204d0000656e00007361000067650000ac
:10185c006d200000706f0000736900006361000070
:10186c006f200000383700002e2e00002e200000c4
:10187c00204d0000656e000073610000676500007c
:10188c006d200000706f0000736900006361000040
:10189c006f200000383800002e2e00002e20000093
:1018ac00204d0000656e000073610000676500004c
:1018bc006d200000706f0000736900006361000010
:1018cc006f200000383900002e2e00002e20000062
:1018dc00204d0000656e000073610000676500001c
:1018ec006d200000706f00007369000063610000e0
:1018fc006f200000393000002e2e00002e2000003a
:10190c00204d0000656e00007361000067650000eb
:10191c006d200000706f00007369000063610000af
:10192c006f200000393100002e2e00002e20000008
:10193c00204d0000656e00007361000067650000bb
:10194c006d200000706f000073690000636100007f
:10195c006f200000393200002e2e00002e200000d7
:10196c00204d0000656e000073610000676500008b
:10197c006d200000706f000073690000636100004f
:10198c006f200000393300002e2e00002e200000a6
:10199c00204d0000656e000073610000676500005b
:1019ac006d200000706f000073690000636100001f
:1019bc006f200000393400002e2e00002e20000075
:1019cc00204d0000656e000073610000676500002b
:1019dc006d200000706f00007369000063610000ef
:1019ec006f200000393500002e2e00002e20000044
:1019fc00204d0000656e00007361000067650000fb
:101a0c006d200000706f00007369000063610000be
:101a1c006f200000393600002e2e00002e20000012
:101a2c00204d0000656e00007361000067650000ca
:101a3c006d200000706f000073690000636100008e
:101a4c006f200000393700002e2e00002e200000e1
:101a5c00204d0000656e000073610000676500009a
:101a6c006d200000706f000073690000636100005e
:101a7c006f200000393800002e2e00002e200000b0
:101a8c00204d0000656e000073610000676500006a
:101a9c006d200000706f000073690000636100002e
:101aac006f200000393900002e2e00002e2000007f
:101abc0020200000506c00006163000061200000d9
:101acc00726500006c650000203000002061000091
:101adc0075730000656e0000746500002020000026
:101aec0020200000506c00006163000061200000a9
:101afc00726500006c650000203100002061000060
:101b0c0075730000656e00007465000020200000f5
:101b1c0020200000506c0000616300006120000078
:101b2c00726500006c65000020320000206100002e
:101b3c0075730000656e00007465000020200000c5
:101b4c0020200000506c0000616300006120000048
:101b5c00726500006c6500002033000020610000fd
:101b6c0075730000656e0000746500002020000095
:101b7c0020200000506c0000616300006120000018
:101b8c00412f00004420000030200000617500004f
:101b9c00736500006e7400006520000020200000ba
:101bac0020200000506c00006163000061200000e8
:101bbc00412f00004420000031200000617500001e
:101bcc00736500006e74000065200000202000008a
:101bdc0020200000506c00006163000061200000b8
:101bec00412f0000442000003220000061750000ed
:101bfc00736500006e74000065200000202000005a
:101c0c0020200000506c0000616300006120000087
:101c1c00412f0000442000003320000061750000bb
:101c2c00736500006e740000652000002020000029
:101c3c00506c0000616300006120000074650000be
:101c4c006c650000666f00006e690000612000008a
:101c5c0061750000736500006e7400006520000063
:101c6c00506c0000616300006120000062610000a4
:101c7c0072720000616d0000656e0000746f0000f0
:101c8c002061000075730000656e00007465000033
:101c9c0020200000506c00006163000061200000f7
:101cac0064690000737000006c6100007920000012
:101cbc0061750000736500006e7400006520000003
:101ccc00506c00006163000061200000677200002e
:101cdc0061760000616400006f720000203000002b
:101cec002061000075730000656e000074650000d3
:101cfc00506c0000616300006120000067720000fe
:101d0c0061760000616400006f72000020310000f9
:101d1c002061000075730000656e000074650000a2
:101d2c00506c0000616300006120000067720000cd
:101d3c0061760000616400006f72000020320000c8
:101d4c002061000075730000656e00007465000072
:101d5c00506c00006163000061200000677200009d
:101d6c0061760000616400006f7200002033000097
:101d7c002061000075730000656e00007465000042
:101d8c00506c00006163000061200000677200006d
:101d9c0061760000616400006f7200002034000066
:101dac002061000075730000656e00007465000012
:101dbc00506c00006163000061200000677200003d
:101dcc0061760000616400006f7200002035000035
:101ddc002061000075730000656e000074650000e2
:101dec00506c00006163000061200000677200000d
:101dfc0061760000616400006f7200002036000004
:101e0c002061000075730000656e000074650000b1
:101e1c00506c0000616300006120000067720000dc
:101e2c0061760000616400006f72000020370000d2
:101e3c002061000075730000656e00007465000081
:101e4c0020200000457800006563000075740000d8
:101e5c00616e0000646f0000207400006573000068
:101e6c0074650000732000002e2e00002e20000050
:101e7c002020000020200000202000002020000056
:101e8c005445000053540000452000004f4b000007
:101e9c002020000020200000202000002020000036
:101eac002020000020200000202000002020000026
:101ebc007c7c000045520000524f00007c7c0000ee
:101ecc002020000020200000202000002020000006
:101edc002020000020540000657300007465000091
:101eec0020610000626f00007274000061640000e9
:101efc006f20000021210000212000002020000084
:101f0c002020000047720000617600006163000031
:101f1c00616f0000204f00004b200000506c00004f
:101f2c0061630000612000003120000020200000cf
:101f3c002020000047720000617600006163000001
:101f4c00616f0000204f00004b200000506c00001f
:101f5c00616300006120000032200000202000009e
:101f6c00204900004e490000434900004f2000006a
:101f7c007061000072610000206e00006f7600003e
:101f8c006f20000074650000737400006520000071
:101f9c00205500007365000020700000756c000077
:101fac00736500006972000061200000616e000022
:101fbc007469000065730000742e0000202000007e
:101fcc0020540000656d0000706f0000206500005b
:101fdc00736700006f740000616400006f2c0000d8
:101fec002072000065700000697400006120000020
:101ffc00202000006f200000746500007374000046
:10200c00652000006e6f0000766100006d650000b9
:10201c006e740000652100002121000020200000ca
:10202c00202000002020000046610000766f000098
:10203c00722000006167000075610000726400008e
:10204c00652000002e2e00002e2000002020000015
:10205c00496e000069630000696f00002070000089
:10206c006172000061200000616200007269000072
:10207c0072200000746100006d700000612100008e
:10208c00204d0000656e0000736100006765000064
:10209c006d200000706f0000736900006361000028
:1020ac006f20000031330000312e00002e2e000076
:1020bc00204d0000656e0000736100006765000034
:1020cc006d200000706f00007369000063610000f8
:1020dc006f20000031330000322e00002e2e000045
:1020ec00204d0000656e0000736100006765000004
:1020fc006d200000706f00007369000063610000c8
:10210c006f20000031330000332e00002e2e000013
:10211c00204d0000656e00007361000067650000d3
:10212c006d200000706f0000736900006361000097
:10213c006f20000031330000342e00002e2e0000e2
:10214c00204d0000656e00007361000067650000a3
:10215c006d200000706f0000736900006361000067
:10216c006f20000031330000352e00002e2e0000b1
:10217c00204d0000656e0000736100006765000073
:10218c006d200000706f0000736900006361000037
:10219c006f20000031330000362e00002e2e000080
:1021ac00204d0000656e0000736100006765000043
:1021bc006d200000706f0000736900006361000007
:1021cc006f20000031330000372e00002e2e00004f
:1021dc00204d0000656e0000736100006765000013
:1021ec006d200000706f00007369000063610000d7
:1021fc006f20000031330000382e00002e2e00001e
:10220c00204d0000656e00007361000067650000e2
:10221c006d200000706f00007369000063610000a6
:10222c006f20000031330000392e00002e2e0000ec
:10223c00204d0000656e00007361000067650000b2
:10224c006d200000706f0000736900006361000076
:10225c006f20000031340000302e00002e2e0000c4
:10226c00204d0000656e0000736100006765000082
:10227c006d200000706f0000736900006361000046
:10228c006f20000031340000312e00002e2e000093
:10229c00204d0000656e0000736100006765000052
:1022ac006d200000706f0000736900006361000016
:1022bc006f20000031340000322e00002e2e000062
:1022cc00204d0000656e0000736100006765000022
:1022dc006d200000706f00007369000063610000e6
:1022ec006f20000031340000332e00002e2e000031
:1022fc00204d0000656e00007361000067650000f2
:10230c006d200000706f00007369000063610000b5
:10231c006f20000031340000342e00002e2e0000ff
:10232c00204d0000656e00007361000067650000c1
:10233c006d200000706f0000736900006361000085
:10234c006f20000031340000352e00002e2e0000ce
:10235c00204d0000656e0000736100006765000091
:10236c006d200000706f0000736900006361000055
:10237c006f20000031340000362e00002e2e00009d
:10238c00204d0000656e0000736100006765000061
:10239c006d200000706f0000736900006361000025
:1023ac006f20000031340000372e00002e2e00006c
:1023bc00204d0000656e0000736100006765000031
:1023cc006d200000706f00007369000063610000f5
:1023dc006f20000031340000382e00002e2e00003b
:1023ec00204d0000656e0000736100006765000001
:1023fc006d200000706f00007369000063610000c5
:10240c006f20000031340000392e00002e2e000009
:10241c00204d0000656e00007361000067650000d0
:10242c006d200000706f0000736900006361000094
:10243c006f20000031350000302e00002e2e0000e1
:10244c000000000000000000000000000000000080
:10245c000000000000000000000000000000000070
:10246c000000000000000000000000000000000060
:10247c000000000000000000000000000000000050
:102d7c000101000000010000010100000000000042
:102d8c000000000001010000010000000000000034
:102d9c00000000000052000052520000524100009e
:102dac0041410000415400004244000047470000ec
:102dbc00474700004747000047470000000100005c
:102dcc0002030000000100000203000000000000ec
:102ddc0000000000010200000304000005060000d2
:042dec0007000000dc
:020000040000fa
:102df0000000fa00920320008000eb001000200089
:102e0000bf0d0700c091200021c0b3000148780029
:102e1000d09120008040eb0001487800e091200034
:102e200001c2b30001487800f091200001c5b30051
:102e30000148780000922000c1c6b3000148780024
:102e40001092200011c6b3000148780020922000a3
:102e500031c6b300014878003092200011c6b3009b
:102e6000014878004092200001c2b3000148780078
:102e700050922000d1c2b300014878006092200037
:102e800001c2b300014878007092200011c3b30062
:102e9000014878008092200001c2b3000148780008
:102ea00090922000c1c7b30001487800a092200092
:102eb00001c2b30001487800b092200001c5b30000
:102ec00001487800c0922000c1c6b30001487800d4
:102ed000d092200011c6b30001487800e092200093
:102ee00031c6b30001487800f092200011c6b3004b
:102ef000014878000093200001c2b3000148780027
:102f000010932000d1c2b300014878002093200024
:102f100001c2b300014878003093200021c3b30000
:102f2000014878004093200001c2b30001487800b6
:102f30005093200001c2b30001487800a201200094
:102f4000210f2000a00020001b0b0700c0912000d3
:102f500031c0b30001487800d09120008040eb00e0
:102f600001487800e091200001c2b30001487800d8
:102f7000f091200001c2b30001487800f0518000b8
:102f8000e10f50003d003a0000528000e10f500078
:102f90003a003a0010528000e10f500037003a002a
:102fa00020528000e10f500034003a00305280007f
:102fb000e10f500031003a0040528000e10f500014
:102fc0002e003a0050528000e10f50002b003a00d2
:102fd00020a6200010407800e14f500027003a0062
:102fe00070528000e10f500024003a0040a62000fb
:102ff00010407800e14f500020003a00009220007d
:1030000041c5b300014878001092200051c4b300bc
:10301000014878002092200031c5b30001487800b3
:103020003092200041c5b300014878004092200052
:1030300051c4b300014878005092200001c2b3008f
:103040000148780060922000f1c4b3000148780084
:1030500070922000b1c4b300014878007168ef009d
:1030600060a6200010407800804078000134a00065
:1030700060a62000014878005800370040a62000d4
:10308000104078000004e0001c003a0073c8bf0044
:10309000e14f500019003a000092200031c5b30002
:1030a0000148780010922000f1c2b3000148780076
:1030b0002092200001c2b300014878003092200025
:1030c00071c4b300014878004092200021c5b300cc
:1030d000014878005092200011c4b30001487800e4
:1030e0006092200061c5b300014878007092200012
:1030f00011c4b3000148780038003700f051800057
:103100000000e0001d003200005280000000e000de
:103110001a003200105280000000e0001700320058
:10312000205280000000e000140032003052800085
:103130000000e00011003200405280000000e0007a
:103140000e003200505280000000e0000b00320000
:1031500020a62000104078000004e00007003200a4
:10316000705280000000e0000400320040a6200001
:10317000104078000004e00018003a00009220009f
:1031800001c2b300014878001092200001c2b300d0
:10319000014878002092200051c4b3000148780013
:1031a0003092200021c5b3000148780040922000f1
:1031b00021c5b3000148780050922000f1c4b3004b
:1031c000014878006092200001c2b30001487800f5
:1031d0007092200001c2b300014878008092200064
:1031e00001c2b3000148780090922000c1c7b3002b
:1031f00001487800a092200001c2b3000148780085
:1032000080528000e10f500043003a00905280004d
:10321000e10f500040003a00a0528000e10f500042
:103220003d003a00b0528000e10f50003a003a00f1
:10323000c0528000e10f500037003a00d0528000a9
:10324000e10f500034003a00e0528000e10f5000de
:1032500031003a0030a6200010407800e14f5000c5
:103260002d003a0000538000e10f50002a003a0080
:1032700050a6200010407800e14f500026003a0090
:10328000b092200041c5b30001487800c0922000f0
:1032900051c4b30001487800d092200031c5b3007a
:1032a00001487800e092200041c5b3000148780051
:1032b000f092200051c4b300014878000093200030
:1032c00001c2b3000148780010932000f1c4b3009c
:1032d0000148780020932000b1c4b3000148780071
:1032e00080c0b30071e8b70060a6200010407800ed
:1032f0008040780071c8bf000080fb0000004000e3
:103300000040780000c070008040780060a6200077
:10331000014878005800370050a62000104078007f
:103320000004e0001c003a0074c8bf00e14f5000e8
:1033300019003a00b092200031c5b300014878006e
:10334000c0922000f1c2b30001487800d092200062
:1033500001c2b30001487800e092200071c4b300bc
:1033600001487800f092200021c5b30001487800a0
:103370000093200011c4b30001487800109320008e
:1033800061c5b300014878002093200011c4b30048
:103390000148780038003700805280000000e000cb
:1033a0001d003200905280000000e0001a00320040
:1033b000a05280000000e00017003200b0528000f0
:1033c0000000e00014003200c05280000000e00065
:1033d00011003200d05280000000e0000e003200e8
:1033e000e05280000000e0000b00320030a6200018
:1033f000104078000004e000070032000053800015
:103400000000e0000400320050a6200010407800c8
:103410000004e00018003a00b092200001c2b3009e
:1034200001487800c092200001c2b3000148780032
:10343000d092200051c4b30001487800e0922000ef
:1034400021c5b30001487800f092200021c5b300e7
:103450000148780000932000f1c4b30001487800cf
:103460001093200001c2b30001487800209320008f
:1034700001c2b300014878003093200001c2b300bc
:10348000014878004093200001c2b3000148780051
:103490005093200001c2b30001487800a20120002f
:1034a000210f2000a0002000c3090700c0912000c8
:1034b00041c0b30001487800d09120008040eb006b
:1034c00001487800e091200001c2b3000148780073
:1034d000f091200001c2b300014878000092200062
:1034e00001c2b300014878001092200001c2b3006d
:1034f000014878002092200001c2b3000148780002
:103500003092200001c2b3000148780040922000b0
:1035100001c2b300014878005092200001c2b300fc
:10352000014878006092200001c2b3000148780091
:103530007092200001c2b300014878008092200000
:1035400001c2b300014878009092200001c2b3008c
:1035500001487800a092200001c2b3000148780021
:10356000b092200001c2b30001487800c092200050
:1035700001c2b30001487800d092200001c2b3001c
:1035800001487800e092200001c2b30001487800b1
:10359000f092200001c2b30001487800009320009f
:1035a00001c2b300014878001093200001c2b300ab
:1035b000014878002093200001c2b3000148780040
:1035c0003093200001c2b3000148780040932000ee
:1035d00001c2b300014878005093200001c2b3003b
:1035e00001487800a2012000210f2000a000200047
:1035f000710907000080fa00000006000400fa00cc
:10360000204798002e4090000000fb006b00400017
:10361000250e07002e4090000000fb0080004000b7
:10362000209b20000080400010007800e10f500037
:10363000190032002e4090000000fb008000400086
:10364000209b20000080400010007800e20f500016
:10365000110032002e4090000000fb00800040006e
:10366000209b20000080400010007800e30f5000f5
:10367000090032002e4090000000fb008000400056
:10368000209b20000080400090007800b00f2000b8
:10369000808f500011003a00320320008000eb00c0
:1036a00020002000960b0700120820008000eb008d
:1036b00030002000920b07002e4090000000fb001d
:1036c00080004000209b2000008040008000eb0034
:1036d000010878005e28ef00f40037002e409000cb
:1036e0000000fb0080004000209b20000080400084
:1036f00090007800000f2000008060000000e000d3
:10370000b00032002e4090000000fb006600b900bf
:1037100000007800000f78002e4090000000fb00b1
:1037200080004000209b2000008040009000780036
:10373000100f2000808f500006003a005102200038
:103740001e8040004809070010002000c042880089
:10375000710037002e4090000000fb008000400008
:10376000209b20000080400090007800300f200057
:10377000808f500006003a00610220001e80400049
:103780003909070010002000c0428800620037009d
:103790002e4090000000fb0080004000209b200095
:1037a0000080400090007800400f2000808f500083
:1037b00006003a00710220001e8040002a0907001e
:1037c00010002000c0428800530037002e409000b7
:1037d0000000fb0080004000209b20000080400093
:1037e00090007800600f2000808f500006003a00a3
:1037f000810220001e8040001b09070010002000ed
:10380000c0428800440037002e4090000000fb00ba
:1038100080004000209b2000008040009000780045
:10382000700f2000808f500006003a0091022000a7
:103830001e8040000c09070010002000c0428800d4
:10384000350037002e4090000000fb008000400053
:10385000209b20000080400090007800500f200046
:10386000808f500009003a0020428000f20f500083
:1038700006003e00a10220001e804000fa0807005a
:1038800010002000c0428800230037002e40900026
:103890000000fb0080004000209b200000804000d2
:1038a00090007800f00f2000808f50000a003a004e
:1038b000f142800080022000808f50000600360018
:1038c000e10320001e804000e708070010002000f0
:1038d000c0428800100037002e4090000000fb001e
:1038e00080004000209b2000008040009000780075
:1038f000f00f2000808f500007003a00f142800056
:1039000080022000808f500003003e00f0428000c3
:103910000000e800f0428800c04280000000e000a3
:103920006200320070c8bf00804078002e409000d6
:103930000000fb00120020000010dd0000407800b5
:1039400000c0700070e8b7002e4090000000fb003f
:10395000ae4090008100fb0022a62000e2c078006b
:1039600001417800ae4090008100fb001300200070
:103970008118dd00814078008140710001417800ac
:1039800021a62000827078002e4090000000fb00ed
:1039900041a620000041eb00827078002e4090008c
:1039a0000000fb0080004000209b200000804000c1
:1039b0008000eb00010878005828ef005e28ef0037
:1039c0003a0037002e4090000000fb0080004000cd
:1039d000209b20000080400010007800e40f500081
:1039e00032003a00401f20008041880070c8bf00ac
:1039f000804078002e4090000000fb001200200064
:103a00000010dd000040780000c0700070e8b700d2
:103a10002e4090000000fb0041a6200012c0b30021
:103a2000827078002e4090000000fb00b007b000cc
:103a3000000178008000eb0030002000b00a070091
:103a4000604380000000e00003003a002042800054
:103a5000f40f500006003e0060438000e10f50006c
:103a60000a003a0020428000fe0f50000700360096
:103a70002e4090000000fb0041a620000041eb001a
:103a800082707800e0032000770807002e40900045
:103a90000000fb0080004000209b200000804000d0
:103aa0008000eb00010878005e28ef000080fa003b
:103ab000000006000000fa00604180000000e00005
:103ac00013063200804180000000e00010063a003a
:103ad000004380000000e0000d063a0050418000e5
:103ae0008000eb008201200003002000820f5000c4
:103af000838f580006063e00006001001800370062
:103b0000580037007400370097003700e600370090
:103b10007401370000023700200237005b023700d3
:103b200080023700e1023700430337009203370079
:103b3000c7033700e7033700b1043700cd0437006f
:103b4000fb043700290537004b0537006a053700ad
:103b500070053700ee053700ed053700aa05370080
:103b600010002000f0518800100020000052880052
:103b70001000200010528800100020002052880001
:103b800010002000305288001000200040528800b1
:103b90001000200050528800100020006052880061
:103ba000100020007052880010c0b30073e8b70006
:103bb00020a6200011c0b3000148780010c0b30057
:103bc00077e8b7007568ef00100020008052880089
:103bd000100020009052880010002000a0528800a1
:103be00010002000b052880010002000c052880051
:103bf00010002000d052880010002000e052880001
:103c000010002000f05288001000200000538800af
:103c100010c0b30074e8b70030a6200011c0b30094
:103c20000148780010c0b30078e8b7007668ef006c
:103c3000420320008000eb0020002000300a070033
:103c40000001eb008000eb00300020002c0a070090
:103c5000100020005041880040062000804188006c
:103c6000ab05370012002000110020000000eb001f
:103c7000c50c070042002000410020000000eb00be
:103c8000c10c070082002000810020000000eb0032
:103c9000bd0c070002022000010220000000eb0022
:103ca000b90c0700720720008000eb002000200004
:103cb000130a0700220420008000eb0030002000df
:103cc0000f0a0700803e200080418800200020006d
:103cd000504188008e053700710020004000200010
:103ce000120b0700d0438800d0438000e10f400052
:103cf00008003200d1438000b0232000808f5000a4
:103d000004003400d1438000a02f2000808f500099
:103d10000d0034000000eb005052880040a6200047
:103d20008040eb00014878000001eb00110020000a
:103d30000000eb00940c07007768ef0010c0b300a0
:103d400075e8b7000500370040a6200011c0b30099
:103d50000148780010c0b30077e8b70030002000b9
:103d6000504188006a053700710020005000200093
:103d7000ee0a0700d0438800d0438000e10f4000e6
:103d800008003200d1438000b0232000808f500013
:103d900004003400d1438000a02f2000808f500009
:103da0000d0034000000eb00e052880050a6200017
:103db0008040eb00014878000001eb00810020000a
:103dc0000000eb00700c07007868ef0010c0b30033
:103dd00076e8b7000500370050a6200011c0b300f8
:103de0000148780010c0b30078e8b70040a6200072
:103df000104078000004e00007003a0050a62000c0
:103e0000104078000004e00003003a002001200088
:103e1000504188003e05370040a620001040780041
:103e2000e14f500004003a0050a6200010407800f6
:103e30000004e0000800320040a620001040780096
:103e40000004e00015003a0050a620001040780061
:103e5000e14f500011003a007168ef000800370090
:103e600071c8bf000080fb00a19d20000041eb0055
:103e70008270780071c8bf000040e80071e8b700a8
:103e80001187200091407800f0c3b30080cf50002c
:103e9000f3ff36005468ef005568ef004000200043
:103ea000504188001a053700120320008000eb0003
:103eb000300020009209070040a620001040780042
:103ec000e14f500084003a00110020004000200023
:103ed000960a0700d0438800d0438000e10f4000dd
:103ee00008003200d1438000b0232000808f5000b2
:103ef00004003400d1438000a02f2000808f5000a8
:103f00000700340030002000570707000000eb00d6
:103f1000505288007368ef0010c0b30075e8b70016
:103f20002100200040002000800a0700d0438800c4
:103f3000d0438000e10f400008003200d1438000f0
:103f4000d00b2000808f500004003400d14380004b
:103f5000a02f2000808f500005003400400020007a
:103f6000410707000000eb00505288007368ef0023
:103f700031002000400020006c0a0700d043880078
:103f8000d0438000e10f400008003200d1438000a0
:103f9000b0232000808f500004003400d143800003
:103fa000a02f2000808f5000070034006000200008
:103fb0002d0707000000eb00505288007368ef00e7
:103fc00010c0b30075e8b700410020004000200099
:103fd000560a0700d0438800d0438000e10f40001c
:103fe00008003200d1438000b0232000808f5000b1
:103ff00004003400d1438000a02f2000808f5000a7
:104000000700340070002000170707000000eb00d5
:10401000505288007368ef0010c0b30075e8b70015
:104020005100200040002000400a0700d0438800d3
:10403000d0438000e10f400008003200d1438000ef
:10404000b0232000808f500004003400d143800052
:10405000a02f2000808f5000090034005000200065
:10406000010707000000eb00505288007368ef0062
:1040700010c0b30075e8b70010c0b30075e8b70012
:104080006100200040002000280a0700d04388007b
:10409000d0438000e10f400008003200d14380008f
:1040a000b0232000808f500004003400d1438000f2
:1040b000a02f2000808f50000700340080002000d7
:1040c000e90607000000eb00505288007368ef001b
:1040d00010c0b30075e8b7005000200050418800c0
:1040e0008b04370050a6200010407800e14f5000ac
:1040f00084003a0011002000500020000b0a070045
:10410000d0438800d0438000e10f40000800320017
:10411000d1438000b0232000808f50000400340081
:10412000d1438000a02f2000808f50000700340072
:1041300020012000cc0607000000eb00e0528800c0
:104140007468ef0010c0b30076e8b70021002000cb
:1041500050002000f5090700d0438800d0438000bc
:10416000e10f400008003200d143800030142000ed
:10417000808f500004003400d1438000a02f200025
:10418000808f50000700340030012000b606070081
:104190000000eb00e05288007468ef0010c0b3002c
:1041a00076e8b7003100200050002000df0907004a
:1041b000d0438800d0438000e10f40000800320067
:1041c000d1438000b0232000808f500004003400d1
:1041d000d1438000a02f2000808f500007003400c2
:1041e00050012000a00607000000eb00e05288000c
:1041f0007468ef0010c0b30076e8b70041002000fb
:1042000050002000c9090700d0438800d043800037
:10421000e10f400008003200d1438000b0232000ad
:10422000808f500004003400d1438000a02f200074
:10423000808f500007003400600120008a060700cc
:104240000000eb00e05288007468ef0010c0b3007b
:1042500076e8b7005100200050002000b3090700a5
:10426000d0438800d0438000e10f400008003200b6
:10427000d1438000b0232000808f50000400340020
:10428000d1438000a02f2000808f50000700340011
:1042900040012000740607000000eb00e052880097
:1042a0007468ef0010c0b30076e8b700610020002a
:1042b000500020009d090700d0438800d0438000b3
:1042c000e10f400008003200d1438000b0232000fd
:1042d000808f500004003400d1438000a02f2000c4
:1042e000808f500007003400700120005e06070038
:1042f0000000eb00e05288007468ef0010c0b300cb
:1043000076e8b7006000200050418800a00220003d
:1043100020428800fe03370020428000f90f500041
:10432000ea033a0040a6200010407800e14f500018
:1043300004003a0022002000210020000000eb00d1
:10434000110b070050a6200010407800e14f5000ec
:1043500004003a0002012000010120000000eb00ef
:10436000090b070040a6200010407800e14f5000e4
:1043700003003a007000200050418800e403370039
:1043800040a62000104078000004e000d1033a006d
:104390008000200050418800dd03370040a6200047
:1043a00010407800e14f500035003a002042800074
:1043b000e20f500032003e0071002000400020005b
:1043c0005a090700d0438800d1438000d00b200059
:1043d000808f500012003c000001eb002100200003
:1043e0000000eb00e80a070050a62000104078000b
:1043f0000004e000030032008000200050418800eb
:104400001f00370050a62000104078000004e00094
:104410001b003a009000200050418800180037002f
:10442000204280000000e00015003a000001eb008f
:10443000210020000000eb00d30a0700a0002000ac
:104440000906070010c0b30075e8b70050a62000a9
:10445000104078000004e0000300320080002000db
:10446000504188000600370050a620001040780018
:104470000004e00002003a00900020005041880053
:10448000401f200080418800a103370050a6200073
:1044900010407800e14f50001f003a002042800099
:1044a000e20f50001c003e00710020005000200070
:1044b0001e090700d0438800d1438000d00b2000a4
:1044c000808f500007003c000001eb00010120003c
:1044d0000000eb00ac0a070090002000504188006b
:1044e0000d003700204280000000e0000a003a0082
:1044f0000001eb00010120000000eb00a20a070010
:1045000090012000d805070010c0b30076e8b7007e
:104510009000200050418800401f2000804188000a
:104520007b03370040a6200010407800e14f500088
:104530005a003a001100200040002000fb0807004c
:10454000d0438800d1438000e00b2000808f5000d2
:1045500007003400b0002000c30507000000eb0096
:10456000f05188007368ef0010c0b30075e8b70021
:104570002100200040002000ec080700d043880004
:10458000d1438000e00b2000808f500007003400f2
:10459000c0002000b40507000000eb0000528800b6
:1045a0007368ef0010c0b30075e8b7003100200059
:1045b00040002000dd080700d0438800d143800080
:1045c000e00b2000808f500007003400d000200056
:1045d000a50507000000eb00105288007368ef008b
:1045e00010c0b30075e8b700410020004000200073
:1045f000ce080700d0438800d1438000e00b2000a4
:10460000808f500007003400e0002000960507006e
:104610000000eb00205288007368ef0010c0b30068
:1046200075e8b7005100200040002000bf080700d7
:10463000d0438800d1438000e00b2000808f5000e1
:1046400007003400f0002000870507000000eb00a1
:10465000305288007368ef0010c0b30075e8b700ef
:104660006100200040002000b0080700d04388000f
:10467000d1438000e00b2000808f50000700340001
:1046800000012000780507000000eb004052880080
:104690007368ef0010c0b30075e8b7004428ef005e
:1046a000a0002000504188001903370050a62000c8
:1046b00010407800e14f50005a003a0011002000ed
:1046c0005000200099080700d0438800d1438000a3
:1046d000e00b2000808f500007003400a001200074
:1046e000610507000000eb00805288007468ef004d
:1046f00010c0b30076e8b700210020005000200071
:104700008a080700d0438800d1438000e00b2000d6
:10471000808f500007003400b001200052050700d0
:104720000000eb00905288007468ef0010c0b300e6
:1047300076e8b70031002000500020007b08070019
:10474000d0438800d1438000e00b2000808f5000d0
:1047500007003400b0012000430507000000eb0013
:10476000a05288007468ef0010c0b30076e8b7006c
:1047700041002000500020006c080700d043880052
:10478000d1438000e00b2000808f500007003400f0
:10479000d0012000340507000000eb00b052880073
:1047a0007468ef0010c0b30076e8b7005100200035
:1047b000500020005d080700d0438800d1438000ee
:1047c000e00b2000808f500007003400e001200043
:1047d000250507000000eb00c05288007468ef0058
:1047e00010c0b30076e8b700610020005000200040
:1047f0004e080700d0438800d1438000e00b200022
:10480000808f500007003400f001200016050700db
:104810000000eb00d05288007468ef0010c0b300b5
:1048200076e8b700b000200050418800800c2000de
:1048300080418800b6023700720320008000eb0040
:10484000300020002e070700f0518000e10f5000db
:1048500018003a0000528000e10f500015003a00a5
:1048600010528000e10f500012003a0020528000e8
:10487000e10f50000f003a0030528000e10f50006d
:104880000c003a0040528000e10f500009003a004d
:1048900050528000e10f500006003a007568ef00aa
:1048a000f2002000f100200010002000b6090700ef
:1048b0000200370010c0b30075e8b70080528000d6
:1048c000e10f500018003a0090528000e10f5000b4
:1048d00015003a00a0528000e10f500012003a008b
:1048e000b0528000e10f50000f003a00c05280002b
:1048f000e10f50000c003a00d0528000e10f500050
:1049000009003a00e0528000e10f500006003a0032
:104910007668ef00020f2000010f20001000200039
:10492000990907000200370010c0b30076e8b7000d
:1049300075c8bf00e14f500006003a0076c8bf00be
:10494000e14f500003003a00200120005041880050
:104950006f023700401f2000d0428800c0002000b6
:10496000504188000001eb00010420000000eb0032
:104970008509070066023700d04280000000e00091
:1049800056023a0077c8bf000004e000030032007e
:1049900075c8bf00e14f500002003a0010c0b300dc
:1049a00070e8b70078c8bf000004e00003003200e0
:1049b00076c8bf00e14f500002003a0020c0b300ab
:1049c00070e8b70070c8bf000080fb0061006000a5
:1049d0000000e00009003a0001012000b0002000c2
:1049e0001309070011032000b00020001f09070071
:1049f00040a620008040eb000148780070c8bf004e
:104a00000080fb00620060000000e00009003a0046
:104a100001012000c000200005090700110320004b
:104a2000c00020001109070050a620008040eb00c4
:104a300001487800803e2000d0428800d00020004d
:104a400050418800e00120002042880030023700f9
:104a5000d04280000000e00022023a007168ef00be
:104a60001400370071c8bf000080fb0080004000c8
:104a7000209b2000008040008000eb0001087800af
:104a800070c8bf008080fb0071c8bf000080fb00c1
:104a90000088de00610060000000e00002003a00d3
:104aa00071c8bf00d5fa070071c8bf000040e80018
:104ab00071e8b70071c8bf00e14f5000e9ff360050
:104ac000803e200080418800e000200050418800a6
:104ad0000f02370070c8bf00e34f500003003200e0
:104ae000204280000000e000c2003a002042800026
:104af0000000e00091003a007cc8bf000004e00024
:104b000028003a007cc8bf000040e8007ce8b700fd
:104b10007168ef000800370071c8bf000080fb001b
:104b2000a19d20000041eb008270780071c8bf0099
:104b30000040e80071e8b70011872000914078003c
:104b4000f0c3b30080cf5000f3ff36005468ef008d
:104b50005568ef007168ef000a00370071c8bf00a8
:104b60000080fb0080004000209c2000008040006e
:104b70008000eb000108780071c8bf000040e80029
:104b800071e8b70071c8bf00f34f5000f3ff360063
:104b9000b000200050418800c02b200080418800d8
:104ba000910037007168ef003000370070c8bf0017
:104bb0008080fb0071c8bf000080fb000088de0021
:104bc000610060000000e00025003a0071c8bf00ed
:104bd0000004e00004003a0071c8bf000080fb0040
:104be0004002b0002004070071c8bf00e14f500030
:104bf00004003a0071c8bf000080fb004002b00012
:104c00001904070071c8bf000080fb0041a6200006
:104c10000041eb008270780071c8bf000080fb008b
:104c200011872000914078008180fb0022a620009f
:104c3000e2c078000141780011872000914078009f
:104c40008180fb00130020008118dd008140780086
:104c5000814071000141780021a620008270780017
:104c600071c8bf000040e80071e8b70071c8bf001c
:104c7000e14f5000cdff360071c8bf000080fb003f
:104c800021a6200061407800e34f500007003a0061
:104c900020c0b30075e8b70020c0b30076e8b700c5
:104ca00020012000504188004f00370071c8bf002c
:104cb0008080fb0000872000008040008040eb00e7
:104cc0000148780040a62000104078000004e00071
:104cd00005003a0020c0b30075e8b70020a6200008
:104ce0008040eb000148780050a62000104078007a
:104cf0000004e00005003a0020c0b30076e8b700e9
:104d000030a620008040eb00014878007c68ef006e
:104d10000001eb00f1002000100020009a080700bd
:104d20000001eb00010f2000100020009608070092
:104d300020012000504188002b00370020a62000d1
:104d400010407800e34f50000400320030a62000ed
:104d500010407800e34f500007003a0020c0b30035
:104d600075e8b70020c0b30076e8b7002001200046
:104d7000504188001c0037007068ef007c68ef002d
:104d800040a62000104078000004e00003003a0034
:104d900020c0b30075e8b700010037007568ef0068
:104da00050a62000104078000004e00003003a0004
:104db00020c0b30076e8b700010037007668ef0046
:104dc000f0002000504188000001eb00f1002000bd
:104dd000100020006c0807000001eb00010f20000c
:104de0001000200068080700401f20008041880054
:104df00047013700d00020005041880044013700af
:104e0000720720008000eb0020002000bc05070096
:104e1000120420008000eb0030002000b8050700dd
:104e200040a6200010407800e14f500004003a00f6
:104e300012002000110020000000eb0052080700c3
:104e400050a6200010407800e14f500004003a00c6
:104e500082002000810020000000eb004a080700cb
:104e6000803e2000d0428800000120005041880090
:104e70002701370040a6200010407800e14f500085
:104e800028003a0077c8bf00e14f500025003a00e3
:104e90007100200040002000a4060700d0438800d5
:104ea000d0438000e10f400008003200d143800071
:104eb000b0232000808f500004003400d1438000d4
:104ec000a02f2000808f5000090034001000200027
:104ed0007052880010012000504188000001eb0052
:104ee000110020000000eb00270807000801370030
:104ef0000000eb00705288000001eb001100200060
:104f00000000eb002008070010c0b30075e8b700f0
:104f10001001200050418800300420005203070097
:104f2000fb0037001001200050418800f8003700d6
:104f300050a6200010407800e14f500028003a00b1
:104f400078c8bf00e14f500025003a0071002000f2
:104f50005000200075060700d0438800d043800031
:104f6000e10f400008003200d1438000b023200050
:104f7000808f500004003400d1438000a02f200017
:104f8000808f50000900340020012000504188002b
:104f90000001eb00810020000000eb00fa07070091
:104fa0001000200000538800d90037000000eb00fb
:104fb000005388000001eb00810020000000eb009e
:104fc000f107070010c0b30076e8b7002001200009
:104fd000504188004004200023030700cc00370024
:104fe0002001200050418800c90037004428ef000c
:104ff0000001eb00410020000000eb00e207070089
:105000000001eb00010220000000eb00de070700ba
:105010000001eb00110020000000eb00da070700a0
:105020000001eb00810020000000eb00d607070024
:105030000001eb00f100200010002000d207070063
:105040000001eb00010f200010002000ce07070038
:1050500040062000d042880041002000500020007f
:105060006205070080fc2a004042880030012000d1
:1050700050418800a6003700204280000000e00078
:105080000a003a00d04280000000e00007003a0029
:105090001405070060a620008040eb00014878005e
:1050a00053f70700400120005041880083050700a6
:1050b0000040780072e8b70072c8bf000080fb00b3
:1050c000610060000000e00088003a000204200057
:1050d000010420000000eb00ab0707008001200066
:1050e0005041880000a62e0040428800800c20001d
:1050f000d04288008600370040062000d042880059
:1051000040002000204288005001200050418800cb
:105110007f003700d04280000000e00075003a00b8
:10512000204280000000e00024003a0055c8bf0083
:105130000004e00017003200ea040700a203200088
:105140008000eb0010002000ed040700d2032000d7
:105150008000eb0020002000e9040700b2032000db
:105160008000eb0030002000e5040700c2032000af
:105170008000eb0040002000e10407003001200027
:10518000504188005a28ef0040002000204288004b
:105190000a00370030012000504188005a28ef00f3
:1051a0001000200020428800ce04070022082000c2
:1051b0008000eb0020002000d10407003f0507001d
:1051c0000040780072e8b70072c8bf000080fb00a2
:1051d000610060000000e00048003a000204200086
:1051e000010420000000eb00670707008001200099
:1051f0005041880000a62e0040428800800c20000c
:10520000d042880042003700d04280000000e00019
:105210003c003a000001eb00010420000000eb001c
:10522000590707002c28ef0010002000f0418800eb
:105230003828ef0075c8bf000004e0000a003a00fb
:1052400077c8bf00e14f500007003a00705280005d
:10525000e10f500004003a00404380000000e800e5
:105260004043880003003700504380000000e800fe
:105270005043880076c8bf000004e0000a003a00ee
:1052800078c8bf00e14f500007003a00005380008b
:10529000e10f500004003a00404380000000e800a5
:1052a0004043880003003700504380000000e800be
:1052b0005043880055c8bf000004e00013003a00c6
:1052c000100020007041880011003700000000002d
:1052d0000f003700000000000d0037000000000044
:1052e0000b0037000000000009003700000000003c
:1052f0000700370000000000050037000000000034
:10530000030037000000000001003700000000002b
:1053100060418000e10f50009a003a00f0438000a5
:105320008000780040418000808f5000950032005e
:1053300050418000f10f500092003e0040c1b30088
:1053400071e8b7000800370071c8bf000080fb009b
:10535000c19120000041eb008270780071c8bf004d
:105360000040e80071e8b70071c8bf00f94f500075
:10537000f5ff3600c091200041c0b300014878001d
:10538000d091200031c0b30001487800e0912000a6
:1053900001c2b3000148780021428000d0cc2c002b
:1053a0000008b8004308de000040780002c3b300e4
:1053b00082404000f09120000148780022428000a5
:1053c000d0cc2c000010b8004308de006a00b90001
:1053d00000007800000051000040780002c3b300d4
:1053e0008240400000922000014878001092200086
:1053f00001c2b3000148780020922000c1c7b30069
:10540000014878003092200001c2b30001487800c2
:1054100040418000c300de00b04721000008b80012
:105420000100d1000040780002c3b3008240400078
:105430004092200001487800404180008000d10067
:105440004006200000017800110009008280d80089
:105450008000fd0080007800d0cc2c000008b8004f
:105460004308de000040780002c3b30082404000e1
:105470005092200001487800404180008000d10017
:105480004006200000017800110009008280d80049
:105490008000fd0000017800d0cc2c000010b80086
:1054a0004308de006a00b9000000780000005100e7
:1054b0000040780002c3b3008240400060922000a8
:1054c000014878007092200001c2b30001487800c2
:1054d0008092200031c7b3000148780090922000ec
:1054e00051c6b30001487800a092200071c6b300f5
:1054f00001487800b092200001c2b3000148780052
:10550000c0922000c1c7b30001487800d0922000ab
:1055100001c2b3000148780051418000d0cc2c007a
:105520000008b8004308de000040780002c3b30062
:1055300082404000e0922000014878005241800003
:10554000d0cc2c000010b8004308de006a00b9007f
:1055500000007800000051000040780002c3b30052
:1055600082404000f092200001487800a201200013
:10557000210f2000a00020008f0107004041800083
:10558000f04388000080fa00000006000000fa00e6
:105590000bc8bf000004e00072013a0005c8bf005c
:1055a0000080fb00e30f500080003200e30f50004a
:1055b00007003c00e10f50002d003200e10f5000c9
:1055c00052003c000000e0000800320057013700a4
:1055d000e50f50009c003200e50f500082003500be
:1055e000e60f5000a90032005001370080bb2000b8
:1055f000a04088002222a9001011800061006000f4
:105600000000e0000400320030118000004078000b
:1056100004e8b7001400370005c8bf000040e800e8
:1056200005e8b7000868ef000800370008c8bf00a9
:105630000080fb00418a20000041eb00827078006e
:1056400008c8bf000040e80008e8b70081802000db
:105650009140780070c7b30080cf5000f3ff360050
:105660000468ef000768ef002222a9003d0137001f
:105670000068ef000a68ef0001c8bf000080fb006f
:1056800020118800018020009140780001c8bf00ef
:1056900000c0680000e8b70003c8bf000080fb003e
:1056a00020118800018020009140780003c8bf00cd
:1056b00000c0680000e8b70006c8bf000080fb001b
:1056c00020118800018020009140780006c8bf00aa
:1056d00000c0680000e8b70009c8bf000080fb00f8
:1056e00020118800018020009140780009c8bf0087
:1056f00000c0680000e8b7000868ef0005c8bf00f8
:105700000040e80005e8b7001601370010118000de
:10571000610060000000e0000300320030118000f2
:105720000040780004e8b70009c8bf000004e000aa
:105730001500320011118000002020000080600060
:105740000000e00010003a0008c8bf000080fb0025
:10575000c1912000614078000080fb00201188008a
:1057600008c8bf000080fb00c1912000e140780024
:1057700000c8bf0000c0680000e8b70008c8bf004c
:105780000040e80008e8b7008180200091407800e0
:1057900009c8bf0080cf5000eb00390005c8bf002a
:1057a0000040e80005e8b700ee0037001111800066
:1057b00000202000008060000000e000e4003a00cb
:1057c00000c8bf0000c0ea0000e8b70000c8bf0082
:1057d0000080fb002011880005c8bf000040e800e1
:1057e00005e8b700df00370011118000001020002d
:1057f000008060000000e000d70032002222a900f3
:10580000301180000040780004e8b70030118000bb
:105810000040780004e8b7003011800000407800b4
:1058200004e8b700301180000040780004e8b700b9
:105830000068ef000868ef0005c8bf000040e800fe
:1058400005e8b700c700370003c8bf00e14f4000bc
:10585000080032002342a900d4c2a90005c8bf0035
:105860000040e80005e8b70040012000a0408800a3
:10587000bc00370005c8bf000040e80005e8b700dd
:1058800040012000a0408800b600370003c8bf00d8
:10589000e14f4000a1003200101180006100600063
:1058a0000000e0008e0032001011800062006000f5
:1058b0000000e0008a003a00a0002000a04088001c
:1058c00008c8bf000004e00009003a003011800061
:1058d0000040780002e8b700018020009140780085
:1058e00002c8bf0000c0680000e8b7002e00370003
:1058f00008c8bf00e14f500009003a003011800095
:105900000040780004e8b700018020009140780052
:1059100004c8bf0000c0680000e8b70022003700dc
:1059200008c8bf00e24f500009003a003011800063
:105930000040780007e8b70001802000914078001f
:1059400007c8bf0000c0680000e8b70016003700b5
:1059500008c8bf000080fb006300500031118000c8
:1059600001417800418a20008270780008c8bf0099
:105970008080fb0007c8bf000080fb006300400080
:10598000808f50000800320008c8bf000080fb0074
:1059900063005000418a2000e140780000c8bf0049
:1059a00000c0680000e8b70008c8bf000040e80079
:1059b00008e8b70006c8bf00ff4f50001a003600c5
:1059c000418020009140780003c8bf0080cf500084
:1059d00043003a00218020009140780001c8bf00b8
:1059e00080cf50003e003a0008c8bf00e44f50008e
:1059f0003b003a0000c8bf0000c0ea0000e8b70062
:105a0000408a20009040780000c8bf0080cf50003e
:105a100002003a0010c0b3000ae8b70010c0b3009b
:105a20000be8b7002e00370008c8bf00e34f500056
:105a30002000360008c8bf008080fb0007c8bf00f8
:105a40000080fb0063004000808f5000190034008c
:105a500010c0b3000be8b70000c8bf0000c0ea00e8
:105a600000e8b70007c8bf000080fb00418a2000a3
:105a7000e140780000c8bf0080cf500018003a0015
:105a8000418020009140780003c8bf0080cf5000c3
:105a900010003a00218020009140780001c8bf002a
:105aa00080cf50000d003a0010c0b3000ae8b700e4
:105ab0000b003700818020009140780080c7b30040
:105ac00080cf50000600360010c0b3000be8b700ce
:105ad0000300370000000000010037000000000054
:105ae0000bc8bf000004e00004003a001011800061
:105af000620060000000e0001900320005c8bf002d
:105b00000040e80005e8b700d4c2a8002342a8007e
:105b10000568ef001428ef001200370005c8bf0029
:105b20000040e80005e8b7000e003700d4c2a80026
:105b30002342a8000568ef0010c0b3000be8b700cf
:105b40001428ef00070037000000000005003700b0
:105b500000000000030037000000000001003700d3
:105b600000000000a04080000000e00010003200b3
:105b7000a04080000000e900a0408800a040800014
:105b80000000e0000a003a002342a9002222a900f6
:105b9000d4c2a8002342a8000568ef001428ef0033
:105ba0000068ef000a68ef0010c0b3000be8b70010
:105bb0000080fa00000006000600fa002047980066
:105bc00031479800424798000000eb00000f780032
:105bd0002e4090000000fb00116d2900614078000c
:105be00001e8b7002e4090000000fb00416e290044
:105bf0006140780003e8b7003e40900006e8b70037
:105c00004e40900009e8b7000b68ef00000000006c
:105c10000bc8bf000004e000fdff3200a000200020
:105c2000f10407001e0fe8000ac8bf000004e000ee
:105c30000b003a001e007800e20f500008003c0004
:105c40002e4090000000fb0080004000209c2000bf
:105c50000080400010007800e30f5000dcff3600a9
:105c60000080fa00000006000200fa00004f7800f1
:105c700055c8bf000080fb001e417800a19d200098
:105c80008270780055c8bf000040e80055e8b700b2
:105c900055c8bf000074a10055e8b7000080fa00a5
:105ca000000006000000fa00a04180000000e000b3
:105cb0005c003a00a04180000000e00059003a007a
:105cc00010002000a0418800a2c8bf000000fb0017
:105cd000e16b2900614078000004e0004a003200d6
:105ce000a2c8bf00ea4f500003003400a2c8bf00a2
:105cf000f24f500044003400a2c8bf000041eb0046
:105d000001cfb300acff07000ac8bf000004e000e9
:105d100031003a00a2c8bf000000fb008000400034
:105d2000209c20000080400010007800e30f50000d
:105d300029003e00a2c8bf000000fb000001400097
:105d4000219c200081004100910078008100e80042
:105d500000014000209c2000000041000108780064
:105d6000a2c8bf000000fb0080004000209c200073
:105d70000080400010007800e40f500016003a0048
:105d8000a2c8bf004046b000b7ff070011002000c6
:105d90002000200015020700a2c8bf000000fb0081
:105da00080004000209c2000008040005100200026
:105db00001087800604180000000e00003003a0024
:105dc000d04180000000e0000300320010002000fd
:105dd000f04188003828ef00a01680004700de0060
:105de000614060000004a200614060000080fb0090
:105df000610060004700dd00a11680000170a10075
:105e000001007000a0168800a2c8bf000040e80092
:105e1000a2e8b700a2c8bf00f24f50000100340052
:105e2000a268ef000080fa00000006000000fa00ff
:105e300055c8bf000004e0004100320056c8bf0052
:105e40000004e0003e003a00604180000000e000f5
:105e50003b003a0010c0b30056e8b70054c8bf007a
:105e60000004e00009003a0080a620008040eb001a
:105e70000148780090a620008040eb00014878009f
:105e8000a0a620008040eb000148780090a62000ea
:105e90009040780080a6200001487800a0a620004d
:105ea0009040780090a620000148780054c8bf00b8
:105eb0000080fb00a19d20006140780080407800b8
:105ec000a0a620000148780080a62000104078009d
:105ed0000000fb00000178008000eb0020002000a3
:105ee0008701070090a62000104078000000fb000a
:105ef000000178008000eb003000200080010700e6
:105f0000a0a62000104078000000fb0000017800ef
:105f10008000eb00400020007901070054c8bf005a
:105f20000040e80054e8b700418520009140780027
:105f300055c8bf0080cf5000010039005468ef0001
:105f40000080fa00000006000200fa00b041800064
:105f50000000e00071003a0010002000b04188000d
